:100000000C94CA020C94F4270C9402030C9402037F
:100010000C9402030C9402030C9402030C9402034C
:100020000C9402030C9402030C94E9210C94A52176
:100030000C94E6220C9402030C9402030C94020329
:100040000C9402030C9402030C9402030C9402031C
:100050000C9402030C94C2220C9402030C9402032D
:100060000C9402030C9402030C9402030C940203FC
:100070000C9402030C9402030C9402030C940203EC
:100080000C9402030C9402030C9402030C940203DC
:100090000C9402030C9402030C9402030C940203CC
:1000A0000C9402030C9402030C940203825200008D
:1000B0000000000000000000290014001A000800E1
:1000C000150017002B0004001600070009000A00A5
:1000D000A2521D001B0006001900050000000000D0
:1000E0002352A8522C272800000000000000000026
:1000F000000000001302130012000C0018001C0086
:10010000340033000F000E000D000B0035023800E4
:10011000370036001000110000000000A15282528A
:100120000152A45200000000000000000000000086
:100130000100350038023102240255000352360214
:100140002E0037021E025700010056001F02220235
:100150002002540000000000E2002C0000520000C9
:100160000000000000000000000000001300210259
:100170002302340234003500310230022F023000F5
:100180002F002D00310038003502270226022D02F3
:10019000000000000100010002520000000022786F
:1001A00021782078027805780000000000006A00BD
:1001B0006B0000000000E100E000E200E30000004E
:1001C000000000000000000000000000000000002F
:1001D00000000100005200000000000000000000CC
:1001E0000000000000004B0073005200720000008D
:1001F000000028004F00510050002A0000004E006F
:100200000000000000000000000000000000E2000C
:10021000E3000000000000000000000000000000FB
:1002200000000000000000000000000000000100CD
:1002300001000100010000000000000000000000BB
:10024000000000000000000000000000005200005C
:1002500000000000000000000000000057005500F2
:10026000610060005F005400670062005E005D0096
:100270005C002A00850063005B005A0059005600AC
:100280000000000000000000000000001E0F05003C
:10029000047F3F1F643214643214783C1E1E140A1B
:1002A0000500010101010101010101020202020236
:1002B000020202020303030303030303040404040E
:1002C00004040405050505050606060606070707D6
:1002D000070708080808090909090A0A0A0B0B0B8D
:1002E0000C0C0C0D0D0D0E0E0E0F0F0F101011112A
:1002F00011121213131414151516161717181819AE
:10030000191A1A1B1B1C1D1D1E1E1F202021222214
:10031000232424252626272829292A2B2C2D2D2E57
:100320002F30313232333435363738393A3B3C3D71
:100330003E3F404142434445464748494A4C4D4E62
:100340004F50515354555658595A5B5D5E5F616228
:1003500064656668696B6C6D6F7072737577787AB7
:100360007B7D7E8082838587888A8C8E8F91939512
:1003700096989A9C9EA0A2A3A5A7A9ABADAFB1B336
:10038000B5B7BABCBEC0C2C4C6C9CBCDCFD1D4D616
:10039000D8DBDDDFE2E4E7E9EBEEF0F3F5F8FAFDB8
:1003A000FFFFAA7F55402223252628292A2C2D2FFE
:1003B0003032333536383A3B3D3E4042434547497B
:1003C0004A4C4E5051535557595A5C5E60626466B0
:1003D00068696B6D6F71737577797B7D7F818385BC
:1003E00087898A8C8E90929496989A9C9E9FA1A3BE
:1003F000A5A7A8AAACAEAFB1B3B4B6B8B9BBBCBEE2
:10040000BFC1C2C3C5C6C7C9CACBCCCDCED0D1D25D
:10041000D2D3D4D5D6D7D7D8D9D9DADADBDBDBDC5F
:10042000DCDCDCDCDDDDDDDDDCDCDCDCDCDBDBDB0B
:10043000DADAD9D9D8D7D7D6D5D4D3D2D2D1D0CE6B
:10044000CDCCCBCAC9C7C6C5C3C2C1BFBEBCBBB970
:10045000B8B6B4B3B1AFAEACAAA8A7A5A3A19F9EEE
:100460009C9A98969492908E8C8A89878583817FB6
:100470007D7B79777573716F6D6B69686664626097
:100480005E5C5A5957555351504E4C4A4947454363
:1004900042403E3D3B3A3836353332302F2D2C2A00
:1004A00029282625232205010980A1018503190198
:1004B0002AB700150126B700950175108100C00507
:1004C0000C0901A101850419012AA002150126A029
:1004D00002950175108100C005010906A1010507FB
:1004E00019E029E71500250195087501810295019C
:1004F000750881010507190029FF150026FF0095E1
:1005000006750881000508190129059505750191F1
:1005100002950175039101C009023B00020100A090
:10052000FA09040000010301010009211101000181
:1005300022400007058103080001090401000103AE
:100540000000000921110100012232000705820389
:10055000200001120100020000000810CB564200EA
:1005600004010200011803490072006900730020B1
:10057000005200650076002E002000340000000EBE
:10058000034B0065006500620069006F0000000415
:100590000309040011241FBECFEFDAE0DEBFCDBF98
:1005A00004B603FE18C08091740390917503A09166
:1005B0007603B09177038730904BA740B04B59F446
:1005C00010927403109275031092760310927703C1
:1005D000E0E0F8E3099523E0A8EEB1E001C01D9248
:1005E000A437B207E1F711E0A0E0B1E0E8EEF6E5EC
:1005F00002C005900D92A83EB107D9F70E940D23C5
:100600000C941E2B0C940000482F209170039091A5
:10061000370357E0291302C080E0089530E0529F6D
:10062000F001539FF00D1124E85CFC4F81816813A9
:1006300006C08081481303C085818111EECF2F5FF2
:100640003F4F2770E7CFE8EDF0E080818E7F808319
:100650001092E2001092DA001092E100A0EEB0E0F9
:100660008C9181608C9380818F77808319BCA7EDFA
:10067000B0E08C918E7F8C9380818F7E80831092EE
:10068000200308952091E4003091E50095E6A9014A
:100690002091EC00822F817020FF06C08091E8003D
:1006A00080FF06C080E008952091E80022FD1AC076
:1006B00080912D03882389F0853089F08091EB00AB
:1006C00085FD0FC02091E4003091E50042175307EB
:1006D000F9F29150E1F684E0089582E0089583E014
:1006E000089581E0089580912F0387FF13C08091C2
:1006F000E80082FF06C08091E8008B778093E800D5
:1007000004C080912D038111F2CF089580912D03B3
:100710008823D9F38091E80080FFF8CF8091E8002A
:100720008E77ECCF982F9093E900242F762F50E00E
:10073000891731F07091EC002091ED005091F0009C
:1007400021FD07C09F5F973071F78093E90081E03A
:1007500008953091EB003E7F3093EB003091ED0037
:100760003D7F3093ED003091EB0031603093EB0032
:100770007093EC002093ED005093F0002091EE0078
:1007800027FDE0CF80E00895B0E0A0E0EAECF3E0E0
:100790000C941A29C8EDD0E088818F7E8883E7ED1C
:1007A000F0E080818160808384E082BF81E080937B
:1007B000200388818E7F888302EE10E0F80110828A
:1007C0001092DA0081EEC82ED12CF60110828881B9
:1007D0008F77888388818068888388818F7D8883EC
:1007E00019BC10922D0310922E0310922C0310921C
:1007F0002B0390EEE92EF12CF70180818B7F808313
:1008000088818160888342E060E080E00E949203FA
:10081000F60180818E7F8083F801808181608083F2
:10082000808188608083F70180818E7F80838881CA
:1008300080618883CDB7DEB7E8E00C943629FC01EF
:10084000809135039091360386179707A0F06115C4
:10085000710529F49091E8009E779093E80090E06C
:100860006115710551F4911108C08091E80082FF73
:1008700034C080E00895BC01F2CF80912D0388231D
:10088000C1F18530C1F18091E80083FD30C08091D5
:10089000E80082FDEACF8091E80080FFE1CF8091FF
:1008A000F3002091F200382F6115710519F02830FE
:1008B000310558F091E02830310509F090E02091A1
:1008C000E8002E772093E800CBCF81918093F10050
:1008D000615071092F5F3F4FE7CF80912D0388232F
:1008E00041F0853041F08091E80083FFBECF81E088
:1008F000089582E0089583E0089508950895809111
:10090000220308959C014FB7F89480911C039091A5
:100910001D03A0911E03B0911F034FBF821B930BB9
:1009200008952FB7F89460911C0370911D03809176
:100930001E0390911F032FBF08952FB7F894809145
:100940001C0390911D03A0911E03B0911F032FBFA4
:100950000895A3E0B0E0EFEAF4E00C9420292091A0
:10096000190330911A0328173907A1F090931A033D
:1009700080931903E0911703F0911803309751F019
:1009800024E029839B838A830680F781E02DCE01B2
:10099000019609952396E2E00C943C29A3E0B0E08F
:1009A000E4EDF4E00C942029209115033091160316
:1009B00028173907A1F09093160380931503E0914F
:1009C0001703F0911803309751F023E029839B839C
:1009D0008A830680F781E02DCE0101960995239642
:1009E000E2E00C943C29FC01680F791F8FEF91E342
:1009F0002191822728E030E087FF09C0880F8927EE
:100A000021503109C9F7E617F70791F70895880FC4
:100A1000F7CF8F929F92AF92BF92EF92FF920F9378
:100A20001F93CF93DF938630B8F5811136C0909134
:100A300080009F77909380002D98A0918600B091C0
:100A40008700282F30E00E940F2B25E030E040E0A7
:100A500050E00E94ED2A89019A01809186009091D0
:100A600087006CE070E00E94712960177107D8F070
:100A7000C80169E070E00E94712970938900609359
:100A80008800DF91CF911F910F91FF90EF90BF9061
:100A9000AF909F908F90089585E09091800090682E
:100AA00090938000CACF8091860090918700E0905B
:100AB0008600F0908700E0918600F0918700C6E004
:100AC000D0E0BE010E947129060F171F211D311DA4
:100AD0004801590185E0880C991CAA1CBB1C8A9509
:100AE000D1F7C701BE010E9471299F0150E040E08B
:100AF000260F371F411D511DC501B4010E94ED2A6B
:100B000049015A01E0918600F0918700CA01B901BC
:100B10000E9447299B01AC01DF010E94DA2A9B0158
:100B2000AC01C501B4010E9447292FE09695879535
:100B3000779567952A95D1F70091860010918700E7
:100B400030E020E0061717072807390708F095CF8F
:100B5000609186007091870090CFFA01811101C0E9
:100B6000FB0109950895E6EAF2E011828281846032
:100B70008283089580910C03982F9E7F29F48170C1
:100B8000826080930C0308958635E8F38170846554
:100B9000F8CFAF92BF92DF92EF92FF920F931F9325
:100BA000CF93DF93082F162FE901E42FF0E0EF55E4
:100BB000FD4F611110C0E4915E2F4E2F4983E883F1
:100BC0005A83DF91CF911F910F91FF90EF90DF90AB
:100BD000BF90AF900895E62EF12C4491D42EE42FCF
:100BE000F0E026E0829FC00111242FEF30E0B90130
:100BF0000E947129802F90E0880F991F55E5569F1C
:100C0000D001579FB00D11248A1B9B0B982F990F71
:100C1000890F5901AE18BF08AE9ED001AF9EB00D2E
:100C2000BE9EB00D11245B2F189F80011124012F4F
:100C300011275901A01AB10AAE9E8001AF9E100D76
:100C4000BE9E100D11245901A81AB108AE9CC00116
:100C5000AF9C900DBE9C900D1124892F9927281BC5
:100C6000390B2E9FC0012F9F900D3E9F900D112498
:100C7000E92F62307105A1F050F46115710509F496
:100C80009DCF6130710581F0EB2F512F97CF6430EC
:100C9000710569F080F06630710509F48FCFF4CFEB
:100CA000E42F4B2F592F8ACFE42F412F87CFEB2FE3
:100CB000542F492F83CF4B2F5D2DE12F7FCF80E025
:100CC0000895F894E82FE295EF70F0E031A1282F15
:100CD0002F7081E090E001C0880F2A95EAF7982FE5
:100CE0009095932391A392A1892B82A37894089540
:100CF00090917C0292FF06C0282F28712830F9F4C9
:100D0000877F846093FF06C0282F28712831F1F473
:100D1000877E846120917D0220FF06C0382F3871C4
:100D20003830D9F4877F816021FF06C0282F2871D1
:100D30002831D1F4877E816194FD877E0895282F24
:100D400024712430F9F68B7F8860DCCF282F247142
:100D5000243101F78B7E8861DDCF382F317131303E
:100D600019F78E7F8860E0CF282F2171213121F77C
:100D70008E7E8861E1CF82389105B9F1B0F481337C
:100D8000910509F47DC048F48932910509F46DC0DC
:100D90008A32910509F47BC008958533910509F4E1
:100DA0005FC08933910509F10895833E9105D9F11A
:100DB00038F4803E910529F1823E910579F108953C
:100DC000863E9105D9F1873E910509F43EC0843EE7
:100DD000910541F520917D0221FF24C080917C0284
:100DE00084FD19C087EE90E0089520917C02237065
:100DF00009F05AC020917D0223FF14C089E290E0DF
:100E0000089520917C0220FD38C030917D0230FF92
:100E100009C024FF43C090E080E0089520917C0247
:100E200022FDF7CF089520917C0222FD3AC0309137
:100E30007D0230FD39C024FFF5CFEDCF20917C023B
:100E400023FFF0CF24FDE7CFCDCF20917C0223FDFF
:100E50002EC030917D0231FFEECF84EE90E00895F8
:100E600020917C0225FFDECFC9CF20917C0225FD99
:100E700021C020917D0223FFD5CF89E390E0D2CF1E
:100E800020917C0226FFCECF8AE290E00895209147
:100E90007C0226FFC7CF81E390E0089583EE90E0C7
:100EA000089582EE90E0089580EE90E0089586EE39
:100EB00090E0089585E390E00895972F7A30B8F494
:100EC0006630A8F48430B0F470E026E0929F600DA4
:100ED000711D1124FB019CE3899FE00DF11D11247C
:100EE000EE0FFF1FE455FF4F85919491089580E028
:100EF00090E0089581E0FCCF1F93CF93DF930E9491
:100F0000BB06EC01C11580E5D807F0F5C11580E4FA
:100F1000D80708F09CC0C03ED10520F5CD3CD105D6
:100F200008F082C0C83AD10578F4C53AD10508F076
:100F300073C0C130D10519F1209709F1C430D10532
:100F4000F0F4D0E0C0E01BC0C33CD105D0F7C85AD4
:100F5000D0E0CC0FDD1FCC58DE4F0990D881C02DDA
:100F6000D4640DC0C11580E2D80708F0D1C0C11506
:100F700081E0D80708F05AC0C83ED10510F7CE016D
:100F8000DF91CF911F910895C03682E5D80718F5FB
:100F9000C03482E5D80708F06BC0C03282E5D807BC
:100FA00008F05FC0C11582E5D80708F497C02C2F60
:100FB0002695269580E2289F900111248C2F83701E
:100FC000C1E0D0E002C0CC0FDD1F8A95E2F7C22B52
:100FD000D32BDD68D4CFC03A82E5D80760F4C0389F
:100FE00082E5D80708F459C0CF71D0E0DC2FCC27B8
:100FF000C46FD06AC4CFC03C82E5D80708F462C091
:10100000C03E82E5D80708F09CCFDC2FCC27CC2748
:10101000DF71C06FD06AB3CFC55AD0E0CF58DE4F72
:10102000C881D0E0D064ABCFD065A9CF8D2F0E940E
:101030007806182FCE0199270E94BB06C12FD0E059
:10104000DC2FCC27CC27DF71C82BD92B98CFCE0132
:1010500099270E94BB06CC27DF70C82BD92BD06AFA
:101060008ECFCF71D0E0DC2FCC27C16FD06A87CF75
:101070002C2F26952695277080E2289F9001112419
:101080008C2F8370C1E0D0E002C0CC0FDD1F8A95A9
:10109000E2F7C22BD32BDC6872CF2C2F2695269536
:1010A000277080E2289F900111248C2F8370C1E06B
:1010B000D0E002C0CC0FDD1F8A95E2F7C22BD32B04
:1010C000DA685DCF8C2F8F710E947806C82FD0E030
:1010D000DC2FCC27CC27DF71D06251CF8C2F8F71C2
:1010E0000E94780655E0D695C7955A95E1F7CF70DE
:1010F000D0E0DC2FCC27282F30E084FF05C044E06F
:10110000220F331F4A95E1F7C22BD32BD06937CF7B
:101110008D2F8F710E947806182FCE0199270E947B
:10112000BB06C12FD0E0DC2FCC27CC27DF71C82B2A
:10113000D92BD2CF809590912602982390932602A6
:101140000895ECEEF1E09191891303C0DF0111974E
:101150001C9291E0E23FF907B1F70895ACEEB1E0DF
:10116000EFEF90E02D91821751F0EF3F19F421112C
:1011700001C0E92F9F5F9630A9F7EF3F09F408956A
:101180000E2E000CFF0BE651FE4F828308958091D6
:10119000700390913703981301C008958F5F877093
:1011A000FACFB0E0A0E0E7EDF8E00C9419297C015B
:1011B00000917A0210917B0280912702909128027F
:1011C000082B192BCFE0D0E0CC24C394D12CBC2E1B
:1011D000C6010C2E02C0880F991F0A94E2F78023E3
:1011E0009123892B49F4219790F7B12C8B2DCDB702
:1011F000DEB7E9E00C943529B7018C2F0E945D071A
:101200000E947C07019779F3F1CFCF93DF93EC0134
:101210000E94D108BE010E945D070E947C07DF91F9
:10122000CF9108959A3078F5863068F5E82FF0E090
:1012300086E0989FE00DF11D11249E2F977083E0AA
:10124000F695E7958A95E1F7EE0FFF1FEE0FFF1F6A
:10125000EC50FE4F50E040E080E0219130E0092E5C
:1012600002C0369527950A94E2F721703327042EA1
:1012700001C0220F0A94EAF7822B4F5F5F4F443080
:10128000510559F7089580E008959A3098F5863011
:1012900088F5E82FF0E086E0989FE00DF11D11241D
:1012A0008E2F877041E001C0440F8A95EAF783E0F2
:1012B000F695E7958A95E1F7EE0FFF1FEE0FFF1FFA
:1012C000EC50FE4F30E020E070E05191DF011197CB
:1012D000CB01022E02C0969587950A94E2F78170A1
:1012E00081958527842385278C932F5F3F4F24305A
:1012F000310559F7089590937B0280937A020895FF
:1013000021E030E002C0220F331F8A95E2F72095DA
:10131000309580917A0290917B02822393230E94E0
:101320007B09089590911B028095892380931B026D
:10133000282F277069F4891759F090917D0292FF48
:1013400007C08695869586950E94800910921B029B
:10135000089521E030E002C0220F331F8A95E2F7A2
:1013600080917A0290917B02822B932B0E947B09C1
:10137000089590932802809327020895FC01248108
:101380002223C1F0808191810E94050992959F706E
:10139000963091F058F4925F9F70923058F4803FED
:1013A00019F030F4883E30F481E008959A5FF4CF6C
:1013B000843FD1F380E00895883EB0F3813FD1F7B8
:1013C000F3CFA6E0B0E0E7EEF9E00C941F294983E3
:1013D0005A8349815A819923A1F0222391F0CA01AD
:1013E0000E94D108182F682F89819A810E9445098F
:1013F00069817A81812F0E945D072696E3E00C9433
:101400003B29CA010E941209182FF2CF0F931F9394
:10141000CF93DF938B01EA0190912D03943061F516
:101420008093E9008FEF9091E800815095FD06C010
:1014300095ED9A95F1F700008111F5CF8091E800C4
:1014400085FF1AC00E944203811111C08091E800FB
:1014500085FD06C08091E8008E778093E800F2CF8A
:10146000F80181918F018093F100219779F78091A4
:10147000E8008E778093E800DF91CF911F910F9164
:10148000089543E050E0BC0182E00E94060A0895FE
:10149000CF93DF93EC0148E050E0BC0181E00E9473
:1014A000060A88E0FE01A3E2B3E001900D928A955E
:1014B000E1F7DF91CF9108956091610180910C0374
:1014C00080FF20C08091600143E0849FC00111240F
:1014D00084559D4F569A2BB12F7B3BB130645FB73B
:1014E000F894FC01649FE00DF11D1124BF01681701
:1014F0007907D1F45FBF8FE594E00197F1F700C061
:1015000000000895809162019091630123E0829F21
:10151000F0011124E455FD4F8917A0F611821082C5
:1015200012828F5F3396F8CFFC014191CF01E8E042
:101530003BB9000000C047FF2BB9440F000000C0BA
:1015400000C000C02BB900C0EA9591F7D0CF0F932F
:101550001F93CF93DF93EC0110E000E090916401C2
:101560009017110609F06CF40E945C0A8C8190E0DF
:101570000196817099278C83DF91CF911F910F91F4
:10158000089520916201A801420F511D9A01220F76
:10159000331F240F351F24553D4F4C8160910E039E
:1015A00080910D0396959017110651F04CF044234D
:1015B00049F040910F030E94C9050F5F1F4FCECF26
:1015C0004423B9F340E0F7CFB0E0A0E0EAEEFAE060
:1015D0000C941629EC014C81042F10E09801D801DD
:1015E0000E940F2B9B01AC010E94DA2A4B015C0187
:1015F000E0E2F0E0E01BF10BA5E5B0E0AC019B01FF
:101600000E94DA2A6B017C019F01DF010E949F2961
:101610009B01AC010E94E52A9B01AC01280D391DFC
:101620004A1D5B1DC701B6010E94ED2AF22E822FD2
:1016300090E039E23F1520F143E0249F900111240E
:1016400035952795122F109500E085E5E82EEF18C7
:1016500080916401081718F10E945C0A9C8181E066
:10166000992319F0903219F48FEF80935F018091E4
:101670005F01890F8C83CDB7DEB7ECE00C94322983
:1016800025E530E0B901681B790B9B01220F331F60
:10169000260F371F37FFD4CF2F5F3F4FD1CF8E2D6F
:1016A00001FD8F2D20916201622F600F7727771F38
:1016B0009B01220F331F260F371F24553D4F412F0B
:1016C00060910E030E94C9050F5FC2CFEF92FF9297
:1016D0000F931F93CF93DF93EC018C81811109C08D
:1016E00081E08C831092AA0292E090935E01809335
:1016F0005D01809162019091630123E0829FF0017E
:101700001124E455FD4F891758F110E003E0609172
:101710006401161758F10E945C0A80915D012091C6
:10172000AA02280F2093AA0290915E01980F90932D
:101730005E01191654F4022E000C330B4091640123
:101740004150550B2417350734F0819580935D0186
:10175000813009F41C82CDB7DEB7E6E00C9438295D
:101760001182108212828F5F3396CDCFE12EF12C41
:1017700070E0C7010E94852920916201820F482FE5
:1017800050E02091AA02022E000C330BE216F30661
:10179000BCF020915E01022E000C330B2E153F058C
:1017A0007CF0809F9001112424553D4F40910F0300
:1017B00060910E0380910D030E94C9051F5FA7CFA2
:1017C000FA01EE0FFF1FE40FF51FE455FD4F1182E4
:1017D00010821282F3CFB0E0A0E0E1EFFBE00C94C6
:1017E0001629EC018A81BB24BA9480FD02C0BB2477
:1017F000B394A09064018C81811109C081E0B8127A
:1018000020C08FEF8A0D8093A90281E08C83F12C98
:10181000E12C4CE0942EEA14B8F00E945C0A80910E
:10182000A90291E0B91257C0811150C080916401A2
:1018300081508093A9021C82CDB7DEB7ECE00C94F6
:1018400032291092A902E1CF009162010E0D1F2DE5
:10185000111DC801880F991F080F191F04551D4F2E
:10186000F80111821082128234E0C32ED12C812C17
:101870008091A902880D8D302CF1692D0E94632979
:10188000892F082E000C990B8E159F0591F48091DD
:101890000F038C9DA0018D9D500D112455954795EA
:1018A00055954795980160910E0380910D030E9414
:1018B000C9058B0CF1E0CF1AD108D1F68FEFE81AE9
:1018C000F80AA9CF87FFDDCF8A0DDBCF8150809347
:1018D000A902BC82B1CF90E001966091640170E0F2
:1018E0000E9485298093A9028C83A6CFEF92FF9254
:1018F0001F93CF93DF93EC0110E0EE24EA94F12CD8
:1019000060916401161770F00E945C0A9A818C81C4
:1019100090FF27C08F5F8C83DF91CF911F91FF9045
:10192000EF90089520916201422F410F5527551FD6
:10193000CA019A01220F331F280F391F24553D4F2A
:1019400070E0C7010E948529962F8C8140910F037A
:1019500060910E03199F800D11240E94C9051F5F1D
:10196000CFCF8150D8CF90910C0390FF0EC09091B3
:1019700062012091630133E0939FF0011124E4554B
:10198000FD4F921718F00E945C0A089581836083CE
:1019900042839F5F3396F5CFA3E0B0E0E2EDFCE039
:1019A0000C941E298C018091AB0281110AC09E010A
:1019B0002F5F3F4F4FEF6FEF0E94C9058A818093E1
:1019C000AB02F8016481613069F08091AB0240E0C4
:1019D000662361F040E0623011F44091AB0280E098
:1019E00060E004C06091AB0240E080E00E94B30C74
:1019F000F801848190E0019663E070E00E948529FF
:101A000084832396E4E00C943A29A3E0B0E0EBE071
:101A1000FDE00C94202990910C0390FF0AC09E01D8
:101A20002F5F3F4F0E94C9054B8169818A810E94C7
:101A3000B30C2396E2E00C943C29CF93DF93EC01A6
:101A4000ECE0F3E0438162818C810E94050D8C8182
:101A50008F5F8C83DF91CF910895CF93DF93EC015B
:101A6000EC81F0E0EA55FC4F4491ECE0F3E0628158
:101A700081810E94050D8C818F5F8C83DF91CF91D6
:101A80000895B0E0A0E0E7E4FDE00C9418297C01A3
:101A90005B016A018091670201E010E08A3010F476
:101AA0000AE010E0C1E0D0E0B501C701F6010995F8
:101AB000811104C021960C171D072CF4CDB7DEB799
:101AC000EAE00C943429CC9F9001CD9F300D300D6D
:101AD000112490E080E045E34A95F1F7000001967B
:101AE00082179307C1F7E0CF80913502811110C0B2
:101AF0008091D80080618093D8008AE18A95F1F7BF
:101B000000C08091D90080FF0AC081E08093350237
:101B100081E090913502913009F080E0089582E0F3
:101B2000809335020E94230310922D03F1CF0E946F
:101B3000740D882359F0E0911703F0911803309742
:101B400029F00190F081E02D0995089580E0089535
:101B50000F931F930E94740D882329F00E94910413
:101B60001F910F9108950E949104009168021091B5
:101B7000690220916A0230916B02600F711F821F0F
:101B8000931FEECF0E94A80D08950E94740D882324
:101B900019F00E949D0408950E94A80DCB0108959C
:101BA000682F86E090E00E94872A0895282F220F50
:101BB000220F220F909114039770922B909314038D
:101BC000987F21E009F420E09091140320FB90F924
:101BD000909314030E940905809114030E94D00D74
:101BE00008958091140380FD13C0816080931403D5
:101BF000813019F489E080931403809114030E94CA
:101C0000D00D809114038695869586950E940905CE
:101C10000895B0E0A0E0EFE0FEE00C941229FC0192
:101C20006280448081E08483E6EAF3E07490E5E238
:101C3000F4E0E491C0910F03C695C158D0E0CC0FF9
:101C4000DD1FCD2FDD27812C75E0972EAA24AA94C5
:101C5000B12C55245A94E719EE2EF12C8091640191
:101C6000881638F00E945C0ACDB7DEB7E0E10C942C
:101C70002E29C82CD12C82E0861568F09C9CF0019E
:101C80009D9CF00D1124E053FD4F80910D03808346
:101C900080910E038183411023C09C9CF0019D9C88
:101CA000F00D1124E053FD4F138212822091620146
:101CB000C601820F911D9C01220F331F280F391F6F
:101CC00024553D4F9C9CF0019D9CF00D1124E05348
:101CD000FD4F4281618180810E94C9058394BECFFE
:101CE0009C9C80019D9C100D112400531D4FF801F8
:101CF00083818823F1F081508383859DC001112465
:101D0000648170E00E947129FB01FF27EA55FC4FB6
:101D10008491E82FE719E59DC0011124B7010E94C5
:101D2000712980910F03689FB0011124F80172831B
:101D3000BDCF0E94302AB5010E9485298C179D07CE
:101D40000CF0B4CFF2E0F61598F40E94302AB501F9
:101D50000E948529F80180830E94302A20910E0379
:101D60002695622F70E00E948529280FF8012183B3
:101D70009C9CF0019D9CF00D1124E053FD4F1282BC
:101D800080910F03893C58F088EC9C9CF0019D9C4D
:101D9000F00D1124E053FD4F8483838387CF84317A
:101DA000A0F784E1F2CF60910C03669570E04BE000
:101DB00050E082E591E00E94402A892B19F481E0ED
:101DC0008093A7020E94C50D9093A1028093A00268
:101DD0008091A80284608093A8020895B0E0A0E0FA
:101DE000E4EFFEE00C94162949015A016B017C01D5
:101DF0000E94BA058401A4016A2D7B2D88E090E041
:101E00000E94992A94014A2D5B2DB601C70100E278
:101E10000E94C929622F84E290E00E94872ACDB7F0
:101E2000DEB7ECE00C943229A3E0B0E0EAE1FFE099
:101E30000C941929082FE62EF42EC22E90910C0333
:101E400090FF40C020910D03281308C080910E031D
:101E5000861304C080910F03841729F08091A80293
:101E600082608093A802E92FE695AE2FB0E0A454DB
:101E7000BE4F8C918093A6029E7F923039F59E01D1
:101E80002F5F3F4F4F2D6E2D802F0E94C9054B8134
:101E900069818A810E94B30C00930D03E0920E03C6
:101EA000F0920F03CC2071F020910C03609110038D
:101EB00070911103302FA7018091120390911303A9
:101EC0000E94EE0E2396E9E00C943529823019F435
:101ED000F0900F03E1CF8630A1F1893091F1893183
:101EE000D9F6E9516E2F6170B62EE695F0E0EF5508
:101EF000FC4F1491D12C60916401D61618F00E9409
:101F00005C0ACACFD19EC001112470E00E947129E1
:101F1000802FB11014C0860F20916201622F6D0DC9
:101F20007727771F9B01220F331F260F371F24555A
:101F30003D4F4F2D6E2D0E94C905D394DCCF861BDB
:101F4000EBCF022FA9CFECE0F3E0438121E1421B6C
:101F500008F440E021E0628181810E94140F08951D
:101F6000ECE0F3E0438121E1420F08F44FEF21E080
:101F7000628181810E94140F0895ECE0F3E0628198
:101F800021E1621B08F460E021E0438181810E942D
:101F9000140F0895ECE0F3E0628121E1620F08F490
:101FA0006FEF21E0438181810E94140F0895ECE0DE
:101FB000F3E0818121E04381628188500E94140F07
:101FC0000895ECE0F3E0818121E043816281885F44
:101FD0000E94140F089580911003882319F08150F6
:101FE0008093100320910C0330910D0340910E0358
:101FF00050910F03609110037091110380911203AF
:10200000909113030E94EE0E089580911003833087
:1020100018F48F5F8093100320910C0330910D030F
:1020200040910E0350910F036091100370911103C2
:1020300080911203909113030E94EE0E08959091E7
:102040000C0390FF39C09170811137C0926090935A
:102050000C038091A80281608093A802662391F00E
:1020600020910C0330910D0340910E0350910F030A
:1020700060911003709111038091120390911303EA
:102080000E94EE0E60910C03669570E04BE050E00C
:1020900082E591E00E94402A892BB1F00E94B305AD
:1020A00081E08093A30220E040910F0360910E0332
:1020B00080910D030E94140F08958B3210F09465E7
:1020C000C6CF880F982BC3CF0E94D30EE9CF61E013
:1020D0000E941F10089580910C038695815009F489
:1020E0008AE261E00E941F10089580910C0386959A
:1020F0008F5F8B3208F081E061E00E941F1008952D
:1021000090910C0390FF08C09695981728F09617A9
:1021100018F40E94751008950E9467100895ECE06D
:10212000F3E083E0808311828FEF828383831482C4
:10213000A6EAB2E012968C911297836012968C9365
:10214000758123E030E04FEF5FEF60E0868197819B
:102150000E94EE0E0895A4E0B0E0E1EBF0E10C94F3
:102160001F2940915B0250915C0260915D02709169
:102170005E022FB7F89480911C0390911D03A091EB
:102180001E03B0911F032FBF841B950BA60BB70B2B
:1021900011E084369105A105B10570F10E94A80DEA
:1021A0006E5F7F4F8F4F9F4F69837A838B839C83B2
:1021B00080912501909126018D5B9D4F40912401D6
:1021C00050E04530510510F044E050E0BE016F5F33
:1021D0007F4F0E945A2A84E090E00E949A28182F8C
:1021E000882351F00E94910460935B0270935C021B
:1021F00080935D0290935E02812F2496E3E00C941D
:102200003B294F925F926F927F928F929F92AF92F3
:10221000BF92EF92FF920F931F93CF93DF937B01B7
:10222000FB0140805180628073809FB7F89480905A
:102230001C0390901D03A0901E03B0901F039FBF2E
:1022400084189508A608B708F4E68F169104A1042F
:10225000B10418F4C1E0442329F1C82F880FDD0B25
:10226000FE0183E0EE0FFF1F8A95E1F7EC5FFE4F62
:10227000818192818D5B9D4F408150E0041715074D
:1022800008F4A801B9010E945A2ACE010E949A2896
:10229000C82F882339F00E949104F701608371836D
:1022A000828393838C2FDF91CF911F910F91FF90A9
:1022B000EF90BF90AF909F908F907F906F905F90C6
:1022C0004F900895ABE0B0E0E8E6F1E10C941E29F0
:1022D00088E0ECE0F3E0DE01119601900D928A9522
:1022E000E1F78091A6029091A702A091A8028987A8
:1022F0009A87AB8741E08B85811101C040E00BE0FC
:1023000010E09E012F5F3F4F63E672E086E00E947F
:10231000011181111092A8022B96E4E00C943A2945
:10232000A1E0B0E0E6E9F1E10C941E2980911403EC
:1023300080FF18C0869586958695898341E09091A7
:102340004F02981301C040E001E010E09E012F5FB2
:102350003F4F6FE572E085E00E9401112196E4E0B5
:102360000C943A2980E0E9CF4F925F927F928F924E
:102370009F92AF92BF92CF92DF92EF92FF920F9314
:102380001F93CF93DF930F92CDB7DEB7C62E4A01CE
:102390005901482E880F5508C2010E949A28782EAC
:1023A000882309F480C0C20133E0880F991F3A9551
:1023B000E1F7FC01EC5FFE4F438150E04115510510
:1023C00011F041E050E08C5F9E4FFC01648175810B
:1023D0006D5B7D4FCE0101960E945A2AF401408127
:1023E0005181628173812FB7F89480911C03909181
:1023F0001D03A0911E03B0911F032FBF841B950BDB
:10240000A60BB70B84369105A105B10540F4B701C1
:10241000C8010E94F3049981891709F444C00C2C67
:10242000000CDD08C6010E949A28782E811113C085
:10243000712C872D0F90DF91CF911F910F91FF90FD
:10244000EF90DF90CF90BF90AF909F908F907F9054
:102450005F904F900895C60123E0880F991F2A9539
:10246000E1F7FC01EC5FFE4F438150E0E416F50616
:1024700008F4A7018C5F9E4FFC01648175816D5B40
:102480007D4FC5010E945A2AB701C8010E94F3047A
:1024900099818913CDCF0E949104F40160837183E7
:1024A00082839383C6CFA701B801C5010E945A2A2F
:1024B000C0CFA5E0B0E0EFE5F2E10C941A296B0182
:1024C00085E0E82EF12C04E412E09E012F5F3F4FDF
:1024D0004BE352E061E080E00E94B411882349F0B0
:1024E00095E0FE013196A6E3B2E001900D929A9537
:1024F000E1F795E0E6E3F2E0D60101900D929A95BE
:10250000E1F72596E8E00C943629A5E1B0E0EBE888
:10251000F2E10C9415298E01045F1F4F8AE0D80167
:102520001D928A95E9F782E4C82E81E0D82EF12C1D
:10253000E12CAA24A394B12C22E4822E21E0922E35
:10254000F60181916F018F3F09F442C0F894E82FA2
:10255000E295EF70F0E021A18F70A50102C0440F59
:10256000551F8A95E2F7CA01922F982B91A392A149
:102570008095892382A3789400C0ECE3F1E0712C6C
:1025800031E021912F3F09F46BC0A22FA295AF70CB
:10259000B0E090968C9190E02F7002C09595879551
:1025A0002A95E2F780FD5CC0832F782A330F8E16C0
:1025B0009F0639F7F601319780818F3F11F00E9415
:1025C000610650EA5A95F1F7F801EE0DFF1D708291
:1025D0008FEFE81AF80A95E0E916F10409F0B0CF98
:1025E0004AE050E0B8018EE692E00E944D2A009742
:1025F00041F02AE0F801AEE6B2E001900D922A9592
:10260000E1F700917902892B69F181E080932D0235
:102610000E949D0490932C0280932B0280912B02A8
:1026200090912C020E948204059700F110E001585D
:102630001D4F45E050E06EE672E0C8010E944D2A51
:10264000D12C892B51F085E0EEE6F2E0D801019023
:102650000D928A95E1F7DD24D39410922D0207C0E4
:1026600080E0A3CF80912D028111D8CFD12C0E9480
:10267000740DC82EE0917902DE0111967D01882348
:1026800009F483C085E01D928A95E9F70E2F10E0CA
:1026900001581D4F809167028A3008F044C049E517
:1026A00052E1B701C8010E94410D882309F45CC0C2
:1026B0004EEF58E1B701C8010E94410D882309F48B
:1026C00053C04BEA50E1B701C8010E94410D882375
:1026D00009F44AC040E951E1B701C8010E94410D27
:1026E000882309F441C042E651E1B701C8010E94C4
:1026F000410D8823C9F1109267028091780290E021
:1027000045E050E0B70181589D4F0E944D2A21E0DD
:1027100020933402892BE1F4C12C8C2D8D296596F0
:10272000EDE00C94312980912E0290912F020E94AD
:102730008204843F914008F0B2CF80913402882314
:1027400059F385E0F70111928A95E9F71092340266
:10275000A0917802B0E0A158BD4F85E0F70101904B
:102760000D928A95E1F7D9CF809167028F3F31F0C2
:102770008F5F809367028A3008F4BFCF0E949D0468
:1027800090932F0280932E02D8CFF0E0E158FD4FB6
:1027900085E0A4E4B2E001900D928A95E1F765E04E
:1027A00070E084E492E00E94F3048093430240913D
:1027B0009C0250E060919B0270E069567D4FC7011A
:1027C0000E945A2A898180934A0261E070E0C70121
:1027D0000E94F3048093490280904B0290904C0237
:1027E000A0904D02B0904E02809130029091310243
:1027F000A0913202B091330288169906AA06BB0650
:10280000D1F08092300290923102A0923202B092C6
:1028100033020E94740D81110EC00E949104861A29
:10282000970AA80AB90A8092680290926902A09257
:102830006A02B0926B0280914F020E9409058BE000
:10284000E0E5F2E0D70101900D928A95E1F7298148
:10285000822F8695FA80EB80BC800A851B851092BA
:102860005A02112309F459CF10FF0AC090910C03AA
:1028700020FF1AC0916090930C0360E00E941F102B
:1028800011FF06C020E04B2D6E2D8F2D0E94140FDE
:1028900012FF04C00023A9F00E94D30E13FF3DCF06
:1028A00081E08093A30239CF9E7F90930C030E9416
:1028B000B3058091A80281608093A8020E945C0AFF
:1028C000DFCF0E94B305EACF8091260290912502C6
:1028D000892B8093EA0190912402992391F0892B0E
:1028E0008093EA0120E08CEE91E0FC013191CF0170
:1028F00031112F5FF1E0823F9F07B9F7211110924C
:10290000240248E050E06CE172E08AEE91E00E941F
:102910004D2A892BA9F088E0EAEEF1E0ACE1B2E0C3
:1029200001900D928A95E1F7E0911703F091180359
:10293000309731F00280F381E02D8AEE91E0099525
:10294000089510922602ECEEF1E086E0DF011D9280
:102950008A95E9F790E080E00E94CE0490E080E064
:102960000E94A904109225020E9464140895AAE20C
:10297000B0E0EDEBF4E10C941F298FE293E020919D
:10298000F100FC012193CF01F3E087339F07B9F7F2
:1029900080913003833009F470C0B8F4813009F4B9
:1029A00047C0823009F4B1C08091E80083FF7EC245
:1029B00080912F03909130039A3008F077C2E92F6D
:1029C000F0E0E05EF44D0C9499298A3009F48CC053
:1029D0008B3009F46FC0893039F780912F03813231
:1029E00019F780913303909134030297E8F68091B0
:1029F000E800877F8093E8008091E80082FF38C07C
:102A00009091F3008091F200029731F48091F100EF
:102A1000813011F0863021F48091F10080932203FF
:102A20008091E8008B778093E8000E947303BCCF0D
:102A300080912F03813A09F0B7CF8091E800877F1A
:102A40008093E8008091330390913403892B61F4E3
:102A500068E083E293E070E00E941F048091E80048
:102A60008B778093E800A0CF60E090E080E0F3CF28
:102A700080912D038111C0CF97CF80912F03813A90
:102A800009F092CF8091330390913403892B09F0A0
:102A90008BCF8091E800877F8093E8008091E800E9
:102AA00080FFFCCF809165018093F1008091E80068
:102AB0008E77B9CF80912F03813209F075CF809145
:102AC000330390913403892B09F06ECF8091E80095
:102AD000877F8093E8000E94730380913103809385
:102AE00065010E94A11460CF80912F03813209F00B
:102AF0005BCF8091E800877F8093E8000E9473039A
:102B000080913203809321034FCF80912F03813A2C
:102B100009F04ACF8091E800877F8093E800809198
:102B2000E80080FFFCCF80912103BECF803899F070
:102B3000823809F0BBC1809133038F70873008F071
:102B4000B5C18093E9008091EB0085FB882780F96F
:102B50001092E90006C080912B0390912C039111F3
:102B600082609091E800977F9093E8008093F10055
:102B70001092F1008091E8008E7794C1882309F4C7
:102B800082C1823009F092C180913103811185C1E7
:102B9000809133038F702FEF280F263008F086C105
:102BA0008093E9002091EB0020FF77C1933031F44E
:102BB0008091EB0080628093EB006FC19091EB00FD
:102BC00090619093EB0021E030E001C0220F8A95E4
:102BD000EAF72093EA001092EA008091EB00886007
:102BE000EACF811163C1109131031F778091E30017
:102BF0008078812B8093E3008091E800877F809329
:102C0000E8000E9473038091E80080FFFCCF809170
:102C1000E30080688093E30082E0111183E08093F9
:102C20002D0344C18058823008F040C180913103A7
:102C3000909132038C3D23E09207A1F583E08A83D3
:102C40008AE289834FB7F894DE01139620E03EE0D4
:102C500051E2E32FF0E050935700E49120FF03C0CE
:102C6000E295EF703F5FEF708E2F90E0EA30C0F09A
:102C7000C7968D939D932F5F243159F74FBF809155
:102C8000E800877F8093E8006AE270E0CE01019659
:102C90000E941F048091E8008B778093E80006C1B2
:102CA000C096E7CF4091330350913403292F332747
:102CB0002330310509F444C078F52130310509F499
:102CC0006FC08BE390E0E8E1F5E02230310509F0D8
:102CD000EDC02091E800277F2093E8002091350384
:102CE000309136038217930708F49C0140E02115C8
:102CF000310509F064C0411162C08091E80082FD95
:102D0000C9CF80912D03882329F2853019F2809153
:102D1000E80083FFF2CFBECF21323105A9F1223284
:102D2000310509F0C3C04115510509F443C04130D4
:102D3000510509F0BBC082E390E0E6EAF4E0C9CFB8
:102D4000992781309105C1F0009759F0029709F059
:102D5000ADC0E5E6F5E0E4918E2F90E0E5E6F5E024
:102D600007C0EFE8F5E0E4918E2F90E0EFE8F5E0A2
:102D7000009709F49BC0ADCFEFE7F5E0E4918E2F0B
:102D800090E0EFE7F5E0F4CF4115510571F04130E7
:102D9000510509F08BC089E090E0E3E4F5E099CFBC
:102DA00082E190E0E3E5F5E094CF89E090E0EAE2AB
:102DB000F5E08FCF80E490E0E8EDF4E08ACF8091F9
:102DC0002D03882309F466CF853009F463CF809101
:102DD000E80083FD5FCF8091E80082FD8ECF809177
:102DE000E80080FF84CF9091F3008091F2002115DC
:102DF000310519F08830910550F041E0089709F04D
:102E000040E08091E8008E778093E80070CF449195
:102E10004093F1003196215031090196E8CF803876
:102E200009F044C08091E800877F8093E80080919A
:102E30002E038093F1009ECE811138C01091310392
:102E40001230A0F58091E800877F8093E80010930E
:102E50002E030E947303112311F084E005C08091BA
:102E6000E30087FDFACF81E080932D0342E061EC1F
:102E700081E00E94920342E261EC82E00E949203B0
:102E800080912D0313C080913103813079F481E06A
:102E9000933009F080E080932C031092E900809138
:102EA000E800877F8093E8000E9473038091E80028
:102EB00083FF0AC08091E800877F8093E8008091BB
:102EC000EB0080628093EB00AA96E3E00C943B2930
:102ED0000E94A1142FEF84E39CE021508040904099
:102EE000E1F700C0000088E19CE00FB6F894A895D7
:102EF000809360000FBE90936000FFCF882321F085
:102F00000E949A080E9464140895882339F09091D1
:102F10002602982B909326020E9464140895882319
:102F200009F44DC0823879F40E94970D81FF47C0A3
:102F300089E30E94AE080E94641489E30E94A108FC
:102F40000E9464140895833859F40E94970D80FFFD
:102F500036C083E50E94AE080E94641483E5EECF7C
:102F6000843859F40E94970D82FF29C087E40E949B
:102F7000AE080E94641487E4E1CF9CEF980F913A69
:102F8000E8F290E2980F983050F4877091E001C019
:102F9000990F8A95EAF7892F0E949A08D1CF9BE56D
:102FA000980F933028F490E080E00E94CE040895BA
:102FB000885A8B3120F490E080E00E94A9040895A3
:102FC000CF93C82F8823C9F08238C9F40E94970D87
:102FD00081FD13C089E30E94AE080E9464142FEFA4
:102FE00087EE93E0215080409040E1F700C0000060
:102FF00089E30E94A1080E946414CF910895833848
:10300000A1F40E94970D80FDF8CF83E50E94AE08E1
:103010000E9464142FEF81EE94E021508040904094
:10302000E1F700C0000083E5E4CF8438A1F40E94FA
:10303000970D82FDE2CF87E40E94AE080E946414DF
:103040002FEF81EE94E0215080409040E1F700C0E6
:10305000000087E4CECF8CEF8C0F813A68F4ECEE61
:10306000F1E08191C817A1F121E0E23FF207C9F731
:103070008C2F0E94AE08BFCF80E28C0F883068F49E
:10308000C77021E030E001C0220FCA95EAF78091B5
:103090002602822B80932602AECFEBE5EC0FE330C5
:1030A00040F4F0E0EF58FE4F808190E00E94CE04A3
:1030B000A4CFC85ACB3108F0A0CFEC2FF0E0EE0F30
:1030C000FF1FEC58FE4F808191810E94A90495CF8B
:1030D0008C2F0E94A1080E946414CACF1F93CF9323
:1030E000DF93182FEB010E94E017209739F4812F0E
:1030F0000E948F17DF91CF911F9108958FE99FE074
:103100000197F1F700C000002197EFCF0F931F93B5
:10311000CF93DF93C62FD42F022FFC018581882304
:10312000A9F0609373030E949D04909372038093AF
:103130007103C77081E001C0880FCA95EAF70E9449
:103140008517DF91CF911F910F910895809173039F
:10315000681334C080917103909172030E948204BD
:10316000883C910558F510E21D0FCD17B9F080E2AB
:103170008C0F883040F4C77081E001C0880FCA9579
:10318000EAF70E947E17183048F481E09D2F97706F
:1031900001C0880F9A95EAF70E94851770E060E0F9
:1031A000802F0E946E18183060F6D77081E001C041
:1031B000880FDA95EAF70E947E17C3CFC77081E0C7
:1031C00001C0880FCA95EAF7F6CF81110CC070E0F4
:1031D000662331F060E089EA0E946E1880E008956D
:1031E00060E08AEAF9CF8130C9F770E0662319F010
:1031F00060E08EE4F1CF60E08BE4EECFA1E0B0E0E0
:10320000E4E0F9E10C941929EE24E394F12C0AE4AA
:1032100012E09E012F5F3F4F4FE352E063E082E0F8
:103220000E94B411C82E882339F100E080E01DC04F
:10323000D0906D02D00E2D2D30E0A90149565D4F82
:103240007A01E1E0F0E0EC0FFD1FE00FF11D1081CD
:10325000FA019081191BB12E1B149CF0912F17FDC0
:1032600090E0191B111118C00F5F90916C020917A3
:10327000F8F281110E94C20D8C2D2196E9E00C9488
:103280003529BA94F70180818F5F808360E08D2DAE
:103290000E94E5188C2DE0CF1F5FF70180818150DF
:1032A000808361E08D2D0E94E5188C2DDBCFA8E096
:1032B000B0E0EDE5F9E10C94202966EE7EEF90E0B8
:1032C00080E00E94A52A60E082E090E00E94872AC8
:1032D00060E083E090E00E94872A1092280210921A
:1032E000270260E074E184E090E00E94A52A60E09B
:1032F00086E090E00E94872A6FEF87E090E00E94CE
:10330000872A40E050E0BA0188E090E00E94992AC4
:1033100060E084E290E00E94872A60E087E190E02C
:103320000E94872A60E08CE090E00E94872A60E09B
:103330008DE090E00E94872A19821A821B821C82EB
:103340001D821E821F82188648E050E068E170E00E
:10335000CE0101960E94772A40E050E0BA0180E257
:1033600090E00E94992A0E94F10D83E00E94D60D00
:10337000ECE0F3E080818160808386950E94671095
:1033800021E04FEF6FEF80E00E94140F8BE00E946E
:10339000671040E050E0BA018FE090E00E94992A67
:1033A00040E050E0BA0183E190E00E94992A28961B
:1033B000E2E00C943C2990E080E00E94712A863E75
:1033C0009E4F51F00E9457198091140384708962B6
:1033D000809314030E94D00D86E090E00E94632A3F
:1033E00080931403803320F08770886280931403E5
:1033F00090911403892F817090FF04C0892F8695C6
:10340000869586950E940905089590917D0292FB0C
:10341000222720F9281779F080FB92F990937D02FA
:1034200060917C0270917D0284E090E00E94A52A68
:1034300082E00E9492090895B0E0A0E0E2E2FAE1A1
:103440000C9418298C01FC018481882309F459C04B
:1034500021E0408151816281738195810E94E1095F
:10346000EC01F8018581882309F4EBC4C230F8E748
:10347000DF0709F47DC0A0F4C11538E7D30779F15F
:10348000C13088E7D80709F441C0FE01E851FC4784
:10349000E730F10508F09BC0E65DF44D0C949929E6
:1034A000C43098E7D90709F44FC090F1C530F8E768
:1034B000DF0759F790911403892F86958695869595
:1034C0008F5F8F719770863008F060C0880F880F0B
:1034D000880F892B809314038091140321C085E009
:1034E0000E94D60D80911B02877059F0F8018581EA
:1034F000882339F080917D0282FF03C082E00E9420
:103500009209CDB7DEB7EAE00C94342980E0E8CF29
:1035100080911403982F987F79F08850809314033A
:10352000887F91E009F490E08091140390FB80F98A
:10353000809314030E94D00D809114038695869584
:1035400086950E940905CECF80911403982F9695F9
:1035500096959695953040F49F5F990F990F990F26
:103560008770892B80931403809114038160E0CFCE
:103570008091140380FF07C08E7F809314030E9404
:10358000D00D80E0DECF0E94F10DACCF90931403FC
:10359000A3CF26E241EE61EEC8010E948618A2CFB9
:1035A00027E245EE65EEF8CF26E241EE60EEF4CF7D
:1035B00027E245EE64EEF0CF26E241EE62EEECCF7C
:1035C00027E245EE66EEE8CF28E241E0EBCF10922D
:1035D0007303CE019057839708F0F1C384E090E025
:1035E0000E94712A90937D0280937C02FE01E1503B
:1035F000F047E232F10520F4EF5CF44D0C94992988
:1036000080917C02816080937C0295C080917D02D4
:10361000886080937D028FC080917C028260F3CFAE
:1036200080917C028460EFCF80917C028860EBCF38
:1036300080917D028160EDCF80917D028260E9CF33
:1036400080917C028061DFCF80917C028062DBCF41
:1036500080917C028064D7CF0E94A11480917C026B
:103660008068D1CF80917C028C60CDCF80917D022B
:103670008360CFCF80917C028E7FC5CF80917D0209
:10368000877FC7CF80917C028D7FBDCF80917C02E8
:103690008B7FB9CF80917C02877FB5CF80917D02EF
:1036A0008E7FB7CF80917D028D7FB3CF80917C02DA
:1036B0008F7EA9CF80917C028F7DA5CF80917C02E7
:1036C0008F7BA1CF0E94A11480917C028F779BCF2A
:1036D00080917C02837F97CF80917D028C7F99CFF0
:1036E00080917C0282FB992790F921E0922790FB40
:1036F00082F990FB83F987CF80917D02982F909576
:1037000091708E7F892B90FB81F983CF90917C0201
:10371000892F8F7B96FF806476CF0E94A1149091B1
:103720007C02892F97FB87F980586DCF61E08EE08E
:1037300090E00E94872A60917C0270917D0284E073
:1037400090E00E94A52A0E94A114CCCE60E0EFCFA9
:1037500090917C02892F8F7E94FF806154CF90914D
:103760007C02892F8E7F90FF81604DCF90917D02EA
:10377000892F877F93FF88604CCF85E32FC385E334
:1037800070C320910C0320FF1DC02E7F20930C03DB
:1037900030910D0340910E0350910F03609110037F
:1037A0007091110380911203909113030E94EE0E09
:1037B0000E94B3058091A80281608093A8020E94B4
:1037C0005C0A90CE822F816080930C0386950E94C4
:1037D000671088CE4BE650E165E770E10E94AD05C9
:1037E00081CE45E750E16BE670E1F8CF47ED5FE051
:1037F00061EE7FE0F3CF41EE5FE067ED7FE0EECF7B
:103800004DEB5FE06AEC7FE0E9CF4AEC5FE06DEB07
:103810007FE0E4CF43EA5FE060EB7FE0DFCF40EBA7
:103820005FE063EA7FE0DACF4BEE5FE065E070E1F6
:10383000D5CF45E050E16BEE7FE0D0CF81E0C7CF40
:1038400065E082E00E9480104DCE68E086E0FACF0D
:103850006EE089E0F7CF64E18FE0F4CF67E185E1C6
:10386000F1CF88E1B4CF62E289E1ECCF83E2AFCF60
:103870006AE285E2E7CF0E94A1142FEF34E38CE0E7
:10388000215030408040E1F700C0000081E080938B
:10389000E00080E28093D8001092C900EFE1FEE4DE
:1038A0003197F1F700C0000087E090EBDC018093D6
:1038B000740390937503A0937603B093770388E124
:1038C0009CE00FB6F894A895809360000FBE90938B
:1038D0006000FFCF6FEF7FEF90E080E00E94A52AAD
:1038E0000E94681780917D0282FB882780F991E011
:1038F00089270E94051AF8018581C081D18188231A
:1039000009F449C0CE010E94D108F82E682FCE01DB
:103910000E944509BE018F2D0E945D070E947C0711
:10392000D82EC92FA82EF801C580B680B2943FE0EA
:10393000B32280911B028770E9F0DC2DCC20D9F0F6
:10394000892F807F803451F080E28D0D883090F097
:10395000B11004C0892F807E803261F080917D0299
:1039600082FF08C082E00E94920980911B0287704A
:10397000D1E009F0D0E0FC2EF2942FE0F222FBE03F
:10398000FF1508F46EC0EF2DF0E0ED5AF44D0C94E5
:10399000992980E0AECFCE010E941209F82EBACF4D
:1039A0002C2F2F70E22EC07F19F0E29490EFE922C5
:1039B000CC20B9F0EE2069F080E28D0D883010F057
:1039C000A11009C080912602E82AE09226020E94F6
:1039D00064148D2D44C080912502E82AE0922502CE
:1039E000F6CF8D2D0E948F17EE20D9F180E28D0D3C
:1039F000883010F0A11004C08E2D0E949A0806C0D5
:103A0000E09480912502E822E09225020E9464144D
:103A100028C03C2F3F70E32EC07FC03219F0E294E3
:103A200080EFE822AA2059F081E0A81609F479C0B5
:103A3000CC2009F485C0BB2009F447C0CACF8091CF
:103A40007D0282FD3EC0CC20B1F1EE2039F08091A4
:103A50002602E82AE09226020E94641480E00E9476
:103A6000E0172F2D2850330B2430310510F40E941D
:103A7000970DDD23A9F080911B0280FD11C0F80194
:103A800015828695869586950E94A909C8010E948F
:103A90001C1A80911B028695869586950E94800946
:103AA00020E0F80140815181628173818481958198
:103AB0000E94E10926CD80E00E948F17EE2089F256
:103AC0009BCFCC20A1F0B11004C08E2D0E94851791
:103AD000C8CF91E0B912C5CF809124029E2D9823C2
:103AE000E91609F4BECFE82AE0922402BACFB11059
:103AF000B8CF8E2D0E947E17909124028E2D89239F
:103B000029F08E2D80958923809324028091F301E2
:103B10009E2D982309F4A5CFE094E822E092F301CA
:103B2000A0CFCC2029F0E5E0EB1508F49ACFCDCF5B
:103B3000F4E0FB1508F495CF8E2D0E947E1791CFEF
:103B4000BB20D1F329E3A21209C03FEF87EE93E037
:103B5000315080409040E1F700C000008D2D0E9460
:103B60008F177FCF8C2F86958695837069F0813073
:103B700009F077CF8D2D9C2F9370C11002C080E08B
:103B800090E00E94A9046DCF8D2D9C2F9370C110E1
:103B900002C080E090E00E94CE0463CF8C2F83703F
:103BA00009F03FC0C1105DCF4D2D4295469547703D
:103BB000440F440F2D2D2F7030E0042E02C0220F31
:103BC000331F0A94E2F790E080E0D4FE09C08FE052
:103BD00090E002C0880F991F4A95E2F78095909572
:103BE000C695C695C370C23099F078F4409127020B
:103BF00050912802C13039F0822B932B84239523D6
:103C00000E94B9092ECF242B352B822B932BF8CF72
:103C1000822B932B20912702309128028227932711
:103C2000EFCF8695CC2011F08C2F8170882309F47A
:103C300018CF4D2D429546954770440F440F2D2DBA
:103C40002F7030E0042E02C0220F331F0A94E2F7D7
:103C500090E080E0D4FE09C08FE090E002C0880FC1
:103C6000991F4A95E2F780959095C695C695C370C1
:103C7000C23099F078F440917A0250917B02C130C1
:103C800039F0822B932B842395230E947B09E9CE64
:103C9000242B352B822B932BF8CF822B932B209127
:103CA0007A0230917B0282279327EFCFCF70CC200E
:103CB00029F08C2F0E94A9098D2D08CF8D2D0E94EF
:103CC0007E178C2F0E948009CCCE8D2DE2EFAE1690
:103CD00099F1EA1570F0F0EFAF16D1F021EFA216CE
:103CE00091F0CC2009F45BC0B11073CE8C2F8F7192
:103CF00027C033EFA31639F194EFA912F2CF8091C8
:103D00007D0282FD2EC08C2F8F71CC20D9F218C07D
:103D1000CC2069F0E4E0EB1508F4A3CECF7181E08C
:103D200090E002C0880F991FCA95E2F7B8CFF5E07E
:103D3000FB1508F496CEF2CF8C2F8F71C110C2CF35
:103D40000E94A9098ECE90E080E0CC2009F49DCF9E
:103D5000CF7181E090E002C0880F991FCA95E2F709
:103D600094CFCC2089F0CF718C2F0E94A90980912B
:103D70007D0282FF07C028E0C29FC001112483603A
:103D800080931B028C2FDCCF81E00E94920931E0EE
:103D90003B1508F066CE82E00E94920962CEBB20FD
:103DA00059F0893309F0DACE8FEF97EEE3E08150D6
:103DB0009040E040E1F7D0CE8C2F8F7183CFC63199
:103DC000FCE7DF0781F4809126028A7A91E009F40A
:103DD00090E09093F2018111D0CC89E20E94AE086C
:103DE0000E9464147FCBC3303CE7D30709F472CD43
:103DF00050F4C1159CE7D90709F43DCDC130DC472B
:103E000009F46ECD78CDCB35FCE7DF0709F4C1CDE1
:103E1000CC352CE7D20709F465CDCA35DC4709F06B
:103E20006ACD81E066CD809126028272FE01E05269
:103E3000F847E531F10508F05ECDE15AF44D0C94F8
:103E40009929FE01E851FC47E730F10508F424CB3D
:103E5000C6312CE7D20739F78091F20181118FCC5E
:103E600089E20E94A108BCCFCF93DF9380911A0210
:103E7000807F09F04DC080911902882309F448C061
:103E8000E091700350913703C0911502D091140254
:103E9000609116027091170247E05E17C9F18E2FEC
:103EA00090E0E49FF0011124E85CFC4F2481222380
:103EB00091F1489FF001499FF00D1124DF01A85CAA
:103EC000BC4F11962C9111972C1325C02C912D13BA
:103ED00022C015962C91159721111DC012962D9177
:103EE0003C91261B370B283C3105A8F480911A021F
:103EF0008F70806180931A02E25CFC4F80818F702A
:103F00008061808384E192E00E941C1A0E94C708AD
:103F1000DF91CF910895FC013196E770BECFA4E107
:103F2000B0E0E5E9FFE10C9416298C0186E0F80188
:103F3000DE011F9601900D928A95E1F7F8018481C8
:103F4000E58094E1A92E92E0B92E9091180291118A
:103F500028C0882319F1EE20F1F0C8010E94BE09A3
:103F6000F82E8823C1F087E0F801D50101900D9269
:103F70008A95E1F780911802813031F48091140222
:103F8000909115020E9405090E94341F8F2D64969E
:103F9000ECE00C943229C8010E941C1AFF24F3940F
:103FA000F5CFD080C18082809380F090190220915B
:103FB000160230911702A401421B530BFF2009F493
:103FC000D9C0483C510508F092C08823F9F290917D
:103FD000150280911A02282F207F09F056C0C912BD
:103FE00014C090911402D91210C0E11048C08F7013
:103FF000806180931A0284E192E00E941C1A8091F1
:104000001A02F8018683F12CC1CFE11038C06C2D63
:104010008D2D0E9404036C2D8D2D0E940403E82E2B
:104020008111F1CFDF86C88A8F8598890E940509A2
:10403000292F22952F70243058F49F70223088F059
:10404000992399F0F8019681907F79F4FE2C9ECF08
:104050002A5F2F70223068F0C8010E941C1AEF2CD2
:10406000F5CF992311F0882389F3805E883070F3AF
:10407000F3CF803F58F3815F833070F7E7CF8091B3
:104080001A02816080931A02BECFC91207C09091B4
:104090001402D91203C0EE2009F48DC0C8010E9499
:1040A000BE09882309F477CFEE2009F474CF8091FC
:1040B0001A02803288F0209114023091150239875B
:1040C00028879B868A86909118029C871D868E87FA
:1040D000CE0108960E941C1A87E0F801A4E1B2E024
:1040E00001900D928A95E1F70E94341F57CF90916D
:1040F0001A02292F207F51F484E192E00E941C1AB9
:1041000087E0F50111928A95E9F77DCF882309F4BC
:104110003DCF809115028C1110C080911402D812ED
:104120000CC0E1100AC09683C8010E941C1A87E0E7
:10413000F50111928A95E9F729CFC8010E94BE09BD
:10414000882309F428CFEE2009F425CF80911A02A4
:10415000803210F220911402309115023A832983A3
:104160009C828B82909118029D831E828F83CE0148
:104170000196B0CF483C5105D0F6882309F40ECF04
:10418000FE2CEE2009F407CF809115028C1120C07F
:1041900080911402D8121CC080911A0280FD0FC0B9
:1041A000982F907F61F08683903F31F0982F907F19
:1041B000905F8F70892B8683C8010E941C1A87E04C
:1041C000F801A4E1B2E001900D928A95E1F7DECE0C
:1041D000C8010E94BE0981117FCF80911A028160BF
:1041E00080931A02C8010E941C1AD0CEABE1B0E045
:1041F000ECEFF0E20C941E294E8B5F8B688F798F69
:104200008A8F9B8F192F9111109225021D8A86E0AB
:10421000FE017696DE011F9601900D928A95E1F7D8
:104220000A8D002341F021E04F85588969897A89F8
:10423000C8010E94E1090B8B1C8B87E0FE013F96B1
:10424000DE01189601900D928A95E1F7CE0108964D
:104250000E948F1F81112AC087E0FE013896DE017F
:10426000119601900D928A95E1F78C858823F1F0E3
:104270002091370330E0C90101968770992740915A
:10428000700348171906E9F097E0929FD001939FB9
:10429000B00D1124A85CBC4FFE01319601900D9227
:1042A0009A95E1F7809337030E94C70817E0809141
:1042B000700390913703891312C06B96E4E00C945D
:1042C0003A290E94A114109237031092700387E0DC
:1042D000E4E1F2E0DF011D928A95E9F7E7CF819FE3
:1042E000C0011124885C9C4F0E948F1F882329F3F2
:1042F0008091700390E001968770992780937003F6
:10430000D6CFA6E0B0E0E7E8F1E20C941E290E94C7
:104310009D048C018091290290912A0280179107B7
:1043200081F019821A820E949D04682F49815A8166
:10433000792F80E090E00E94F62010932A020093EB
:1043400029022696E4E00C943A291F920F920FB6A8
:104350000F9211242F933F934F935F936F937F930B
:104360008F939F93AF93BF93CF93DF93EF93FF937D
:10437000D091E900DF708091EC00C82FC17080FD02
:10438000C0E81092E9008091F000877F8093F000F0
:1043900078940E94B7141092E9008091F000886030
:1043A0008093F000CD2BCF70C093E900FF91EF9187
:1043B000DF91CF91BF91AF919F918F917F916F913D
:1043C0005F914F913F912F910F900FBE0F901F90D3
:1043D00018951F920F920FB60F9211242F933F93AF
:1043E0004F935F936F937F938F939F93AF93BF93FD
:1043F000EF93FF938091E10082FF09C08091E2007A
:1044000082FF05C08091E1008B7F8093E100809165
:10441000DA0080FF24C08091D80080FF20C0809106
:10442000DA008E7F8093DA008091D90080FF9DC0F2
:1044300080E189BD82E189BD09B400FEFDCF81E044
:1044400080932D0380912003811109C00E942303D2
:104450000E94C4038091E20084608093E200809116
:10446000E10080FF17C08091E20080FF13C08091BF
:10447000E2008E7F8093E2008091E2008061809371
:10448000E2008091D80080628093D80019BC85E05A
:1044900080932D038091E10084FF2BC08091E20086
:1044A00084FF27C080E189BD82E189BD89B5982F4D
:1044B000917080FFFBCF8091D8008F7D8093D800D2
:1044C0008091E1008F7E8093E1008091E2008F7EF9
:1044D0008093E2008091E20081608093E20080910D
:1044E0002E03882309F447C084E080932D03809134
:1044F0002D038091E10083FF27C08091E20083FFBC
:1045000023C08091E100877F8093E10082E0809367
:104510002D0310922E038091E1008E7F8093E100A5
:104520008091E2008E7F8093E2008091E2008061C2
:104530008093E20042E060E080E00E94920380917C
:10454000F00088608093F000FF91EF91BF91AF91F0
:104550009F918F917F916F915F914F913F912F919B
:104560000F900FBE0F901F90189519BC10922D033D
:104570001092200374CF8091E30087FD93E0909325
:104580002D03B5CF78941F921FB61F9211248F93DD
:104590009F93AF93BF9380911C0390911D03A091B3
:1045A0001E03B0911F030196A11DB11D80931C0332
:1045B00090931D03A0931E03B0931F03BF91AF916F
:1045C0009F918F911F901FBE1F9018951F921FB62D
:1045D0001F9211248F939F93AF93BF9380911B03DE
:1045E000811113C080911C0390911D03A0911E03A3
:1045F000B0911F034196A11DB11D80931C039093A0
:104600001D03A0931E03B0931F03BF91AF919F9111
:104610008F911F901FBE1F901895CDB7DEB72B97B7
:104620000FB6F894DEBF0FBECDBF85B7806885BFDB
:1046300085B7806885BF84B7877F84BF0FB6F8943D
:10464000A89580916000886180936000109260005E
:104650000FBE80E890E00FB6F894809361009093CD
:1046600061000FBE8FE596E09093E9018093E80129
:104670000E9423030E94C4038091E200846080931F
:10468000E200789480912D038823A1F01091E90035
:104690001F709091EC00892F817090FD80E8182B9D
:1046A0001092E9008091E80083FD0E94B7141F700A
:1046B0001093E90082E084BD93E095BD9AEF97BD29
:1046C00080936E00109268021092690210926A0242
:1046D00010926B0255985D988FE891E00197F1F781
:1046E00000C0000089B185FB882780F980934701CD
:1046F00080914701882309F461C01092600186E02F
:10470000809361010E94740D81110E94AE279091E7
:10471000470181E0982790939B02A82FA91BA093A3
:104720006D029091470180939C0290914701809384
:104730006C0280914701811106C087EF809351017F
:1047400086EF8093500120915101E22FE295EF70A6
:10475000F0E061A12F7081E090E0AC0101C0440F56
:104760002A95EAF7342F3095362331A322A1242B42
:1047700022A320915001E22FE295EF70F0E031A1E9
:104780002F7001C0880F2A95EAF7982F90959323F0
:1047900091A392A1892B82A38FE891E00197F1F771
:1047A00000C0000010919C026DE972E041E551E00B
:1047B00080E5E82E81E0F82EFB012CC086E0809396
:1047C00060019ECFDA012D91AD01822F82958F700D
:1047D00090E0DC0190968C9190E02F7002C095954E
:1047E00087952A95E2F78170D7019D917D01292F48
:1047F00022952F7030E0D90190962C9130E09F7077
:1048000002C0359527959A95E2F790E020FD92E059
:10481000892B81938E2F861B8117A0F280914701EF
:1048200081112CC085E0E6E6F1E0DE0117960190EB
:104830000D928A95E1F78F8180934201888580935C
:1048400043018985809344018A85809345018B8546
:104850008093460186E0EBE6F1E0DE0111960190DF
:104860000D928A95E1F7FE013196ACE3B1E0CE01FD
:10487000079621912D938E179F07D9F780914701B5
:1048800095E0811190E09093790285E0891B8093F7
:10489000780202E411E097E4E92E91E0F92EF801A4
:1048A00081918F018F3F11F00E946106E016F106A1
:1048B000B1F70CE311E0D8018D918D018F3F11F01C
:1048C0000E946106B1E002341B07A9F78AE0EFE716
:1048D000F2E0DF01282F1D922A95E9F7EEE6F2E0DB
:1048E000DF011D928A95E9F790E080E00E94712A2D
:1048F000863E9E4F11F00E94571982E090E00E9480
:10490000632A8093890284E090E00E94712A909348
:104910007D0280937C0283E090E00E94632A90E015
:104920000E94B909259A2D9882E88093800089E138
:10493000809381008FEF9FEF909387008093860094
:104940000E94DB190E94DB1980917E0281117BC0DD
:1049500090E080E00E94712A863E9E4F21F00E94E6
:1049600057190E948F1088E090E00E946B2A4B013B
:104970005C0184E290E00E94632A282F30E040E04E
:1049800050E060E070E080E090E000E20E94AE293C
:10499000282939294A295B2920930C0330930D03D8
:1049A00040930E0350930F03609310037093110311
:1049B00080931203909313038091A80283608093E5
:1049C000A8022E7F89F50E948F1088E090E00E9457
:1049D0006B2A6B017C0184E290E00E94632A282FFD
:1049E00030E040E050E060E070E080E090E00E9465
:1049F000AE29B22FA32FF42FE52F5B01970186017B
:104A0000BC29A12BFE29E32BB0930C03A0930D032B
:104A1000F0930E03E0930F0360931003B092110321
:104A200080931203909313030E94BA050E94B3056A
:104A300080910C0380FF04C060E086950E941F10E7
:104A400081E080937E020E94740D811102C00E9459
:104A5000B12788E491E0909318038093170318E13D
:104A6000612E712C09E8C02E02E0D02E84E0A82E21
:104A7000B12C80912D0300E112E1853009F484C04E
:104A80000E9485120AE812E0BFE7EB2EB2E0FB2E8F
:104A900024E932E0D701F80191918D912E173F075B
:104AA00009F47EC09817C1F30E94740D282E912C32
:104AB000D7018D907D01F80131908F01381431F1CB
:104AC000512C442443943824832D8421B9F022208E
:104AD000A9F059829A820E949D049C838B83F1E005
:104AE000FD8391E0842D882109F490E09E83498123
:104AF0005A816B817C818D810E94F6205394440CF5
:104B000026E05212E1CFF8013197808293944AE077
:104B10009412CECF0E94A80D47C080912D038430FF
:104B200029F180E00E94090510921B03F0E40FB602
:104B3000F894A895609260000FBEF093600083B770
:104B4000817F846083BF83B7816083BF78948895B9
:104B500083B78E7F83BF0FB6F894A89580916000CD
:104B6000886180936000109260000FBE80912C03DA
:104B7000882351F00E948512EFE7F2E081918111C4
:104B80007FC1CE16DF06D1F780912D03853009F461
:104B9000C4CF0E94A1140E94DB190E94970D70CF10
:104BA000981382CF0E9481210E94740D8091A702E8
:104BB000882309F464C08091A602E0910C03E69575
:104BC000E81BE093A202823009F06FC0F0E0E356E8
:104BD000FD4FE4910E2F10E0ADE2EA2EADE0FA2E8B
:104BE0008091A302882361F01092A3020E94C50D58
:104BF0009093A1028093A0021092A5021092A402A9
:104C00000E94C50DE091A002F091A1029C012E1B13
:104C10003F0B2F3F3F4798F5209196022223B1F09A
:104C2000109296022091940230919502821B930B70
:104C30008F3F9F4758F4205D3A4830939502209368
:104C400094028091A80288608093A8028090A402B8
:104C50009090A502E00FF11FF093A102E093A00253
:104C600080EA92E0F70109958091A4029091A50253
:104C7000892B29F4892819F081E080939602E12C90
:104C8000912C80919C02E81608F47BC091100E9440
:104C9000C20D0E94970D90919F02891709F4E9CEE9
:104CA00080939F020E949104E4CE863059F4F0E094
:104CB000E656FD4FE4910E2F10E0FDE1EF2EFDE0F2
:104CC000FF2E8ECF893061F4E695F0E0E956FD4F76
:104CD000E4910E2F10E0E6E7EE2EECE0FE2E80CF02
:104CE0008F3061F4E695F0E0EC56FD4FE4910E2F25
:104CF00010E07BEEE72E7BE0F72E72CF853159F482
:104D0000F0E0EF56FD4FE4910E2F10E066E6E62E40
:104D10006BE0F62E65CF08E210E034EEE32E3AE0C9
:104D2000F32E883109F45CCF833249F4EFE8F2E0E6
:104D3000059114915CECE52E5CE0F52E51CF04EF6B
:104D400011E027EAE22E2AE0F22E843209F448CF5D
:104D500000ED17E09DE7E92E94E0F92E853209F089
:104D60003FCF8E2F63E00E945729E92FF0E0E457F0
:104D7000FD4FE4910E2F10E049E0E42E4EE0F42EBA
:104D80002FCF0E2D10E0F801EF5AFE4F8081E82F53
:104D9000E295EF70F0E0E0A1F0E08F7002C0F595D1
:104DA000E7958A95E2F7E170D801A05BBE4F2C91A0
:104DB000A22FA295AF70B0E090968C9190E02F70EA
:104DC00002C0959587952A95E2F780FD51C080E055
:104DD0008E2BD801A356BD4FEC919E2F937089174F
:104DE00009F444C0EE0FEE0FE82BEC93F0909B0219
:104DF000FE0CEF70F0E0E455FE4F07561D4F80812A
:104E0000D8019C91890F8C93812C843084F0EF2DF4
:104E1000F0E0E956FD4F80818F5F80830E94740D22
:104E2000882E882339F160E08F2D0E94E518F80163
:104E300080818D3F84F4EF2DF0E0E956FD4F8081B5
:104E4000815080830E94740D882E8823B1F061E028
:104E50008F2D0E94E518D8018C91082E000C990B1B
:104E6000B5010E948529F80180839828E39409CF31
:104E700082E0AECF88248394DACF88248394EBCF6A
:104E800009BD19BD09B400FEFDCF8091D8008F7D0A
:104E90008093D8008091E00082608093E000809150
:104EA000E00081FDFCCF0E94A1146ECE8EE1489BF4
:104EB00002C08150E1F7489BFECF0895589880E2E8
:104EC0008A95F1F7589A0895FC013BE03A95F1F77D
:104ED00098E020E080E031E040E14A95F1F7880F6A
:104EE000489B02C08160232742E04A95F1F7000009
:104EF00040E14A95F1F7915079F790E19A95F1F7F1
:104F000099B132E03A95F1F7000040E14A95F1F7A6
:104F1000917092272081920F90830895A1E0B0E0D4
:104F2000E4E9F7E20C941C2919828C017C01E60E5D
:104F3000F11C0E151F0541F481E09981911180E06B
:104F40002196E6E00C9438290E945627CE0101965E
:104F50000E946427F80181938F01EBCF509A589AF1
:104F600008955098589AE89AE9E6F0E080818C7F9D
:104F7000808308956150770B91E001C0990F6A9585
:104F8000EAF720E031E0911108C0222391F0589A0D
:104F900080E28A95F1F758980895492F482339F00F
:104FA000589A232740E24A95F1F79695ECCF589806
:104FB000F9CF5898EDCFFF920F931F93CF93DF93C4
:104FC000EC018C01060F111DC017D10729F4CDB7D4
:104FD000DEB7E5E00C943929F9900E945E2768E07D
:104FE0008F2D0E94BA27F0CF1F920F920FB60F920B
:104FF00011240F931F932F933F934F935F936F93BE
:105000007F938F939F93AF93BF93EF93FF93CF9330
:10501000DF930F92CDB7DEB719820E945627CE01DB
:1050200001960E946427082F069506950695282F5D
:1050300022952570902F9570290F922F93702695A9
:105040002695920F982797708981982B09F05CC05C
:10505000083008F059C080E18A95F1F7589A509AC3
:1050600082E08A95F1F700C0589888E0089F800197
:105070001124D801AC5FBE4F1696ED91FC911797A5
:105080003097A9F06091AA017091AB0114962D910F
:105090003C911597260F371F11968D919C91129771
:1050A000680F791F13964C9113978C910995F8010D
:1050B000EC5FFE4F6381662351F02091AA0130918D
:1050C000AB0184819581820F931F0E94DB270E9490
:1050D0005E2780E18A95F1F758985098589A80E1B8
:1050E0008A95F1F7F801EC5FFE4F6081662351F07D
:1050F0002091AA013091AB0181819281820F931F8F
:105100000E948E270E9456270F90DF91CF91FF912A
:10511000EF91BF91AF919F918F917F916F915F912F
:105120004F913F912F911F910F910F900FBE0F90B4
:105130001F9018950F931F93CF93DF93EC0108975F
:105140000CF04CC0F894509A589885E08A95F1F785
:1051500000009C2F969595708C2F8570980F892F45
:1051600083709695969523E0CC0FDD1F2A95E1F785
:10517000980F8E01092B0E945E2700C068E0802FE7
:105180000E94BA2780E18A95F1F75098589A489B77
:105190001EC087E090E048991CC0FE01EC5FFE4F06
:1051A00063816623F9F02091AA013091AB018481DB
:1051B0009581820F931F0E948E27811113C0509AF0
:1051C000589A7894DF91CF911F910F91089500C064
:1051D000DECF019729F4509A589A789480E0F2CF64
:1051E00000C0D9CF0E94562780E28A95F1F75898DF
:1051F000509A80E18A95F1F7CC5FDE4F6881662393
:1052000051F02091AA013091AB0189819A81820FDE
:10521000931F0E94DB270E945E27789481E0D2CF03
:105220002F923F924F925F926F927F928F929F92B6
:10523000AF92BF92CF92DF92EF92FF920F931F93A4
:10524000CF93DF93CDB7DEB7CA1BDB0B0FB6F89455
:10525000DEBF0FBECDBF09942A88398848885F8495
:105260006E847D848C849B84AA84B984C884DF8006
:10527000EE80FD800C811B81AA81B981CE0FD11DEA
:105280000FB6F894DEBF0FBECDBFED010895DB0170
:105290008F939F930E94DA2ABF91AF91A29F800DB6
:1052A000911DA39F900DB29F900D11240895991BFD
:1052B00079E004C0991F961708F0961B881F7A950D
:1052C000C9F78095089587FB082E062687FD8195EE
:1052D00067FD61950E9457290EF4919507FC819511
:1052E0000895AA1BBB1B51E107C0AA1FBB1FA6172D
:1052F000B70710F0A61BB70B881F991F5A95A9F77F
:1053000080959095BC01CD01089597FB072E16F46A
:10531000009407D077FD09D00E94712907FC05D0C1
:105320003EF4909581959F4F0895709561957F4FBC
:105330000895EE0FFF1F0590F491E02D09940E944F
:105340000F2B332312F48A1B9B0B0C94A9290E9468
:105350000F2BB7FF0895821B930B0895002E083082
:1053600090F0982F872F762F652F542F432F322FB1
:1053700022270850F4CF220F331F441F551F661FEA
:10538000771F881F991F0A95B2F7002D089597FD82
:105390001094002E083098F00850232F342F452FFA
:1053A000562F672F782F892F912DF4CF159497952D
:1053B00087957795679557954795379527950A95DA
:1053C000AAF71124002D08958F929F92AF92BF9259
:1053D000CF92DF92EF92FF92CF93DF93EC0168813F
:1053E00079818A819B81611571058105910521F47F
:1053F00064E279ED8BE597E02DE133EF41E050E099
:105400000E94BB2A49015A019B01AC01A7EAB1E401
:105410000E94DA2A6B017C01ACEEB4EFA501940185
:105420000E94E82ADC01CB018C0D9D1DAE1DBF1D25
:10543000B7FF03C00197A109B04888839983AA8365
:10544000BB839F77DF91CF91FF90EF90DF90CF905C
:10545000BF90AF909F908F9008950E94E429089587
:1054600080E091E00E94E4290895B0E0A0E08093FC
:10547000000190930101A0930201B09303010895EC
:10548000FC014150504030F001900616D1F73197A1
:10549000CF010895882799270895FB01DC0104C0F6
:1054A0008D910190801921F441505040C8F7881B1C
:1054B000990B0895FB01DC0102C001900D9241504F
:1054C0005040D8F70895F999FECF92BD81BDF89A62
:1054D000992780B50895A6E1B0E044E050E00C942F
:1054E000AD2AA8E1B0E042E050E00C94AD2ADC0126
:1054F000A40FB51F4150504048F0CB01840F951FB9
:105500002E910E94882A41505040D0F70895262FAE
:10551000F999FECF92BD81BDF89A019700B40216A9
:1055200039F01FBA20BD0FB6F894FA9AF99A0FBE57
:1055300008950396272F0E94882A0E94872A252FE4
:105540000E94882A242F0C94882A0196272F0E94D3
:10555000882A0C94872ADC01CB01FC01F999FECF43
:1055600006C0F2BDE1BDF89A319600B40D924150EB
:105570005040B8F70895052E97FB1EF400940E9442
:10558000D22A57FD07D00E94ED2A07FC03D04EF423
:105590000C94D22A50954095309521953F4F4F4F0E
:1055A0005F4F089590958095709561957F4F8F4FCF
:1055B0009F4F08950E940F2BA59F900DB49F900DB3
:1055C000A49F800D911D11240895B7FF0C94DA2A31
:1055D0000E94DA2A821B930B0895A1E21A2EAA1BBD
:1055E000BB1BFD010DC0AA1FBB1FEE1FFF1FA21793
:1055F000B307E407F50720F0A21BB30BE40BF50B90
:10560000661F771F881F991F1A9469F76095709518
:10561000809590959B01AC01BD01CF010895A29F9B
:10562000B001B39FC001A39F700D811D1124911D76
:10563000B29F700D811D1124911D0895F894FFCF24
:105640009615BE155617BE155617F1151216561794
:105650000F171C17D41AD81AC91AD01ADC1AE01A54
:10566000E41A3A1BAF1B421B0C1B101B461B141BDE
:105670004A1B561B201BA81B241B5A1B281B5E1BE6
:10568000861B2C1B621B8D1B321B681B701B181B7F
:105690004E1B1C1B521B361B6C1B7C1B961BA61B1C
:1056A000061B3E1BB61BD01CD01C091D091DB21DBC
:1056B000311D311D311DCE1D561E651E651EC11BBF
:1056C000EA1BF11BF61BFB1B001C051C0A1C0F1C14
:1056D000141C191C1E1C201C251C281C2B1C2E1CD9
:0856E000311C331C361C381C80
:1056E80001000000000000010000000000000005AB
:1056F8000100000000000001060000000000000199
:10570800070000000408000000000000010C000071
:10571800000000000B0D000000000000F1F493925F
:10572800379431F0F5F6F7017F04480A7E04410A00
:10573800333201191A1B1C1D1E1F202122010201D0
:10574800000C000C0C01313292F1F494979337F06D
:1057580033818283E200E900EA00B500B600B700B1
:10576800CD008301CC008A01920194012102230219
:1057780024022502260227022A02B300B4006F0081
:1057880070009F01CB019F02A002430200FF0100AD
:10579800010000FFFF0000010001FF0000010202FC
:1057A80002020606060909090909090F0F0F0F0F5A
:1057B8000F1515151819191919191919191919235E
:0857C8002425252525252500D7
:00000001FF
