:100000000C9476020C94AE020C9422240C94AE0252
:100010000C94AE020C94AE020C94AE020C94AE02A0
:100020000C94AE020C94AE020C94241F0C94E01EAF
:100030000C9420200C94AE020C94AE020C94AE02F0
:100040000C94AE020C94AE020C94AE020C94AE0270
:100050000C94AE020C94FC1F0C94AE020C94AE02F5
:100060000C94AE020C94AE020C94AE020C94AE0250
:100070000C94AE020C94AE020C94AE020C94AE0240
:100080000C94AE020C94AE020C94AE020C94AE0230
:100090000C94AE020C94AE020C94AE020C94AE0220
:1000A0000C94AE020C94AE020C94AE022B00140021
:1000B0000800150017000A00225204001A00070069
:1000C000090005000000A252160006001900E30016
:1000D000000000001D001B00E2002C272900130077
:1000E0000C0018001C000B003400330012000E003E
:1000F0000D0011003502E5000F0036001000C1525E
:1001000000000000380037002352B15201002002E5
:100110003102240225022E02010036023802370283
:100120001E023700010001002E002202360000529C
:100130000000000037001F022C00010035021302EE
:100140003402340035002D00230230021300300049
:100150002F002D02210238002F0227022602010063
:100160000000000031023100010001000100000028
:100170006A006B00027800000100E0000000E2006D
:10018000E3000000007C0100E1000000000001002D
:10019000000000000000000001000100A9004B0069
:1001A0005200720000002A00A800280073005100CD
:1001B000500000000000AA004F00AE00BC0001008B
:1001C000000000004E00BB000100010001003A00E9
:1001D0003C003D000000000001003E003B004000EC
:1001E00041000000000001003F00440045000052B3
:1001F00000000000420043000100010055005400CF
:1002000060005F0036002A006700620061005D0048
:100210005C005600007C57005E005A005900010047
:100220000000000037005B00010001001E0F050008
:10023000047F3F1F643214643214783C1E1E140A7B
:100240000500010101010101010101020202020296
:10025000020202020303030303030303040404046E
:100260000404040505050505060606060607070736
:10027000070708080808090909090A0A0A0B0B0BED
:100280000C0C0C0D0D0D0E0E0E0F0F0F101011118A
:10029000111212131314141515161617171818190E
:1002A000191A1A1B1B1C1D1D1E1E1F202021222275
:1002B000232424252626272829292A2B2C2D2D2EB8
:1002C0002F30313232333435363738393A3B3C3DD2
:1002D0003E3F404142434445464748494A4C4D4EC3
:1002E0004F50515354555658595A5B5D5E5F616289
:1002F00064656668696B6C6D6F7072737577787A18
:100300007B7D7E8082838587888A8C8E8F91939572
:1003100096989A9C9EA0A2A3A5A7A9ABADAFB1B396
:10032000B5B7BABCBEC0C2C4C6C9CBCDCFD1D4D676
:10033000D8DBDDDFE2E4E7E9EBEEF0F3F5F8FAFD18
:10034000FFFFAA7F55402223252628292A2C2D2F5E
:100350003032333536383A3B3D3E404243454749DB
:100360004A4C4E5051535557595A5C5E6062646610
:1003700068696B6D6F71737577797B7D7F8183851C
:1003800087898A8C8E90929496989A9C9E9FA1A31E
:10039000A5A7A8AAACAEAFB1B3B4B6B8B9BBBCBE42
:1003A000BFC1C2C3C5C6C7C9CACBCCCDCED0D1D2BE
:1003B000D2D3D4D5D6D7D7D8D9D9DADADBDBDBDCC0
:1003C000DCDCDCDCDDDDDDDDDCDCDCDCDCDBDBDB6C
:1003D000DADAD9D9D8D7D7D6D5D4D3D2D2D1D0CECC
:1003E000CDCCCBCAC9C7C6C5C3C2C1BFBEBCBBB9D1
:1003F000B8B6B4B3B1AFAEACAAA8A7A5A3A19F9E4F
:100400009C9A98969492908E8C8A89878583817F16
:100410007D7B79777573716F6D6B696866646260F7
:100420005E5C5A5957555351504E4C4A49474543C3
:1004300042403E3D3B3A3836353332302F2D2C2A60
:1004400029282625232205010906A101050719E00F
:1004500029E71500250195087501810295017508A8
:1004600081010507190029FF150026FF0095067573
:100470000881000508190129051500250195057554
:10048000019102950175039101C009022200010149
:1004900000A032090400000103010100092111013B
:1004A0000001224400070581030800011201000237
:1004B00000000008DEC037130002010200010A0339
:1004C0004A00690061006E0000001C034B006700D9
:1004D0004F00660048006500640067006500680022
:1004E0006F006700730000000403090411241FBE9D
:1004F000CFEFDAE0DEBFCDBF04B603FE18C08091B7
:10050000BF029091C002A091C102B091C202873097
:10051000904BA740B04B59F41092BF021092C0020A
:100520001092C1021092C202E0E0F8E3099522E0C5
:10053000ACE7B1E001C01D92AF3BB207E1F711E0BB
:10054000A0E0B1E0E4E4FFE402C005900D92AC3716
:10055000B107D9F70E9447200C944C270C94000057
:10056000482F2091BB029091820257E0291302C0CC
:1005700080E0089530E0529FF001539FF00D112468
:10058000ED57FD4F8181681306C08081481303C079
:1005900085818111EECF2F5F3F4F2770E7CFFC01A0
:1005A000AC014C5F5F4F8FEF91E32191822728E0F0
:1005B00030E087FF09C0880F892721503109C9F72A
:1005C000E417F50791F70895880FF7CF982F9093C8
:1005D000E900891779F05091EC002091ED004091ED
:1005E000F00021FD0AC09F5F973089F78093E900F2
:1005F00081E00895562F40E022E03091EB003E7FED
:100600003093EB003091ED003D7F3093ED00309161
:10061000EB0031603093EB005093EC002093ED0041
:100620004093F0002091EE0027FDDDCF80E008959B
:10063000E8EDF0E080818E7F80831092E2001092DE
:10064000DA001092E100A0EEB0E08C9181608C9312
:1006500080818F77808319BCA7EDB0E08C918E7F6D
:100660008C9380818F7E808310926B020895B0E01E
:10067000A0E0EDE3F3E00C944825C8EDD0E08881DC
:100680008F7E8883E7EDF0E080818160808384E065
:1006900082BF81E080936B0288818E7F888302EE27
:1006A00010E0F80110821092DA0081EEC82ED12CF1
:1006B000F601108288818F7788838881806888839B
:1006C00088818F7D888319BC1092810210927802F4
:1006D000109277021092760290EEE92EF12CF7013B
:1006E00080818B7F808388818160888360E080E067
:1006F0000E94E602F60180818E7F8083F80180816E
:1007000081608083808188608083F70180818E7F13
:100710008083888180618883CDB7DEB7E8E00C9460
:1007200064252091E4003091E50095E6A90120912F
:10073000EC00822F817020FF06C08091E80080FFCE
:1007400006C080E008952091E80022FD1AC0809143
:100750008102882389F0853089F08091EB0085FD46
:100760000FC02091E4003091E50042175307F9F2E1
:100770009150E1F684E0089582E0089583E00895C1
:1007800081E008958091790287FF13C08091E8008D
:1007900082FF06C08091E8008B778093E80004C058
:1007A000809181028111F2CF089580918102882386
:1007B000D9F38091E80080FFF8CF8091E8008E7730
:1007C000ECCFFC0180917F02909180028617970701
:1007D000A0F06115710529F49091E8009E7790933F
:1007E000E80090E06115710551F4911108C0809105
:1007F000E80082FF34C080E00895BC01F2CF809110
:1008000081028823C1F18530C1F18091E80083FD28
:1008100030C08091E80082FDEACF8091E80080FF3F
:10082000E1CF8091F3002091F200382F611571051E
:1008300019F02830310558F091E02830310509F0E1
:1008400090E02091E8002E772093E800CBCF8191B3
:100850008093F100615071092F5F3F4FE7CF809186
:100860008102882341F0853041F08091E80083FFC8
:10087000BECF81E0089582E0089583E00895089551
:100880000895089580916D0208959C014FB7F894E2
:100890008091670290916802A0916902B0916A020A
:1008A0004FBF821B930B08952FB7F8946091670296
:1008B000709168028091690290916A022FBF089539
:1008C0002FB7F8948091670290916802A091690215
:1008D000B0916A022FBF08959C01FC0132969FEFF0
:1008E00080E04191461751F09F3F19F4411101C03A
:1008F000982F8F5F8630A9F79F3F09F40895290F3D
:10090000311D97FD3A95F901628308958F929F9268
:10091000AF92BF92EF92FF920F931F93CF93DF930B
:100920008630B0F5811135C0909190009F779093FB
:100930009000A0919600B0919700282F30E00E947F
:100940003D2725E030E040E050E00E941B27890170
:100950009A0180919600909197006CE070E00E945F
:100960009F2560177107C8F0C80169E070E00E9418
:100970009F257093990060939800DF91CF911F910C
:100980000F91FF90EF90BF90AF909F908F90089540
:1009900085E0909190009068CACF809196009091E8
:1009A0009700E0909600F0909700E0919600F0910B
:1009B0009700C6E0D0E0BE010E949F25060F171FDA
:1009C000211D311D4801590185E0880C991CAA1C84
:1009D000BB1C8A95D1F7C701BE010E949F259F01CC
:1009E00050E040E0260F371F411D511DC501B401E5
:1009F0000E941B2749015A01E0919600F09197004F
:100A0000CA01B9010E9475259B01AC01DF010E945A
:100A100008279B01AC01C501B4010E9475252FE098
:100A200096958795779567952A95D1F700919600C9
:100A30001091970030E020E00617170728073907C4
:100A400008F097CF609196007091970092CF863012
:100A500008F085E0909163029770282F220F220FF3
:100A6000220F922B90936302987F21E009F420E0FB
:100A70009091630220FB90F9909363020E94860498
:100A80000895FA01811101C0FB0109950895EDE176
:100A9000F2E01182828184608283089580915B02FA
:100AA000982F9E7F61F48170826080935B028091B9
:100AB0005E028E3218F08DE280935E0208958635D4
:100AC000B0F381708465F1CFAF92BF92DF92EF9265
:100AD000FF920F931F93CF93DF93182F062FE901F7
:100AE0004E3208F04DE2E42FF0E0EF5BFD4F0111D4
:100AF00010C0E4915E2F4E2F4983E8835A83DF9123
:100B0000CF911F910F91FF90EF90DF90BF90AF902A
:100B10000895202F30E04491D42EE42EF12C56E09D
:100B2000159FC0011124EFEFF0E0BF010E949F2547
:100B3000812F90E0880F991F55E5569FD001579F50
:100B4000B00D11248A1B9B0B982F990F890F5F0101
:100B5000A21AB30AAE9CD001AF9CB00DBE9CB00DE2
:100B600011245B2F089F80011124012F11275F01A1
:100B7000A01AB10AAE9C8001AF9C100DBE9C100D56
:100B800011245F01A81AB108A29EC001A39E900D76
:100B9000B29E900D1124892F9927E81BF90BEE9D29
:100BA000C001EF9D900DFE9D900D1124E92F623044
:100BB0007105A1F050F46115710509F49DCF613004
:100BC000710581F0EB2F512F97CF6430710569F0DB
:100BD00080F06630710509F48FCFF4CFE42F4B2FEE
:100BE000592F8ACFE42F412F87CFEB2F542F492F36
:100BF00083CF4B2F5D2DE12F7FCF80E00895F894B8
:100C0000E82FE295EF70F0E031A1282F2F7081E0FE
:100C100090E001C0880F2A95EAF7982F90959323CA
:100C200091A392A1892B82A3789408959091FC01BD
:100C300092FF10C041E0282F2471243009F040E0D9
:100C400031E0282F2871283009F030E0431711F0E7
:100C50002CE0822793FF10C041E0282F247124311B
:100C600009F040E031E0282F2871283109F030E008
:100C7000431711F02CE082273091FD0130FF10C0A6
:100C800051E0282F2171213009F050E041E0282F58
:100C90002871283009F040E0541711F029E082272C
:100CA00031FF10C041E0282F2171213109F040E0CF
:100CB00031E0282F2871283109F030E0431711F076
:100CC00029E0822794FD877E089582389105B9F145
:100CD000B0F48133910509F47DC048F4893291055F
:100CE00009F46DC08A32910509F47BC008958533FB
:100CF000910509F45FC08933910509F10895833E98
:100D00009105D9F138F4803E910529F1823E910593
:100D100079F10895863E9105D9F1873E910509F450
:100D20003EC0843E910541F52091FD0121FF24C084
:100D30008091FC0184FD19C087EE90E00895209118
:100D4000FC01237009F05AC02091FD0123FF14C05B
:100D500089E290E008952091FC0120FD38C0309197
:100D6000FD0130FF09C024FF43C090E080E00895FA
:100D70002091FC0122FDF7CF08952091FC0122FD76
:100D80003AC03091FD0130FD39C024FFF5CFEDCFE1
:100D90002091FC0123FFF0CF24FDE7CFCDCF2091A0
:100DA000FC0123FD2EC03091FD0131FFEECF84EE1A
:100DB00090E008952091FC0125FFDECFC9CF20915E
:100DC000FC0125FD21C02091FD0123FFD5CF89E342
:100DD00090E0D2CF2091FC0126FFCECF8AE290E0B6
:100DE00008952091FC0126FFC7CF81E390E008958C
:100DF00083EE90E0089582EE90E0089580EE90E01A
:100E0000089586EE90E0089585E390E00895972F89
:100E10007830B8F46630A8F48430B0F470E026E09E
:100E2000929F600D711D1124FB0190E3899FE00DDD
:100E3000F11D1124EE0FFF1FE455FF4F8591949192
:100E4000089580E090E0089581E0FCCF1F93CF9358
:100E5000DF930E946506EC01C11582E5D80708F012
:100E60003FC0C11590E5D90708F0C2C0C83ED10502
:100E7000C0F4C03ED10580F4C53AD10548F4C43071
:100E8000D10550F4C130D10539F0D0E0C0E004C044
:100E9000CD3CD105D0F3D065CE01DF91CF911F912C
:100EA0000895C11580E4D80708F053C0C11590E239
:100EB000D90708F0B7C0C11581E0D80730F38D2FEE
:100EC0000E941606182FCE0199270E946506C12F91
:100ED000D0E0DC2FCC27CC27DF71C82BD92BDCCF7F
:100EE000C03892E5D907A8F4C03682E5D80708F0E3
:100EF00063C0C03492E5D90708F049C0C03282E52A
:100F0000D80788F1CF71D0E0DC2FCC27C16FD06A31
:100F1000C3CFC03C92E5D90780F48C2F8F71C03AC3
:100F2000D24508F45EC00E941606C82FD0E0DC2F20
:100F3000CC27CC27DF71D062AFCFC03E82E5D80787
:100F400008F0A3CFDC2FCC27CC27DF71C06FD06A8D
:100F5000A3CFCE0199270E946506CC27DF70C82B4E
:100F6000D92BD06A99CF2C2F2695269590E2299FD0
:100F7000900111248C2F8370C1E0D0E002C0CC0F0F
:100F8000DD1F8A95E2F7C22BD32BDD6885CF2C2F8E
:100F900026952695277080E2289F900111248C2F9A
:100FA0008370C1E0D0E002C0CC0FDD1F8A95E2F76C
:100FB000C22BD32BDC6870CF2C2F2695269527705B
:100FC00090E2299F900111248C2F8370C1E0D0E022
:100FD00002C0CC0FDD1F8A95E2F7C22BD32BDA6853
:100FE0005BCFC82FD0E0DC2FCC27C46FD06A54CFA2
:100FF0008C2F8F710E94160655E0D695C7955A958D
:10100000E1F7CF70D0E0DC2FCC27282F30E084FF31
:1010100005C044E0220F331F4A95E1F7C22BD32BC2
:10102000D0693ACF8D2F8F710E941606182FCE01EE
:1010300099270E946506C12FD0E0DC2FCC27CC2752
:10104000DF71C82BD92B77CF80959091B20198236F
:101050009093B20108958091BB02909182029813FF
:1010600001C008958F5F8770FACFB0E0A0E0EBE396
:10107000F8E00C9447257C010091FA011091FB01E6
:101080008091B3019091B401082B192BCFE0D0E0EF
:10109000CC24C394D12CBC2EC6010C2E02C0880FC8
:1010A000991F0A94E2F780239123892B49F4219711
:1010B00090F7B12C8B2DCDB7DEB7E9E00C9463250A
:1010C000B7018C2F0E9407070E942607019779F32A
:1010D000F1CFCF93DF93EC010E943508BE010E944F
:1010E00007070E942607DF91CF910895983078F581
:1010F000863068F5E82FF0E086E0989FE00DF11D5E
:1011000011249E2F977083E0F695E7958A95E1F775
:10111000EE0FFF1FEE0FFF1FE857FE4F50E040E0BD
:1011200080E0219130E0092E02C0369527950A947F
:10113000E2F721703327042E01C0220F0A94EAF748
:10114000822B4F5F5F4F4430510559F7089580E07F
:101150000895983098F5863088F5E82FF0E086E01D
:10116000989FE00DF11D11248E2F877041E001C082
:10117000440F8A95EAF783E0F695E7958A95E1F7BB
:10118000EE0FFF1FEE0FFF1FE857FE4F30E020E08D
:1011900070E05191DF011197CB01022E02C09695AC
:1011A00087950A94E2F781708195852784238527A6
:1011B0008C932F5F3F4F2430310559F7089590935A
:1011C000FB018093FA01089521E030E002C0220F74
:1011D000331F8A95E2F7209530958091FA0190911E
:1011E000FB01822393230E94DF0808959091A701B9
:1011F000809589238093A701282F277069F4891788
:1012000059F09091FD0192FF07C0869586958695CD
:101210000E94E4081092A701089521E030E002C086
:10122000220F331F8A95E2F78091FA019091FB011A
:10123000822B932B0E94DF0808959093B401809332
:10124000B3010895FC0124812223C1F080819181A2
:101250000E94690892959F70963091F058F4925FC1
:101260009F70923058F4803F19F030F4883E30F48B
:1012700081E008959A5FF4CF843FD1F380E0089530
:10128000883EB0F3813FD1F7F3CFA6E0B0E0EBE4C6
:10129000F9E00C944D2549835A8349815A81992359
:1012A000A1F0222391F0CA010E943508182F682F5F
:1012B00089819A810E94A90869817A81812F0E947F
:1012C00007072696E3E00C946925CA010E94760878
:1012D000182FF2CF80FD09C05F9A81FD08C02D9ABA
:1012E00082FD07C02E9A81E008955F98F6CF2D9871
:1012F000F7CF2E98F8CF0F931F93CF93DF938C01E6
:1013000080918102843059F581E08093E9008FEF6C
:101310009091E800815095FD06C095ED9A95F1F702
:1013200000008111F5CF8091E80085FF18C00E9470
:10133000910381110FC0C8E0D0E08091E80085FDE5
:1013400013C08091E8008E778093E8000E9491039B
:10135000882399F38091E8008E778093E800DF91ED
:10136000CF911F910F910895F80181918F01809382
:10137000F100219711F7EECFCF93DF93EC010E949C
:101380007B0988E0FE01AEE6B2E001900D928A95FD
:10139000E1F7DF91CF91089580915B0280FD0AC053
:1013A000E3E2F2E0118210821282339652E0E833D7
:1013B000F507C1F7549A3BB13F7E2BB120614FB77F
:1013C000F89483E292E0FC015191CF0168E02BB9DF
:1013D000000000C057FF3BB9550F000000C000C01F
:1013E00000C03BB900C06A9591F7F2E088339F07CF
:1013F00051F74FBF8FE594E00197F1F700C000006F
:101400000895EF92FF920F931F93CF93DF938C0178
:10141000C3E2D2E0F12CE12CF801948160915D02ED
:1014200080915C02F3E0EF16F104ECF49923E9F00B
:101430009E0140915E020E9464052FEFE21AF20ABB
:10144000239687E0E816F10439F70E94CC09F801E9
:10145000848190E00196817099278483CDB7DEB7AF
:10146000E6E00C946625992319F39E0140E0E3CF52
:10147000B0E0A0E0EEE3FAE00C944425EC014C81EE
:10148000042F10E09801D8010E943D279B01AC0178
:101490000E9408274B015C01E0E2F0E0E01BF10B49
:1014A000A5E5B0E0AC019B010E9408276B017C011F
:1014B0009F01DF010E94CD259B01AC010E941327F3
:1014C0009B01AC01280D391D4A1D5B1DC701B601EA
:1014D0000E941B27F22E822F90E039E23F1598F1EF
:1014E00043E0249F9001112435952795122F1095E4
:1014F00093E2C92E92E0D92E00E085E5E82EEF18A0
:101500008E2D01FD8F2D9601412F60915D020E946D
:1015100064050F5F53E0C50ED11C073089F70E94A8
:10152000CC099C8181E0992319F0903219F48FEF56
:101530008093420180914201890F8C83CDB7DEB741
:10154000ECE00C94602525E530E0A901481B590B1F
:10155000CA019A01220F331F280F391F37FFC4CF4A
:101560002F5F3F4FC1CFEF92FF920F931F93CF9307
:10157000DF937C01FC018481811109C081E08483B7
:101580001092210292E09093410180934001C3E2C6
:10159000D2E0FE01118210821282339682E0E8339B
:1015A000F807C1F710E000E080912102082E000C3E
:1015B000990B08171907ACF180914101082E000C16
:1015C000990B801791076CF19E0140915E0260912A
:1015D0005D0280915C020E9464050F5F1F4F23969D
:1015E0000730110509F70E94CC09809140019091C4
:1015F0002102980F9093210220914101280F2093FE
:101600004101121614F496303CF08195809340010C
:10161000813011F4F7011482CDB7DEB7E6E00C9407
:101620006625198218821A82D8CFB0E0A0E0EBE1DB
:10163000FBE00C944525EC018A81BB24BA9480FD23
:1016400002C0BB24B3948C81811108C081E0B81220
:1016500056C086E08093200281E08C8323E2E22E54
:1016600022E0F22E10E000E037E0932EF701118225
:101670001082128294E0C92ED12CA12C80912002DC
:101680008A0D88300CF43EC0692D0E949125892F67
:10169000082E000C990B8017910791F480915E023F
:1016A0008C9DA0018D9D500D112455954795559504
:1016B0004795970160915D0280915C020E946405EC
:1016C000AB0CF1E0CF1AD108C9F60F5F1F4F83E0D2
:1016D000E80EF11C0730110549F60E94CC098091F3
:1016E000200291E0B91217C0811110C086E08093EA
:1016F00020021C82CDB7DEB7EBE00C94612510927E
:101700002002AACF87FFC4CF895FC2CF81508093C8
:101710002002BC82EFCF90E00196B8010E94B32571
:10172000809320028C83E6CFEF92FF921F93CF939A
:10173000DF93EC0183E2E82E82E0F82E10E08C814A
:10174000970140915E0260915D02810F0E946405E5
:101750001C5D83E0E80EF11C1C3F89F70E94CC0958
:101760009A818C8190FF08C08F5F8C83DF91CF912D
:101770001F91FF90EF9008958150F7CF90915B02F9
:1017800090FF0CC0E3E2F2E08183608342833396F2
:1017900092E0E833F907C1F70E94CC090895A3E06D
:1017A000B0E0E5EDFBE00C944C258C018091220229
:1017B00081110AC09E012F5F3F4F4DE26FEF0E94E3
:1017C00064058A8180932202F8016481613069F0A6
:1017D0008091220240E0662361F040E0623011F423
:1017E0004091220280E060E004C06091220240E06B
:1017F00080E00E94BE0BF801848190E0019663E0D6
:1018000070E00E94B32584832396E4E00C9468255D
:10181000A3E0B0E0EEE0FCE00C944E2590915B027A
:1018200090FF0AC09E012F5F3F4F0E9464054B81CD
:1018300069818A810E94BE0B2396E2E00C946A259E
:10184000CF93DF93EC01EBE5F2E0438162818C8181
:101850000E94080C8C818F5F8C83DF91CF9108955B
:10186000CF93DF93EC01EC81F0E0EA5BFC4F449115
:10187000EBE5F2E0628181810E94080C8C818F5F30
:101880008C83DF91CF910895EBE5F2E080818E7F2C
:1018900080830E944705EDE1F2E0828181608283CE
:1018A0000E94CC090895B0E0A0E0E9E5FCE00C94CA
:1018B00046257C015B016A018091EB0101E010E0AB
:1018C0008A3010F40AE010E0C1E0D0E0B501C701B1
:1018D000F6010995811104C021960C171D072CF4FF
:1018E000CDB7DEB7EAE00C946225CC9F9001CD9F86
:1018F000300D300D112490E080E045E34A95F1F77A
:101900000000019682179307C1F7E0CF8091C101D3
:10191000811110C08091D80080618093D8008AE145
:101920008A95F1F700C08091D90080FF0AC081E05C
:101930008093C10181E09091C101913009F080E074
:10194000089582E08093C1010E94180310928102E1
:10195000F1CF0E94860C882359F0E0916402F09147
:101960006502309729F00190F081E02D09950895E6
:1019700080E008950F931F930E94860C882329F01E
:101980000E9454041F910F9108950E9454040091E5
:10199000EC011091ED012091EE013091EF01600F0B
:1019A000711F821F931FEECF0E94860C882319F0AF
:1019B0000E94600408950E94BA0CCB010895682F1C
:1019C00086E090E00E94B52608958091630280FF32
:1019D00008C08E7F809363020E94DF0C80E00E942B
:1019E000860408958091630280FD13C08160809316
:1019F0006302813019F489E080936302809163026D
:101A00000E94DF0C809163028695869586950E94E0
:101A100086040895B0E0A0E0E0E1FDE00C944025EC
:101A2000FC016280448081E08483E6E4F3E074900A
:101A3000E5ECF3E0E49100915E020695015810E0B8
:101A4000000F111F012F1127C8E3D2E023E2C22E9D
:101A500022E0D22E3BE5832E32E0932EAA24AA94D4
:101A6000B12C55245A94E719EE2EF12C82E08615FC
:101A700030F080915C02888380915D0289834110FF
:101A800016C01B821A8296014A81698188810E9450
:101A90006405259683E0C80ED11C8C169D0631F78F
:101AA0000E94CC09CDB7DEB7E0E10C945C258B81B8
:101AB0008823E9F081508B83859DC00111246C81BE
:101AC00070E00E949F25FB01FF27EA5BFC4F849199
:101AD000E82FE719E59DC0011124B7010E949F2559
:101AE00080915E02689FB00111247A83CCCF0E945E
:101AF0005E26B5010E94B3258017910724F682E087
:101B0000861588F40E945E26B5010E94B32588835D
:101B10000E945E2620915D022695622F70E00E9451
:101B2000B325280F29831A8280915E02893C20F018
:101B300088EC8C838B83A7CF8431D8F784E1F9CFED
:101B400060915B02669570E04BE050E085E391E0C8
:101B50000E946E26892B19F481E080931E020E9458
:101B6000D40C909318028093170280911F02846016
:101B700080931F020895B0E0A0E0E1ECFDE00C943A
:101B8000442549015A016B017C010E944E058401E4
:101B9000A4016A2D7B2D88E090E00E94C726940165
:101BA0004A2D5B2DB601C70100E20E94F725622F86
:101BB00084E290E00E94B526CDB7DEB7ECE00C944D
:101BC0006025A3E0B0E0E7EEFDE00C943F25F82EA1
:101BD000562EE42E422E90915B0290FF41C0209140
:101BE0005C02281308C080915D02861304C08091B6
:101BF0005E02841729F080911F02826080931F0289
:101C0000E92FE695AE2FB0E0A05BBE4F8C9180939C
:101C10001D029E7F923041F59E012F5F3F4F4E2D5A
:101C2000652D8F2D0E9464054B8169818A810E94F8
:101C3000BE0BF0925C0250925D02E0925E02442084
:101C400079F020915B0260915F02709160023F2DFC
:101C5000452D5E2D80916102909162020E94BB0D24
:101C60002396E1E10C945B25823019F4E0905E024A
:101C7000E0CF8630B1F18930A1F18931D1F6E95157
:101C80008E2F8170382EE695F0E0EF5BFC4FE491EB
:101C90000E2F10E083E2C82E82E0D82E98E3892E22
:101CA00092E0992EB12CA12C27E0622E712CC50157
:101CB000B3010E949F258F2D311011C0860F960110
:101CC0004E2D652D0E946405A00EB11E83E0C80E46
:101CD000D11C8C149D0459F70E94CC09AACF861BF5
:101CE000EECFF22EA6CFEBE5F2E0438124E0421BDB
:101CF00008F440E021E0628181810E94E10D0895B5
:101D0000EBE5F2E0438124E0420F08F44FEF21E0DD
:101D1000628181810E94E10D0895EBE5F2E062812C
:101D200021E1621B08F460E021E0438181810E948F
:101D3000E10D0895EBE5F2E0628121E1620F08F424
:101D40006FEF21E0438181810E94E10D0895EBE571
:101D5000F2E0818121E0438162818A500E94E10D9D
:101D60000895EBE5F2E0818121E043816281865FA5
:101D70000E94E10D089580915F02882319F081503F
:101D800080935F0220915B0230915C0240915D0282
:101D900050915E0260915F027091600280916102D9
:101DA000909162020E94BB0D089580915F02833082
:101DB00018F48F5F80935F0220915B0230915C0288
:101DC00040915D0250915E0260915F0270916002ED
:101DD00080916102909162020E94BB0D08959091E2
:101DE0005B0290FF39C09170811137C0926090936F
:101DF0005B0280911F02816080931F02662391F035
:101E000020915B0230915C0240915D0250915E0234
:101E100060915F0270916002809161029091620214
:101E20000E94BB0D60915B02669570E04BE050E054
:101E300085E391E00E946E26892BB1F00E94470550
:101E400081E080931A0220E040915E0260915D0281
:101E500080915C020E94E10D08958B3210F0946530
:101E6000C6CF880F982BC3CF0E94A00DE9CF8091D9
:101E70005B028695815009F48AE261E00E94EF0ED0
:101E8000089580915B0286958F5F8B3208F081E028
:101E900061E00E94EF0E089590915B0290FF08C0F0
:101EA0009695981728F0961718F40E94410F0895F8
:101EB00061E00E94EF0E0895EBE5F2E083E080839D
:101EC00011828FEF82838DE283831482ADE1B2E0D1
:101ED00012968C911297836012968C93758123E0F1
:101EE00030E04FEF5DE260E0868197810E94BB0D9C
:101EF00008954F925F926F927F928F929F92AF92CE
:101F0000BF92EF92FF920F931F93CF93DF937B01CA
:101F1000FB0140805180628073809FB7F89480906D
:101F2000670290906802A0906902B0906A029FBF19
:101F300084189508A608B708F4E68F169104A10442
:101F4000B10418F4C1E0442329F1C82F880FDD0B38
:101F5000FE0183E0EE0FFF1F8A95E1F7EC5FFE4F75
:101F60008181928186539E4F408150E0041715076E
:101F700008F4A801B9010E948826CE010E94C82455
:101F8000C82F882339F00E945404F70160837183BD
:101F9000828393838C2FDF91CF911F910F91FF90BC
:101FA000EF90BF90AF909F908F907F906F905F90D9
:101FB0004F900895ABE0B0E0E0EEFFE00C944C25CC
:101FC00088E0EBE5F2E0DE01119601900D928A9532
:101FD000E1F780911D0290911E02A0911F02898756
:101FE0009A87AB8741E08B85811101C040E00BE00F
:101FF00010E09E012F5F3F4F67EE71E084E00E948A
:10200000790F811110921F022B96E4E00C94682541
:10201000A1E0B0E0EEE0F0E10C944C258091630289
:1020200080FF18C0869586958695898341E09091BA
:10203000D301981301C040E001E010E09E012F5F42
:102040003F4F63EE71E083E00E94790F2196E4E058
:102050000C94682580E0E9CFA4E0B0E0E2E3F0E191
:102060000C944D254091DF015091E0016091E10118
:102070007091E2012FB7F894809167029091680205
:10208000A0916902B0916A022FBF841B950BA60B29
:10209000B70B11E084369105A105B10570F10E94DE
:1020A000BA0C6E5F7F4F8F4F9F4F69837A838B830C
:1020B0009C83809115019091160186539E4F40910B
:1020C000140150E04530510510F044E050E0BE01ED
:1020D0006F5F7F4F0E94882682E090E00E94C824B4
:1020E000182F882351F00E9454046093DF017093ED
:1020F000E0018093E1019093E201812F2496E3E0D7
:102100000C946925EF92FF921F93CF93DF9300D039
:1021100000D00F92CDB7DEB77B0190E080E00E9447
:10212000C824182F882309F46DC04091070150E09E
:102130004115510511F041E050E0609108017091A6
:10214000090166537E4FCE0105960E948826409174
:10215000C6015091C7016091C8017091C9012FB7A4
:10216000F8948091670290916802A0916902B09101
:102170006A022FBF841B950BA60BB70B8436910503
:10218000A105B10538F48BEC91E00E94CF029D814E
:102190008917C1F181E090E00E94C824882309F4E6
:1021A00058C040910F0150E04530510510F044E017
:1021B00050E0609110017091110166537E4FCE0185
:1021C00001960E9488268BEC91E00E94CF029D81AF
:1021D00089133FC00E9454046093C6017093C701E5
:1021E0008093C8019093C90189819A81AB81BC8198
:1021F0008093C2019093C301A093C401B093C50121
:1022000011E00EC08091CB019091CC01A091CD0145
:10221000B091CE0189839A83AB83BC831111E4CF43
:102220008091C2019091C301A091C401B091C501F8
:10223000F70180839183A283B383812F0F900F9046
:102240000F900F900F90DF91CF911F91FF90EF9023
:10225000089510E0E5CFA3E1B0E0E1E3F1E10C94F3
:1022600043258E01045F1F4F88E0D8011D928A9597
:10227000E9F786E4C82E81E0D82EF12CE12CAA24BF
:10228000A394B12C20E5822E21E0922EF6018191BB
:102290006F018F3F09F442C0F894E82FE295EF7088
:1022A000F0E021A18F70A50102C0440F551F8A954F
:1022B000E2F7CA01922F982B91A392A180958923CE
:1022C00082A3789400C0EAE4F1E0712C31E021911E
:1022D0002F3F09F46BC0A22FA295AF70B0E090968B
:1022E0008C9190E02F7002C0959587952A95E2F722
:1022F00080FD5CC0832F782A330F8E169F0639F736
:10230000F601319780818F3F11F00E94FF0550EA5E
:102310005A95F1F7F801EE0DFF1D70828FEFE81A64
:10232000F80AA4E0EA16F10409F0B0CF48E050E062
:10233000B80180EF91E00E947B26009741F028E0F1
:10234000F801A0EFB1E001900D922A95E1F700911C
:10235000F901892B69F181E08093B9010E94600441
:102360009093B8018093B7018091B7019091B80123
:102370000E944504059700F110E00E5F1D4F44E0F8
:1023800050E060EF71E0C8010E947B26B12C892BE0
:1023900051F084E0E0EFF1E0D80101900D928A95D0
:1023A000E1F7BB24B3941092B90107C080E0A3CF3A
:1023B0008091B9018111D8CFB12C0E94860CA82E32
:1023C000E091F901882309F489C019821A821B82DD
:1023D0001C820E2F10E00E5F1D4F8091EB018A30A2
:1023E00008F046C042E850E1BE016F5F7F4FC80170
:1023F0000E94530C882309F460C04CE250E1BE01F6
:102400006F5F7F4FC8010E94530C882309F455C0A9
:1024100048E050E1BE016F5F7F4FC8010E94530C3E
:10242000882309F44AC04AED5FE0BE016F5F7F4F29
:10243000C8010E94530C882309F43FC01092EB019D
:102440008091F80190E044E050E0BE016F5F7F4F63
:102450008E5F9D4F0E947B2621E02093C001892B37
:10246000F1F4A12C8A2D8B296396EDE00C945F2565
:102470008091BA019091BB010E944504843F914034
:1024800008F0B0CF8091C001882359F384E0FE01A9
:102490003196DF011D928A95E9F71092C001E09113
:1024A000F801F0E0EE5FFD4F89819A81AB81BC813C
:1024B00080839183A283B383D5CF8091EB018F3F3B
:1024C00031F08F5F8093EB018A3008F4B9CF0E941E
:1024D00060049093BB018093BA01D4CFF0E0EE5F2B
:1024E000FD4F84E0ABECB1E001900D928A95E1F7ED
:1024F0008BEC91E00E94CF028093CA01C090CF0183
:10250000D090D001E090D101F090D2018091BC0137
:102510009091BD01A091BE01B091BF01C816D9062E
:10252000EA06FB06D1F0C092BC01D092BD01E09258
:10253000BE01F092BF010E94860C81110EC00E9464
:102540005404C61AD70AE80AF90AC092EC01D092DC
:10255000ED01E092EE01F092EF018091D3010E9433
:1025600027058BE0E4EDF1E0DE01119601900D927C
:102570008A95E1F79981892F8695FA80EB80DC8036
:102580000A851B851092DE01112309F46BCF10FF21
:102590000AC090FF1CC090915B02916090935B0217
:1025A00060E00E94EF0E11FF06C020E04D2D6E2D61
:1025B0008F2D0E94E10D12FF04C0002359F00E94EC
:1025C000A00D13FF4FCF81E080931A024BCF0E94E2
:1025D000440CE9CF0E944705F4CF8091B20190915D
:1025E000B101892B80937E019091B001992391F0E4
:1025F000892B80937E0120E080E891E0FC013191FD
:10260000CF0131112F5FF1E086389F07B9F7211113
:102610001092B00148E050E068EA71E08EE791E086
:102620000E947B26892BA9F088E0EEE7F1E0A8EA7A
:10263000B1E001900D928A95E1F7E0916402F0918A
:102640006502309731F00280F381E02D8EE791E052
:10265000099508951092B201E0E8F1E086E0DF010B
:102660001D928A95E9F71092B1010E94ED1208952A
:10267000AAE2B0E0EEE3F3E10C944D2589E792E0A5
:102680002091F100FC012193CF01F2E081389F07F6
:10269000B9F780917A02833009F470C0B8F48130C0
:1026A00009F447C0823009F4B1C08091E80083FF8B
:1026B00064C28091790290917A029A3008F05DC2EA
:1026C000E92FF0E0E25BF84D0C94C7258A3009F45D
:1026D0008CC08B3009F46FC0893039F78091790252
:1026E000813219F780917D0290917E02892BE9F663
:1026F0008091E800877F8093E8008091E80082FF66
:1027000038C09091F3008091F200029731F48091EB
:10271000F100813011F0863021F48091F100809336
:102720006D028091E8008B778093E8000E94C203DD
:10273000BCCF80917902813A09F0B7CF8091E8004F
:10274000877F8093E80080917D0290917E02892BA3
:1027500061F468E08EE692E070E00E94E10380910F
:10276000E8008B778093E800A0CF60E090E080E005
:10277000F3CF809181028111C0CF97CF80917902F0
:10278000813A09F092CF80917D0290917E02892B4F
:1027900009F08BCF8091E800877F8093E8008091DB
:1027A000E80080FFFCCF809143018093F10080918D
:1027B000E8008E77B9CF80917902813209F075CF28
:1027C00080917D0290917E02892B09F06ECF8091DD
:1027D000E800877F8093E8000E94C20380917B021B
:1027E000809343010E942A1360CF80917902813245
:1027F00009F05BCF8091E800877F8093E8000E941A
:10280000C20380917C0280936C024FCF8091790249
:10281000813A09F04ACF8091E800877F8093E800F1
:102820008091E80080FFFCCF80916C02BECF8038A1
:1028300099F0823809F0A1C180917D028F708730B4
:1028400008F09BC18093E9008091EB0085FB88270D
:1028500080F91092E90006C080917602909177028B
:10286000911182609091E800977F9093E8008093A7
:10287000F1001092F1008091E8008E777AC18823F0
:1028800009F468C1823009F078C180917B0281111E
:102890006BC180917D028F702FEF280F263008F0DA
:1028A0006CC18093E9002091EB0020FF5DC1933063
:1028B00031F48091EB0080628093EB0055C19091E0
:1028C000EB0090619093EB0021E030E001C0220F1B
:1028D0008A95EAF72093EA001092EA008091EB00D3
:1028E0008860EACF811149C110917B021F778091E6
:1028F000E3008078812B8093E3008091E800877F5C
:102900008093E8000E94C2038091E80080FFFCCF22
:102910008091E30080688093E30082E0111183E0FE
:10292000809381022AC18058823008F026C18091AC
:102930007B0290917C028C3D23E09207A1F583E01D
:102940008A838AE289834FB7F894DE01139620E0E8
:102950003EE051E2E32FF0E050935700E49120FF76
:1029600003C0E295EF703F5FEF708E2F90E0EA308A
:10297000C0F0C7968D939D932F5F243159F74FBFB9
:102980008091E800877F8093E8006AE270E0CE01E2
:1029900001960E94E1038091E8008B778093E80024
:1029A000ECC0C096E7CF40917D0250917E02292F66
:1029B00033272330310509F43FC078F52130310544
:1029C00009F466C082E290E0EAE8F4E022303105E2
:1029D00009F0D3C02091E800277F2093E8002091E0
:1029E0007F02309180028217930708F49C0140E037
:1029F0002115310509F051C041114FC08091E80007
:102A000082FDC9CF80918102882329F2853019F295
:102A10008091E80083FFF2CFBECF2132310581F1F2
:102A20002232310509F0A9C0452B09F0A6C084E483
:102A300090E0E6E4F4E0CECF992781309105C1F033
:102A4000009759F0029709F098C0EEEBF4E0E4919A
:102A50008E2F90E0EEEBF4E007C0E8EEF4E0E491B6
:102A60008E2F90E0E8EEF4E0009709F0B3CF85C038
:102A7000EAECF4E0E4918E2F90E0EAECF4E0F4CF9D
:102A8000452B09F07AC089E090E0ECE9F4E0A2CFB0
:102A900082E190E0ECEAF4E09DCF8091810288230E
:102AA00009F479CF853009F476CF8091E80083FD71
:102AB00072CF8091E80082FDA1CF8091E80080FF75
:102AC00097CF9091F3008091F2002115310519F014
:102AD0008830910550F041E0089709F040E080917E
:102AE000E8008E778093E80083CF44914093F10013
:102AF0003196215031090196E8CF8038F1F5809167
:102B0000E800877F8093E800809178028093F1004D
:102B1000B2CE811132C010917B02123070F58091DB
:102B2000E800877F8093E800109378020E94C20338
:102B3000112311F084E005C08091E30087FDFACFF6
:102B400081E08093810261EC81E00E94E602809145
:102B5000810213C080917B02813079F481E093304F
:102B600009F080E0809377021092E9008091E800FC
:102B7000877F8093E8000E94C2038091E80083FF72
:102B80000AC08091E800877F8093E8008091EB0085
:102B900080628093EB00AA96E3E00C9469250E9482
:102BA0002A132FEF84E39CE0215080409040E1F70E
:102BB00000C0000088E19CE00FB6F894A8958093CF
:102BC00060000FBE90936000FFCF882321F00E9429
:102BD00024080E94ED120895882339F09091B201E3
:102BE000982B9093B2010E94ED120895882391F0E2
:102BF0009CEF980F913A78F4E0E8F1E09191891315
:102C000003C0DF0111971C9291E0E638F907B1F794
:102C10000E94ED12089590E2980F9830D8F78770CF
:102C200091E001C0990F8A95EAF7892F0E94240844
:102C3000EFCFCF93C82F8823A9F08CEF8C0F813A68
:102C400000F5E0E8F1E0DF018D91C81769F081E05F
:102C5000A638B807C9F76C2F8EE791E00E946C0484
:102C60000E94ED12CF9108958191C81303C0DF0136
:102C700011971C9281E0E638F807B1F70E94ED1237
:102C8000EACF80E28C0F883068F7C77021E030E02F
:102C900001C0220FCA95EAF78091B201822B80937E
:102CA000B201DECF0F931F93CF93DF93C62FD42FA4
:102CB000022FFC0185818823A9F06093BE020E9447
:102CC00060049093BD028093BC02C77081E001C094
:102CD000880FCA95EAF70E94EC15DF91CF911F91FA
:102CE0000F9108958091BE02681335C08091BC0297
:102CF0009091BD020E944504883C910560F510E268
:102D00001D0FCD17B9F080E28C0F883040F4C770EA
:102D100081E001C0880FCA95EAF70E94E5151830D6
:102D200048F481E09D2F977001C0880F9A95EAF7CB
:102D30000E94EC15802F0E941916802F0E94F61514
:102D4000183058F6D77081E001C0880FDA95EAF79D
:102D50000E94E515C2CFC77081E001C0880FCA95F7
:102D6000EAF7F6CFA8E0B0E0E8EBF6E10C944E25E8
:102D700066EE7EEF90E080E00E94D32660E082E085
:102D800090E00E94B52660E083E090E00E94B526C6
:102D90001092B4011092B30160E074E184E090E01D
:102DA0000E94D32660E086E090E00E94B5266FEF97
:102DB00087E090E00E94B52640E050E0BA0188E04C
:102DC00090E00E94C72660E084E290E00E94B52671
:102DD00060E087E190E00E94B52660E08CE090E042
:102DE0000E94B52660E08DE090E00E94B526198231
:102DF0001A821B821C821D821E821F82188648E056
:102E000050E068E170E0CE0101960E94A52640E006
:102E100050E0BA0180E290E00E94C72640E050E016
:102E2000BA018FE090E00E94C72640E050E0BA016E
:102E300083E190E00E94C7262896E2E00C946A2580
:102E400090E080E00E949F26863E9E4F51F00E94B7
:102E5000B2168091630284708962809363020E943B
:102E6000DF0C86E090E00E9491268093630280331D
:102E700020F0877088628093630290916302892FAB
:102E8000817090FF04C0892F8695869586950E9453
:102E9000860408959091FD0192FB222720F92817BE
:102EA00079F080FB92F99093FD016091FC017091A3
:102EB000FD0184E090E00E94D32682E00E94F608A3
:102EC0000895B0E0A0E0E7E6F7E10C9446258C0118
:102ED000FC018481882309F45DC021E04081518197
:102EE0006281738195810E944509EC01F801858119
:102EF000882309F4DAC4C230F8E7DF0709F481C097
:102F0000A0F4C11538E7D30779F1C13088E7D807B5
:102F100009F445C0FE01E851FC47E730F10508F02F
:102F20009BC0E85AF84D0C94C725C43098E7D907E0
:102F300009F453C0B0F1C530F8E7DF0759F79091B5
:102F40006302892F8695869586958F5F8F7197701E
:102F5000863008F060C0880F880F880F892B809317
:102F600063028091630225C085E00E94270580915D
:102F700063020E94DF0C8091A701877059F0F8016D
:102F80008581882339F08091FD0182FF03C082E0B2
:102F90000E94F608CDB7DEB7EAE00C94622580E027
:102FA000E4CF80916302982F987F79F088508093C6
:102FB0006302887F91E009F490E08091630290FBC6
:102FC00080F9809363020E94DF0C809163028695F2
:102FD000869586950E948604CECF80916302982FB5
:102FE000969596959695953040F49F5F990F990F19
:102FF000990F8770892B80936302809163028160AF
:10300000E0CF8091630280FF03C00E94E50CB3CF44
:103010000E94F20CB0CF90936302A3CF26E241EE60
:1030200061EEC8010E945216A6CF27E245EE65EE7A
:10303000F8CF26E241EE60EEF4CF27E245EE64EEF3
:10304000F0CF26E241EE62EEECCF27E245EE66EEEF
:10305000E8CF28E241E0EBCF1092BE02CE019057BC
:10306000839708F0ECC384E090E00E949F26909341
:10307000FD018093FC01FE01E150F047E232F105D1
:1030800020F4E15AF84D0C94C7258091FC01816031
:103090008093FC0195C08091FD0188608093FD01C3
:1030A0008FC08091FC018260F3CF8091FC0184602D
:1030B000EFCF8091FC018860EBCF8091FD018160B2
:1030C000EDCF8091FD018260E9CF8091FC018061AC
:1030D000DFCF8091FC018062DBCF8091FC018064B6
:1030E000D7CF0E942A138091FC018068D1CF8091B4
:1030F000FC018C60CDCF8091FD018360CFCF8091AA
:10310000FC018E7FC5CF8091FD01877FC7CF809165
:10311000FC018D7FBDCF8091FC018B7FB9CF809169
:10312000FC01877FB5CF8091FD018E7FB7CF809165
:10313000FD018D7FB3CF8091FC018F7EA9CF80915F
:10314000FC018F7DA5CF8091FC018F7BA1CF0E94D8
:103150002A138091FC018F779BCF8091FC01837FA4
:1031600097CF8091FD018C7F99CF8091FC0182FBEC
:10317000992790F921E0922790FB82F990FB83F93F
:1031800087CF8091FD01982F909591708E7F892B2C
:1031900090FB81F983CF9091FC01892F8F7B96FF63
:1031A000806476CF0E942A139091FC01892F97FBAF
:1031B00087F980586DCF61E08EE090E00E94B526DF
:1031C0006091FC017091FD0184E090E00E94D326A3
:1031D0000E942A13D0CE60E0EFCF9091FC01892F9E
:1031E0008F7E94FF806154CF9091FC01892F8E7F58
:1031F00090FF81604DCF9091FD01892F877F93FFD4
:1032000088604CCF8091860181110FC089E2E0E88F
:10321000F1E026E831E09191891303C0DF011197B5
:103220001C922E173F07B9F71DC385E3F0CF80919D
:103230005B0280FF1EC0282F2E7F20935B023091FF
:103240005C0240915D0250915E0260915F0270915C
:10325000600280916102909162020E94BB0D0E9407
:10326000470580911F02816080931F020E94CC0954
:1032700082CE816080935B0261E086950E94EF0EB2
:103280007ACE47E35FE061E47FE00E94410573CEC0
:1032900041E45FE067E37FE0F8CF47EA5EE061EB9F
:1032A0007EE0F3CF41EB5EE067EA7EE0EECF4DE8F3
:1032B0005EE06AE97EE0E9CF4AE95EE06DE87EE043
:1032C000E4CF43E75EE060E87EE0DFCF40E85EE029
:1032D00063E77EE0DACF4BEB5EE065ED7EE0D5CFD5
:1032E00045ED5EE06BEB7EE0D0CF61E081E0C6CFE4
:1032F00065E082E00E944C0F3ECE68E086E0FACFA7
:103300006EE089E0F7CF64E18FE0F4CF67E185E11B
:10331000F1CF61E088E1B2CF62E289E1EBCF61E019
:1033200083E2ACCF6AE285E2E5CF0E942A132FEF59
:1033300034E38CE0215030408040E1F700C00000D1
:1033400081E08093E00080E28093D8001092C90071
:10335000EFE1FEE43197F1F700C0000087E090EB69
:10336000DC018093BF029093C002A093C102B0938E
:10337000C20288E19CE00FB6F894A89580936000A3
:103380000FBE90936000FFCF6FEF7FEF90E080E083
:103390000E94D3260E94CF158091FD0182FB8827D1
:1033A00080F991E089270E944A17F8018581C08140
:1033B000D181882309F449C0CE010E943508F82E36
:1033C000682FCE010E94A908BE018F2D0E94070719
:1033D0000E942607D82EC92FA82EF801C580B680D6
:1033E000B2943FE0B3228091A7018770E9F0DC2D11
:1033F000CC20D9F0892F807F803451F080E28D0D70
:10340000883090F0B11004C0892F807E803261F046
:103410008091FD0182FF08C082E00E94F608809141
:10342000A7018770D1E009F0D0E0FC2EF2942FE0E4
:10343000F222FBE0FF1508F46EC0EF2DF0E0EF572D
:10344000F84D0C94C72580E0AECFCE010E947608DF
:10345000F82EBACF2C2F2F70E22EC07F19F0E294F5
:1034600090EFE922CC20B9F0EE2069F080E28D0DDA
:10347000883010F0A11009C08091B201E82AE092D2
:10348000B2010E94ED128D2D44C08091B101E82A55
:10349000E092B101F6CF8D2D0E94F615EE20D9F104
:1034A00080E28D0D883010F0A11004C08E2D0E9496
:1034B000240806C0E0948091B101E822E092B101B5
:1034C0000E94ED1228C03C2F3F70E32EC07FC03217
:1034D00019F0E29480EFE822AA2059F081E0A816C2
:1034E00009F47BC0CC2009F487C0BB2009F449C093
:1034F000CACF8091FD0182FD40C0CC20C1F1EE20F9
:1035000039F08091B201E82AE092B2010E94ED12F6
:1035100080E00E9419162F2D2850330B24303105DE
:1035200020F40E94A90C0E946A09DD23A9F0809171
:10353000A70180FD11C0F8011582869586958695B4
:103540000E940D09C8010E9461178091A70186950C
:10355000869586950E94E40820E0F801408151811B
:1035600062817381848195810E94450913CD80E039
:103570000E94F615EE2079F299CFCC20A1F0B1107F
:1035800004C08E2D0E94EC15C6CF91E0B912C3CFB6
:103590008091B0019E2D9823E91609F4BCCFE82A4A
:1035A000E092B001B8CFB110B6CF8E2D0E94E515D4
:1035B0009091B0018E2D892329F08E2D809589233D
:1035C0008093B001809187019E2D982309F4A3CFA9
:1035D000E094E822E09287019ECFCC2029F0E5E03C
:1035E000EB1508F498CFCDCFF4E0FB1508F493CF9A
:1035F0008E2D0E94E5158FCFBB20D1F329E3A212B7
:1036000009C03FEF87EE93E0315080409040E1F7F2
:1036100000C000008D2D0E94F6157DCF8C2F837089
:1036200009F03FC0C11077CF4D2D429546954770A8
:10363000440F440F2D2D2F7030E0042E02C0220FB6
:10364000331F0A94E2F790E080E0D4FE09C08FE0D7
:1036500090E002C0880F991F4A95E2F780959095F7
:10366000C695C695C370C23099F078F44091B30105
:103670005091B401C13039F0822B932B84239523D0
:103680000E941D0948CF242B352B822B932BF8CF7A
:10369000822B932B2091B3013091B4018227932781
:1036A000EFCF8695CC2011F08C2F8170882309F400
:1036B00032CF4D2D429546954770440F440F2D2D26
:1036C0002F7030E0042E02C0220F331F0A94E2F75D
:1036D00090E080E0D4FE09C08FE090E002C0880F47
:1036E000991F4A95E2F780959095C695C695C37047
:1036F000C23099F078F44091FA015091FB01C13049
:1037000039F0822B932B842395230E94DF0803CF6B
:10371000242B352B822B932BF8CF822B932B2091AC
:10372000FA013091FB0182279327EFCFCF70CC2095
:1037300029F08C2F0E940D098D2D24CF8D2D0E94F4
:10374000E5158C2F0E94E408E6CE8D2DE2EFAE1633
:1037500099F1EA1570F0F0EFAF16D1F021EFA21653
:1037600091F0CC2009F45BC0B1108DCE8C2F8F71FD
:1037700027C033EFA31639F194EFA912F2CF80914D
:10378000FD0182FD2EC08C2F8F71CC20D9F218C084
:10379000CC2069F0E4E0EB1508F4BDCECF7181E0F8
:1037A00090E002C0880F991FCA95E2F7B8CFF5E004
:1037B000FB1508F4B0CEF2CF8C2F8F71C110C2CFA1
:1037C0000E940D09A8CE90E080E0CC2009F49DCFA6
:1037D000CF7181E090E002C0880F991FCA95E2F78F
:1037E00094CFCC2089F0CF718C2F0E940D0980914D
:1037F000FD0182FF07C028E0C29FC0011124836041
:103800008093A7018C2FDCCF81E00E94F60831E085
:103810003B1508F080CE82E00E94F6087CCEBB20EB
:1038200059F0893309F0F6CE8FEF97EEE3E081503F
:103830009040E040E1F7ECCE8C2F8F7183CFC63102
:10384000FCE7DF0791F48091B2018A7A91E009F4F4
:1038500090E09093860169E2811165E38EE791E043
:103860000E946C040E94ED1286CBC3303CE7D30764
:1038700009F48ACD50F4C1159CE7D90709F455CD58
:10388000C130DC4709F486CD90CDCB35FCE7DF07AE
:1038900009F4D9CDCC352CE7D20709F47DCDCA3552
:1038A000DC4709F082CD81E07ECDFE01E851FC4786
:1038B000E730F10508F435CBC6312CE7D20709F41F
:1038C000A1CC8091B2018272FE01E052F847E5314D
:1038D000F10508F06ACDE357F84D0C94C725CF9356
:1038E000DF938091A601807F09F04DC08091A501F2
:1038F000882309F448C0E091BB0250918202C09134
:10390000A101D091A0016091A2017091A30147E0B3
:103910005E17C9F18E2F90E0E49FF0011124ED575E
:10392000FD4F2481222391F1489FF001499FF00D22
:103930001124DF01AD57BD4F11962C9111972C1317
:1039400025C02C912D1322C015962C91159721116D
:103950001DC012962D913C91261B370B283C31053A
:10396000A8F48091A6018F7080618093A601E7572B
:10397000FD4F80818F708061808380EA91E00E949A
:1039800061170E942B08DF91CF910895FC013196B9
:10399000E770BECFA4E1B0E0E0EDFCE10C9444257B
:1039A0008C0186E0F801DE011F9601900D928A9548
:1039B000E1F7F8018481E58090EAA92E91E0B92E23
:1039C0009091A401911128C0882319F1EE20F1F003
:1039D000C8010E942209F82E8823C1F087E0F8016F
:1039E000D50101900D928A95E1F78091A401813073
:1039F00031F48091A0019091A1010E9469080E9478
:103A00006F1C8F2D6496ECE00C946025C8010E9419
:103A10006117FF24F394F5CFD080C180828093801A
:103A2000F090A5012091A2013091A301A401421BB5
:103A3000530BFF2009F4D9C0483C510508F092C04F
:103A40008823F9F29091A1018091A601282F207F6F
:103A500009F056C0C91214C09091A001D91210C02B
:103A6000E11048C08F7080618093A60180EA91E0E8
:103A70000E9461178091A601F8018683F12CC1CFC5
:103A8000E11038C06C2D8D2D0E94B0026C2D8D2D53
:103A90000E94B002E82E8111F1CFDF86C88A8F859F
:103AA00098890E946908292F22952F70243058F494
:103AB0009F70223088F0992399F0F8019681907FC9
:103AC00079F4FE2C9ECF2A5F2F70223068F0C80157
:103AD0000E946117EF2CF5CF992311F0882389F309
:103AE000805E883070F3F3CF803F58F3815F83307E
:103AF00070F7E7CF8091A60181608093A601BECFC9
:103B0000C91207C09091A001D91203C0EE2009F498
:103B10008DC0C8010E942209882309F477CFEE20C6
:103B200009F474CF8091A601803288F02091A00121
:103B30003091A101398728879B868A869091A401BC
:103B40009C871D868E87CE0108960E94611787E0AC
:103B5000F801A0EAB1E001900D928A95E1F70E9488
:103B60006F1C57CF9091A601292F207F51F480EA36
:103B700091E00E94611787E0F50111928A95E9F7BB
:103B80007DCF882309F43DCF8091A1018C1110C015
:103B90008091A001D8120CC0E1100AC09683C80120
:103BA0000E94611787E0F50111928A95E9F729CF04
:103BB000C8010E942209882309F428CFEE2009F4C5
:103BC00025CF8091A601803210F22091A001309182
:103BD000A1013A8329839C828B829091A4019D83C9
:103BE0001E828F83CE010196B0CF483C5105D0F69E
:103BF000882309F40ECFFE2CEE2009F407CF809124
:103C0000A1018C1120C08091A001D8121CC080910C
:103C1000A60180FD0FC0982F907F61F08683903FB2
:103C200031F0982F907F905F8F70892B8683C80129
:103C30000E94611787E0F801A0EAB1E001900D92BF
:103C40008A95E1F7DECEC8010E94220981117FCF5B
:103C50008091A60181608093A601C8010E9461172E
:103C6000D0CEABE1B0E0E7E3FEE10C944C254E8B07
:103C70005F8B688F798F8A8F9B8F192F911110928C
:103C8000B1011D8A86E0FE017696DE011F96019045
:103C90000D928A95E1F70A8D002341F021E04F85CE
:103CA000588969897A89C8010E9445090B8B1C8B48
:103CB00087E0FE013F96DE01189601900D928A95ED
:103CC000E1F7CE0108960E94CA1C81112AC087E044
:103CD000FE013896DE01119601900D928A95E1F76A
:103CE0008C858823F1F02091820230E0C901019691
:103CF000877099274091BB0248171906E9F097E0B1
:103D0000929FD001939FB00D1124AD57BD4FFE017E
:103D1000319601900D929A95E1F7809382020E946C
:103D20002B0817E08091BB0290918202891312C088
:103D30006B96E4E00C9468250E942A13109282028C
:103D40001092BB0287E0E0EAF1E0DF011D928A9564
:103D5000E9F7E7CF819FC00111248D579D4F0E9445
:103D6000CA1C882329F38091BB0290E001968770DA
:103D700099278093BB02D6CFA6E0B0E0E2ECFEE14B
:103D80000C944C250E9460048C018091B5019091A7
:103D9000B6018017910781F019821A820E9460048F
:103DA000682F49815A81792F80E090E00E94311E6E
:103DB0001093B6010093B5012696E4E00C946825B3
:103DC0001F920F920FB60F9211242F933F934F9390
:103DD0005F936F937F938F939F93AF93BF93CF9393
:103DE000DF93EF93FF93D091E900DF708091EC00B7
:103DF000C82FC17080FDC0E81092E9008091F000EA
:103E0000877F8093F00078940E9438131092E90025
:103E10008091F00088608093F000CD2BCF70C0932C
:103E2000E900FF91EF91DF91CF91BF91AF919F9109
:103E30008F917F916F915F914F913F912F910F9053
:103E40000FBE0F901F9018951F920F920FB60F92F2
:103E500011242F933F934F935F936F937F938F938F
:103E60009F93AF93BF93EF93FF938091E10082FF05
:103E700009C08091E20082FF05C08091E1008B7F44
:103E80008093E1008091DA0080FF24C08091D80007
:103E900080FF20C08091DA008E7F8093DA008091CD
:103EA000D90080FF9CC080E189BD82E189BD09B451
:103EB00000FEFDCF81E08093810280916B02811131
:103EC00009C00E9418030E9437038091E2008460B9
:103ED0008093E2008091E10080FF17C08091E200B2
:103EE00080FF13C08091E2008E7F8093E20080917A
:103EF000E20080618093E2008091D800806280932C
:103F0000D80019BC85E0809381028091E10084FF94
:103F10002BC08091E20084FF27C080E189BD82E14F
:103F200089BD89B5982F917080FFFBCF8091D80013
:103F30008F7D8093D8008091E1008F7E8093E10097
:103F40008091E2008F7E8093E2008091E2008160A8
:103F50008093E20080917802882309F446C084E0CF
:103F600080938102809181028091E10083FF26C0CD
:103F70008091E20083FF22C08091E100877F8093DF
:103F8000E10082E080938102109278028091E1004A
:103F90008E7F8093E1008091E2008E7F8093E2002B
:103FA0008091E20080618093E20060E080E00E9406
:103FB000E6028091F00088608093F000FF91EF911D
:103FC000BF91AF919F918F917F916F915F914F9131
:103FD0003F912F910F900FBE0F901F90189519BC15
:103FE0001092810210926B0275CF8091E30087FDE1
:103FF00093E090938102B6CF78941F921FB61F92E0
:1040000011248F939F93AF93BF93809167029091F8
:104010006802A0916902B0916A020196A11DB11DCA
:104020008093670290936802A0936902B0936A023A
:10403000BF91AF919F918F911F901FBE1F901895B8
:104040001F921FB61F9211248F939F93AF93BF931C
:1040500080916602811113C080916702909168027D
:10406000A0916902B0916A024196A11DB11D809391
:10407000670290936802A0936902B0936A02BF91AD
:10408000AF919F918F911F901FBE1F90189500D0E8
:1040900000D000D0CDB7DEB785B7806885BF85B7C3
:1040A000806885BF84B7877F84BF0FB6F894A895D2
:1040B00080916000886180936000109260000FBE64
:1040C00080E890E00FB6F8948093610090936100CF
:1040D0000FBE8DEF95E090937D0180937C010E944F
:1040E00018030E9437038091E20084608093E2000D
:1040F0007894809181028823A1F01091E9001F70CB
:104100009091EC00892F817090FD80E8182B10921F
:10411000E9008091E80083FD0E9438131F7010931E
:10412000E90082E084BD93E095BD9AEF97BD80934E
:104130006E001092EC011092ED011092EE011092BF
:10414000EF016E9876988FE891E00197F1F700C043
:1041500000008CB186FB882780F980932C010E9497
:10416000860C81110E94DC2380912C0180912C010E
:1041700094E0811190E09093F90184E0891B809391
:10418000F80184EF0E94FF0585EF0E94FF0581E39F
:104190000E94FF0583E30E94FF050AE411E080E529
:1041A000E82E81E0F82ED8018D918D018F3F11F01E
:1041B0000E94FF05E016F106B1F788E0E2E0F2E0C8
:1041C000DF01282F1D922A95E9F7E0EFF1E0DF01EA
:1041D0001D928A95E9F7579A5F9A259A2D9A269A01
:1041E0002E9A90E080E00E949F26863E9E4F11F01E
:1041F0000E94B21682E090E00E94912680930A020B
:1042000084E090E00E949F269093FD018093FC0142
:1042100083E090E00E94912690E00E941D093E9A62
:10422000469882E88093900089E1809391008FEF17
:104230009FEF90939700809396000E9420170E9412
:1042400020178091FE0181117BC090E080E00E94E8
:104250009F26863E9E4F21F00E94B2160E945C0F60
:1042600088E090E00E9499264B015C0184E290E096
:104270000E949126282F30E040E050E060E070E09E
:1042800080E090E000E20E94DC25282939294A29B3
:104290005B2920935B0230935C0240935D02509354
:1042A0005E0260935F02709360028093610290935C
:1042B000620280911F02836080931F022E7F89F526
:1042C0000E945C0F88E090E00E9499266B017C01BF
:1042D00084E290E00E949126282F30E040E050E0F8
:1042E00060E070E080E090E00E94DC25B22FA32F18
:1042F000F42FE52F5B0197018601BC29A12BFE2934
:10430000E32BB0935B02A0935C02F0935D02E09319
:104310005E0260935F02B0926002809361029093AC
:1043200062020E944E050E94470580915B0280FF59
:1043300004C060E086950E94EF0E81E08093FE014C
:104340000E94860C811102C00E94DF238DE291E061
:104350009093650280936402B8E1AB2EB12C10E417
:10436000C12E7724739466246394DD24D3948091C2
:10437000810200E112E1853009F49DC00E942B11F9
:104380000BE012E0A2E0EA2EA2E0FA2ED701F8013B
:1043900091918D9142E0E331F40709F4B4C098178C
:1043A000B9F30E94860C282E912CD7018D907D01A7
:1043B000F80131908F01381429F1512C4424439491
:1043C0003824832D8421B1F02220A1F059829A82D1
:1043D0000E9460049C838B836D8291E0842D8821F0
:1043E00009F490E09E8349815A816B817C818D81A3
:1043F0000E94311E5394440CF6E05F12E2CFF801A4
:1044000031978082939428E09212CFCF0E94BA0C09
:104410007EC080918102843009F43EC080916302A5
:1044200080FF04C00E94E50CD092010280E00E944F
:10443000270580E00E946A090E94470580910002DA
:10444000811109C0D092000280915B02817080933B
:10445000FF010E94440C109266020FB6F894A895D2
:10446000A09260000FBEC092600083B7817F84601D
:1044700083BF83B7816083BF7894889583B78E7F2D
:1044800083BF0FB6F894A8958091600088618093EF
:104490006000109260000FBE80917702882359F06F
:1044A0000E942B11E2E0F2E08191811116C122E01D
:1044B000EA30F207C9F780918102853009F4A9CF6B
:1044C0000E942A130E9420170E94A90C0E946A09C8
:1044D000109200028091FF01882349F080915B02D5
:1044E000816080935B0260E086950E94EF0E0E94DF
:1044F000A00D80910102882309F440CF0E94F20CA4
:10450000109201023BCF98134CCF0E94BC1E0E9418
:10451000860C80911E02882309F463C080911D02DD
:10452000E0915B02E695E81BE0931902823009F006
:1045300068C0F0E0E35CFD4FE4910E2F10E0F0E383
:10454000EF2EFCE0FF2E80911A02882361F010927A
:104550001A020E94D40C90931802809317021092B2
:104560001C0210921B020E94D40CE0911702F091E1
:1045700018029C012E1B3F0B2F3F3F4790F52091C7
:1045800015022223B1F010921502209113023091EE
:104590001402821B930B8F3F9F4758F4205D3A48CB
:1045A000309314022093130280911F02886080933D
:1045B0001F0280901B0290901C02E00FF11FF093ED
:1045C0001802E093170287E192E0F70109958091C4
:1045D0001B0290911C02892B21F4892811F0709202
:1045E00015020E94A90C182F80911602181709F4C1
:1045F000BECE109316020E945404812F0E946A09B5
:10460000B6CE863059F4F0E0E65CFD4FE4910E2F13
:1046100010E0E0E2EE2EECE0FE2E95CF893061F462
:10462000E695F0E0E95CFD4FE4910E2F10E074E9AF
:10463000E72E7BE0F72E87CF8F3061F4E695F0E030
:10464000EC5CFD4FE4910E2F10E065E1E62E6BE08F
:10465000F62E79CF853159F4F0E0EF5CFD4FE4910F
:104660000E2F10E053EBE52E5AE0F52E6CCF08E24A
:1046700010E028E3E22E2AE0F22E883109F463CF1D
:10468000833249F4EFE2F2E0059114914FECE42E0D
:104690004BE0F42E58CF04EF11E091E0E92E9AE0C0
:1046A000F92E843209F44FCF853281F48E2F63E0E6
:1046B0000E948525E92FF0E0E45DFD4FE4910E2F87
:1046C00010E03AE0E32E3DE0F32E3DCF00ED17E0A1
:1046D0008FE3E82E84E0F82E36CF09BD19BD09B46A
:1046E00000FEFDCF8091D8008F7D8093D80080910F
:1046F000E00082608093E0008091E00081FDFCCFCB
:104700000E942A13D8CE8EE1499B02C08150E1F766
:10471000499BFECF0895599880E28A95F1F7599AFE
:104720000895FC013BE03A95F1F798E020E080E045
:1047300031E040E14A95F1F7880F499B02C0816062
:10474000232742E04A95F1F7000040E14A95F1F74E
:10475000915079F790E19A95F1F799B132E03A9555
:10476000F1F7000040E14A95F1F796959170922794
:104770002081920F90830895A1E0B0E0E2ECF3E293
:104780000C944A2519828C017C01E60EF11C0E1551
:104790001F0541F481E09981911180E02196E6E0C6
:1047A0000C9466250E948323CE0101960E949123DA
:1047B000F80181938F01EBCF519A599A089551983E
:1047C000599AE99AE9E6F0E08081837F8083089531
:1047D0006150770B91E001C0990F6A95EAF720E0EC
:1047E00031E0911108C0222391F0599A80E28A9514
:1047F000F1F759980895492F482339F0599A2327FA
:1048000040E24A95F1F79695ECCF5998F9CF59982F
:10481000EDCFFF920F931F93CF93DF93EC018C01A9
:10482000060F111DC017D10729F4CDB7DEB7E5E09B
:104830000C946725F9900E948B2368E08F2D0E94CD
:10484000E823F0CF1F920F920FB60F9211240F930F
:104850001F932F933F934F935F936F937F938F9308
:104860009F93AF93BF93EF93FF93CF93DF930F92F9
:10487000CDB7DEB719820E948323CE0101960E9434
:104880009123082F069506950695282F22952570C9
:10489000902F9570290F922F937026952695920F41
:1048A000982797708981982B09F05CC0063008F032
:1048B00059C080E18A95F1F7599A519A82E08A9518
:1048C000F1F700C0599888E0089F80011124D801B1
:1048D000AC5FBE4F1696ED91FC9117973097A9F0FB
:1048E000609144017091450114962D913C9115976A
:1048F000260F371F11968D919C911297680F791F83
:1049000013964C9113978C910995F801EC5FFE4F2B
:104910006381662351F020914401309145018481E7
:104920009581820F931F0E9409240E948B2380E1AE
:104930008A95F1F759985198599A80E18A95F1F73B
:10494000F801EC5FFE4F6081662351F02091440135
:104950003091450181819281820F931F0E94BC2377
:104960000E9483230F90DF91CF91FF91EF91BF9130
:10497000AF919F918F917F916F915F914F913F91F7
:104980002F911F910F910F900FBE0F901F901895B0
:104990000F931F93CF93DF93EC0106970CF04CC05D
:1049A000F894519A599885E08A95F1F700009C2F68
:1049B000969595708C2F8570980F892F837096959A
:1049C000969523E0CC0FDD1F2A95E1F7980F8E0115
:1049D000092B0E948B2300C068E0802F0E94E823EF
:1049E00080E18A95F1F75198599A499B1EC087E05A
:1049F00090E049991CC0FE01EC5FFE4F6381662385
:104A0000F9F0209144013091450184819581820F14
:104A1000931F0E94BC23811113C0519A599A789414
:104A2000DF91CF911F910F91089500C0DECF0197C4
:104A300029F4519A599A789480E0F2CF00C0D9CFE6
:104A40000E94832380E28A95F1F75998519A80E178
:104A50008A95F1F7CC5FDE4F6881662351F0209193
:104A600044013091450189819A81820F931F0E94F0
:104A700009240E948B23789481E0D2CF2F923F9219
:104A80004F925F926F927F928F929F92AF92BF925E
:104A9000CF92DF92EF92FF920F931F93CF93DF930A
:104AA000CDB7DEB7CA1BDB0B0FB6F894DEBF0FBE67
:104AB000CDBF09942A88398848885F846E847D84B4
:104AC0008C849B84AA84B984C884DF80EE80FD80B6
:104AD0000C811B81AA81B981CE0FD11D0FB6F8942C
:104AE000DEBF0FBECDBFED010895DB018F939F9315
:104AF0000E940827BF91AF91A29F800D911DA39F97
:104B0000900DB29F900D11240895991B79E004C077
:104B1000991F961708F0961B881F7A95C9F78095FC
:104B2000089587FB082E062687FD819567FD619510
:104B30000E9485250EF4919507FC81950895AA1B86
:104B4000BB1B51E107C0AA1FBB1FA617B70710F078
:104B5000A61BB70B881F991F5A95A9F780959095AA
:104B6000BC01CD01089597FB072E16F4009407D0E1
:104B700077FD09D00E949F2507FC05D03EF4909553
:104B800081959F4F0895709561957F4F0895EE0F21
:104B9000FF1F0590F491E02D09940E943D273323D7
:104BA00012F48A1B9B0B0C94D7250E943D27B7FF5C
:104BB0000895821B930B0895002E083090F0982FD3
:104BC000872F762F652F542F432F322F22270850FF
:104BD000F4CF220F331F441F551F661F771F881FF6
:104BE000991F0A95B2F7002D089597FD1094002E95
:104BF000083098F00850232F342F452F562F672F59
:104C0000782F892F912DF4CF1594979587957795C7
:104C1000679557954795379527950A95AAF71124D3
:104C2000002D08958F929F92AF92BF92CF92DF9204
:104C3000EF92FF92CF93DF93EC01688179818A81B3
:104C40009B81611571058105910521F464E279ED7F
:104C50008BE597E02DE133EF41E050E00E94E9263B
:104C600049015A019B01AC01A7EAB1E40E9408275F
:104C70006B017C01ACEEB4EFA50194010E941627F4
:104C8000DC01CB018C0D9D1DAE1DBF1DB7FF03C008
:104C90000197A109B04888839983AA83BB839F7732
:104CA000DF91CF91FF90EF90DF90CF90BF90AF90CA
:104CB0009F908F9008950E941226089580E091E0C1
:104CC0000E9412260895B0E0A0E080930001909326
:104CD0000101A0930201B09303010895FC0141502A
:104CE000504030F001900616D1F73197CF0108956A
:104CF000882799270895FB01DC0104C08D9101905C
:104D0000801921F441505040C8F7881B990B089531
:104D1000FB01DC0102C001900D9241505040D8F7D8
:104D20000895F999FECF92BD81BDF89A992780B573
:104D30000895A6E1B0E044E050E00C94DB26A8E141
:104D4000B0E042E050E00C94DB26DC01A40FB51F7C
:104D50004150504048F0CB01840F951F2E910E9486
:104D6000B62641505040D0F70895262FF999FECF2E
:104D700092BD81BDF89A019700B4021639F01FBAAE
:104D800020BD0FB6F894FA9AF99A0FBE08950396CB
:104D9000272F0E94B6260E94B526252F0E94B626F0
:104DA000242F0C94B6260196272F0E94B6260C9429
:104DB000B526DC01CB01FC01F999FECF06C0F2BD9E
:104DC000E1BDF89A319600B40D9241505040B8F7C9
:104DD0000895052E97FB1EF400940E94002757FDAE
:104DE00007D00E941B2707FC03D04EF40C94002729
:104DF00050954095309521953F4F4F4F5F4F089507
:104E000090958095709561957F4F8F4F9F4F089536
:104E10000E943D27A59F900DB49F900DA49F800DEB
:104E2000911D11240895B7FF0C9408270E940827AC
:104E3000821B930B0895A1E21A2EAA1BBB1BFD0136
:104E40000DC0AA1FBB1FEE1FFF1FA217B307E40769
:104E5000F50720F0A21BB30BE40BF50B661F771FC1
:104E6000881F991F1A9469F76095709580959095A1
:104E70009B01AC01BD01CF010895A29FB001B39F7A
:104E8000C001A39F700D811D1124911DB29F700D53
:104E9000811D1124911D0895F894FFCF17143F141C
:104EA000BD153F14BD1572149314BD157D158915DC
:104EB00019181D180E1815182118251829187F18EB
:104EC000F4188718511855188B1859188F189B18F3
:104ED0006518ED1869189F186D18A318CB1871186C
:104EE000A718D2187718AD18B5185D18931861185F
:104EF00097187B18B118C118DB18EB184B188318DA
:104F0000FB182A1A2A1A631A631A8B1A8B1A8B1A1D
:104F10008B1A0E1B961BA51BA51B171941194819A7
:104F20004D19521957195C19611966196B197019C5
:104F3000751978197D1980198319861989198C19A1
:044F40008F1992191A
:104F44000100000000000001000000000000000457
:104F54000100000004050000000000000109000039
:104F6400000000000B0A000000000000014204BC25
:104F7400094104400401191A1B1C1D1E1F20212273
:104F840001020101CA01F4F53133939234F6F73288
:104F94000001020202020606060909090909090FAD
:104FA4000F0F0F0F0F1515151819191919191919AC
:0C4FB40019191923242525252525250081
:00000001FF
