:100000003AC5000071C500006FC500000C945C2665
:100010006BC5000069C5000067C5000065C500002C
:1000200063C5000061C500000C9437230C941F24A5
:100030000C94851059C5000057C5000055C5000037
:1000400053C5000051C500004FC500004DC500005C
:100050004BC500000C94132347C5000045C50000A4
:1000600043C5000041C500003FC500003DC500007C
:100070003BC5000039C5000037C5000035C500008C
:1000800033C5000031C500002FC500002DC500009C
:100090002BC5000029C5000027C5000025C50000AC
:1000A00023C5000021C500001FC50000202020201E
:1000B00020209293209A9B208E8F002020202020A9
:1000C000209293208283209E9F00202020202020A9
:1000D000969720A2A3208E8F002020202020209001
:1000E00091209899208C8D00202020202020909114
:1000F000208081209C9D002020202020209495207D
:10010000A0A1208C8D0005010902A1018502090131
:10011000A100050919012908150025019508750197
:1001200081020501093009311581257F9502750885
:10013000810609381581257F950175088106050C12
:100140000A38021581257F950175088106C0C00512
:10015000010980A101850319012AB700150126B7FD
:1001600000950175108100C0050C0901A1018504ED
:1001700019012AA002150126A0029501751081001F
:10018000C005010906A101050719E029E7150025A9
:10019000019508750181029501750881010507190E
:1001A0000029FF150026FF00950675088100050847
:1001B0001901290515002501950575019102950183
:1001C00075039101C009023B00020100A0FA090475
:1001D0000000010301010009211101000122440076
:1001E0000705810308000109040100010300000064
:1001F000092111010001227B000705820320000173
:1002000012010002000000083C3A01000001010256
:1002100000010A034B006C006F007200000018031D
:1002200047006500690067006500690067006500B8
:10023000690073007400000004030904A6A7208E5F
:100240008F20AAAB00A4A5208C8D20A8A9008283B2
:1002500020B2B320B6B700808120B0B120B4B50081
:10026000A6A720B6B720B2B300A4A520B4B520B08D
:10027000B100969720AEAF20B6B700949520ACADF4
:1002800020B4B5002020202020868720828320965D
:1002900097208A8B002020202020848520808120A8
:1002A0009495208889000000AE00AF000000000097
:1002B000003E5B4F5B3E003E6B4F6B3E001C3E7C46
:1002C0003E1C00183C7E3C18001C577D571C001C2F
:1002D0005E7F5E1C0000183C180000FFE7C3E7FFCC
:1002E00000001824180000FFE7DBE7FF0030483A61
:1002F000060E00262979292600407F0505070040C3
:100300007F05253F005A3CE73C5A007F3E1C1C08F5
:1003100000081C1C3E7F0014227F2214005F5F0037
:100320005F5F0006097F017F00006689956A0060B3
:10033000606060600094B6FFB69400080C7E0C0804
:100340000010307E30100008083E1C0800081C3EDB
:100350000808001E10101010000C1E0C1E0C00309F
:10036000383E383000060E3E0E0600000000000049
:100370000000005F000000000700070000143E14AA
:100380003E14002E2A7F2A3A002012082402003749
:100390004949375000000807030000001C224100B3
:1003A000000041221C00002A1C7F1C2A0008083E75
:1003B00008080000807030000008080808080000E5
:1003C00000606000002010080402007F5149457F52
:1003D000000804027F0000714949494F004141492A
:1003E0004977000F1010107F004F49494971007E76
:1003F0004949497000010171090700774949497766
:1004000000074949493F0000001400000000403443
:1004100000000000081422410014141414140000F9
:100420004122140800010159090F007F415D594F15
:10043000007F0909097F007F49494976007F4141D2
:100440004141007F4141417E007F49494949007F48
:1004500009090909007F4141497B007F0808087F9D
:100460000000007F000000704040407F007F0808CF
:100470000877007F40404040007F011F017F007FE0
:100480000408107F007F4141417F007F0909090F67
:10049000007F4171417F007F0909196F0047494979
:1004A00049790001017F0101007F4040407F001F2A
:1004B0002040201F007F407F407F0077080808779A
:1004C000004F4848487F00615149454300007F4143
:1004D0004100000204081020000041417F00000498
:1004E00002010204004040404040000000070800B4
:1004F00000605454547C007F44444478007C44445D
:10050000444400784444447F007C5454545C0008C4
:100510007F0909090038A4A4A4FC007F040404781E
:100520000000007D0000007040407D00007F080852
:1005300008760000007F4000007C047C047C007C86
:1005400004040478007C4444447C00FC24242438C3
:100550000038242424FC007C04040404005C54546B
:1005600054740004047F0404007C4040407C001C60
:100570002040201C007C407C407C006C1010106CE3
:1005800000BCA0A0A0FC004464544C440000083609
:100590004100000000770000000041360800000222
:1005A00001020402003C2623263C00E0FC9E8783D7
:1005B00083879EFCE000001F1F0101010101011F54
:1005C0001F0000FFFFE3E3E3E3E3F7BE1C00003F8F
:1005D0003F3030303030391F0F0000FFFF6363635E
:1005E000636363030300001F1F18181818181818F6
:1005F000180000FFFF060C38380C06FFFF00001F34
:100600001F0000000000001F1F0000FFFF060C1865
:100610003060C0FFFF00001F1F0000000000001F2F
:100620001F00001C3E776363C3C3C3870700000439
:100630000C18181818181D1F1F0000FFFF000000DD
:10064000000000FFFF0000070F1C181818181C0FEF
:100650000F00000F3FF0C00000C0F03F0F0000008F
:100660000000030F0F030000000000030F3C70E0C8
:10067000E0703C0F030000000000001F1F0000009E
:10068000000000FCFE070303030303070702000743
:100690000F1C18181818181C1C0800FFFF03030370
:1006A000030307FEFC00001F1F18181818181C0F62
:1006B000070000FFFF636363636363030300001FBE
:1006C0001F00000000000000000000FFFF0000000D
:1006D000000000000000001F1F1818181818181834
:1006E00018000003030303FFFF03030303000000DC
:1006F0000000001F1F0000000000001F1F1F1F1F21
:10070000000F1421404541454021140F007D7D7D9F
:100710007D7D7D7D7D7D7D7D0000000000000000F1
:1007200000000000000000000000000808080808A1
:1007300008000000000000000000000000000000B1
:100740000000000000000000003F0C03000000005B
:1007500000030C30000000003F202020202020203B
:10076000200102040810101020202020202010104A
:100770001008040201000000003F0000000000001B
:100780000000030C3040000040000040000040002A
:10079000001C3E3E3E1C003E1C1C0808003E3E3E27
:1007A0003E3E0000000000000000000000000000CD
:1007B0000000000000000000000000000000000039
:1007C0000000000000000000000000000000000029
:1007D0000000000000000000000000000000000019
:1007E0000000000000000000000000000000000009
:1007F00000000000000000000000000000000000F9
:1008000000000000000000000000000000000000E8
:1008100000000000000000000000000000000000D8
:1008200000000000000000000000000000000000C8
:1008300000000000000000000000000000000000B8
:1008400000000000000000000000000000000000A8
:100850000000000000000000000000000000000098
:100860000000000000000000000000000000000088
:100870000000000000000000000000000000000078
:100880000000000000000000000000000000000068
:100890000000000000000000000000000000000058
:1008A000000000000000000000000000DA1281FFDC
:1008B000D9F1DB20A4A62EAF00A0C0D30000A1C8B0
:1008C000D30000AED580A83F408D14200000001456
:1008D000001A0008001500170022520421162207F2
:1008E0002409280A002B221D001B00060019000500
:1008F000000000E200E3002C270000A80000001325
:100900000012000C0018001C00343233310F320E7C
:10091000340D380B00290038003700360010001164
:1009200000000023522152E00000000000000022DD
:100930000220023102240225020100360238002E74
:100940000037022E02010023021F0238021E02217C
:100950000200000100010001000000A800000013D7
:10096000021300340234003500310230022F02300D
:10097000002F002D00310038003502270226022DFD
:100980000200000100010001000000000000000161
:100990000001006A006B0001000100E000E100E2DC
:1009A00000E300010001000100010001000100015D
:1009B0000000000100010001000000A8000000018B
:1009C000004A0052004B004C00010028004F00512B
:1009D0000050002A00010001004D0001004E0001FE
:1009E0000000000100010001000000000000000103
:1009F000003A003B003C003D0001003E003F00404B
:100A00000041002A0001004200430044004500016B
:100A10000000000100010001000000A800000038F3
:100A20000026002500240025022E00270023002296
:100A30000021002E023600370020001F001E002D6E
:100A400000000001000100010000000000AA00A950
:100A500000DA00D900AA00A900DA00D900AA00A98A
:100A600000DA00D900AA00A900DA00D9002020206D
:100A700020202020200011241FBECFEFDAE0DEBFAF
:100A8000CDBF04B603FE19C080919E0790919F07C9
:100A9000A091A007B091A1078730904BA740B04B21
:100AA00061F410929E0710929F071092A007109277
:100AB000A107E0E0F8E3099500C012E0A0E0B1E092
:100AC000EAE0F1E502C005900D92A431B107D9F733
:100AD00027E0A4E1B2E001C01D92AE39B207E1F710
:100AE0000E944A1F0C9431288BCA8093550790931B
:100AF000560708958093570790935807089521E06B
:100B000030E002C0220F331F8A95E2F78091570729
:100B100090915807822B932BEDCF21E030E002C05B
:100B2000220F331F8A95E2F7209530958091570761
:100B30009091580782239323DDCFCF93C1E061FDCD
:100B4000C4E060FDCC0F62FDC29593E07695679599
:100B50009A95E1F7660F771F660F771F460F571FAD
:100B6000FA0140E050E090E06191DF019C01042E29
:100B700002C0369527950A94E2F72695220B262780
:100B80002C2326272E934F5F5F4F4430510561F78A
:100B9000CF910895A82FA77023E0969587952A9561
:100BA000E1F7880F991F880F991F680F791FFB01C4
:100BB00040E050E080E0219130E00A2E02C03695FE
:100BC00027950A94E2F72170042E01C0220F0A949F
:100BD000EAF7822B4F5F5F4F4430510561F708956C
:100BE000282F862F983068F4263050F4622F70E05A
:100BF00026E0929F600D711D11244FE257E09DCFBA
:100C000008959C5F9230E0F7622F70E04BE257E06E
:100C1000F6CF292F983058F4863080F490E06FE2B8
:100C200077E036E0239F800D911D1124B3CF2C5F18
:100C3000223020F46BE277E090E0F8CF80E0089576
:100C4000E0915E0790915D07E91302C080E008958E
:100C50009F0157E0E59FF0011124E15AF84F5181BF
:100C6000561306C05081581303C05581541305C054
:100C70002F5F3F4FF901E770E7CF81E00895809142
:100C80005E0720915D07281301C0089501968770C3
:100C9000FACF909159078095892380935907282F7F
:100CA000277061F4891751F090915B0792FF06C09D
:100CB00086958695869531DF10925907089580951F
:100CC000982F809152078923809352070895972F78
:100CD0007830D8F4663008F03EC0843008F03EC06A
:100CE00070E026E0929F600D711D112490E3899FB2
:100CF000600D711D1124FB01EE0FFF1FE353F74F31
:100D000085919591282F822F08957D3F89F4623037
:100D100010F5843018F5E62FF0E0E80FF11DE80F2C
:100D2000F11DEE0FFF1FEE0FFF1FE35BF54FE8CF46
:100D30007C3F89F4623078F4843080F4E62FF0E070
:100D4000E80FF11DE80FF11DEE0FFF1FEE0FFF1F63
:100D5000E15BF54FD5CF20E090E0D5CF21E0FCCF8F
:100D6000803E9105D1F1C8F48133910509F481C029
:100D700048F48932910509F471C08A32910509F469
:100D80007FC0089589339105E1F082389105C9F05B
:100D90008533910509F45DC00895843E9105D1F134
:100DA00048F4823E910531F1833E910541F181EE97
:100DB00090E00895863E9105C1F1873E9105F1F1DD
:100DC000089520915A07237009F064C020915B07B1
:100DD00023FF14C089E290E0089520915A0720FD76
:100DE00045C030915B0730FF09C024FD24C083EE6D
:100DF00090E0089520915A0722FDF7CF08952091A1
:100E00005A0722FD44C030915B0730FD43C024FFE8
:100E1000F5CF11C020915B0721FFF0CF80915A07D9
:100E200084FD09C087EE90E0089520915A0723FFC2
:100E3000E5CF24FFF7CF80E090E0089520915A0796
:100E400023FD2BC030915B0731FFE1CF84EE90E0B2
:100E5000089520915A0725FFD1CFBCCF20915A0782
:100E600025FD1EC020915B0723FFC8CF89E390E0DA
:100E7000089520915A0726FFC1CF8AE290E0089595
:100E800020915A0726FFBACF81E390E0089582EEC1
:100E900090E0089580EE90E0089586EE90E0089549
:100EA00085E390E0089590915A0792FF10C041E0C9
:100EB000282F2471243009F040E031E0282F2871D8
:100EC000283009F030E0431711F02CE0822793FF1F
:100ED00010C041E0282F2471243109F040E031E0B6
:100EE000282F2871283109F030E0431711F02CE049
:100EF000822730915B0730FF10C051E0282F21710D
:100F0000213009F050E041E0282F2871283009F005
:100F100040E0541711F029E0822731FF10C041E072
:100F2000282F2171213109F040E031E0282F28716C
:100F3000283109F030E0431711F029E0822794FFAF
:100F400002C083FD877E08950F931F93CF93DF9395
:100F500007DFEC01D23508F04DC0D03508F0C3C032
:100F6000C03ED10530F5CD3CD10508F09AC0C83A55
:100F7000D10578F4C53AD10508F090C0C130D1054B
:100F800099F1CE010497813A910570F1C0E0D0E06B
:100F90002BC0CE01885A91094B97C0F7C85AD0E0B0
:100FA000CC0FDD1FC855DE4F0990D881C02DD46409
:100FB0001BC0D03490F4D03208F0A8C0C83ED10590
:100FC00098F0CE0191509F3108F78D2F6CDF082FDC
:100FD0008C2F90E0C5DE902B54C08C2F90E0C0DEAB
:100FE000DF70C82FD92BD06ACE01DF91CF911F912E
:100FF0000F910895C03882E5D807B8F5C03682E56C
:10100000D80708F056C0C03482E5D807C8F4C0320B
:1010100082E5D80708F047C08C2F8695869520E298
:10102000829FC0011124C37021E030E002C0220F72
:10103000331FCA95E2F7E901C82BD92BDD68D4CF5D
:101040008C2F86958695877020E2829FC00111249F
:10105000C37021E030E002C0220F331FCA95E2F7CF
:10106000E901C82BD92BDC68BFCFC03C82E5D8078B
:1010700050F48C2F8F71C03AD24580F5982F84EFB1
:10108000906AEC01B1CFCE01805C9245809708F068
:101090007DCFDC2FDF71C0EFD06AA6CFA497D064DC
:1010A000A3CFD065A1CF8C2F8F71D82FC1EFD06A7D
:1010B0009BCF8C2F86958695877020E2829FC001FA
:1010C0001124C37021E030E002C0220F331FCA9503
:1010D000E2F7E901C82BD92BDA6886CFE4DEC0E05D
:1010E000D82FD06281CF8C2F8F71DDDE93E0CC0FB3
:1010F000DD1F9A95E1F7DF70282F84FF04C090E18F
:10110000899F90011124C22FD0696ECF8D2F8F71CE
:10111000CADE082F8C2F90E023DE902BEC01E1CF6C
:10112000CF92DF92FF920F931F93CF93DF936C01C7
:1011300000915707109158078091550790915607D5
:10114000082B192BCFE0D0E081E090E00C2E02C0FC
:10115000880F991F0A94E2F780239123892B61F469
:10116000219790F7F12C8F2DDF91CF911F910F9147
:10117000FF90DF90CF900895FC2EB6018C2FA7DD55
:10118000E3DE019769F3EFCF1F93CF93DF93FC0169
:101190002581C081D181CE01211571F0611561F0E9
:1011A000BFDF182F682FCE011BDDBE01812F8FDD21
:1011B000DF91CF911F9108952CDD182FF6CFCF939B
:1011C000DF93EC01ADDFBE0182DDBEDEDF91CF91AA
:1011D0000895FC012481211599F080819181EFDF30
:1011E000282F92959F70963099F060F4925F9F70CF
:1011F000923030F4203FB1F038F481E0283E38F0EE
:1012000080E008959A5FF3CF81E0243FC9F7089505
:1012100091E0213F09F090E081E0283E08F080E075
:10122000892B089581E0089580E00895F894E82FCF
:10123000E295EF70F0E041A18F7021E001C0220F34
:101240008A95EAF7922F9095942391A392A1822FE9
:10125000892B82A37894089581E08093C306089532
:1012600020918D066203B001112496E0899F600DE4
:10127000711D1124743014F060E070E069577D4FE7
:10128000609385027093860208959091F606292F47
:1012900030E07091F706A9014395437050E0741750
:1012A000150689F02C50394F60FB87F9F9018483CA
:1012B0009F5F93709093F6068091F4068F5F809302
:1012C000F40681E0089580E0089590E06115D1F082
:1012D000845F9E4FFC0180818F3F99F0E82FE2955B
:1012E000EF70F0E041A18F7021E001C0220F8A95DC
:1012F000EAF7922F9095942391A392A1822F892BA4
:1013000082A30895835F9E4FE5CF90E06115A9F019
:10131000845F9E4FFC0120812F3F91F0E22FE295E8
:10132000EF70E05EF0E0808190E02F7002C0959554
:1013300087952A95E2F781700895835F9E4FEACFE3
:1013400080E00895FC01680F791F8FEF41E39191D0
:10135000892728E030E0982F990F87FF09C0892F4F
:10136000842721503040B9F7E617F70781F7089531
:10137000892FF7CF382F25EB3203C001112497FFB7
:1013800004C080589109892F089580589F4FFBCF42
:101390008091490780FD14C081FD14C082FD16C0F4
:1013A00080914807811581F08E3180F420E5829F7D
:1013B000C00111246EE170E00E94BE27862F0895BF
:1013C00084E1089588E2089588E0089580E508950D
:1013D0008091490780FD17C081FD17C082FD19C0AB
:1013E00080914707811599F0883298F428E0829F10
:1013F000C001112468E270E00E94BE2761157105EA
:1014000051F0862F089562E0FCCF64E0FACF61E0EE
:10141000F8CF68E0F6CF81E0089580911907811533
:1014200071F0E0912107F0912207309739F0019097
:10143000F081E02D309711F00995089580E008952E
:10144000A3E0B0E0E6E2FAE00C948B2720913702AB
:101450003091380228173907B1F080933702909302
:101460003802E0912107F0912207309761F0008463
:10147000F185E02D309739F023E029838A839B831F
:10148000CE01019609952396E2E00C94A727A3E0EC
:10149000B0E0EDE4FAE00C948B2720913502309116
:1014A000360228173907B1F080933502909336023F
:1014B000E0912107F0912207309761F00084F185D7
:1014C000E02D309739F024E029838A839B83CE0175
:1014D000019609952396E2E00C94A7279C01FC0154
:1014E000329680E09FEF4081461759F031969F3F3A
:1014F00019F4411101C0982F8F5F8630A1F79F3FEB
:1015000009F40895290F311D97FD3A95F901628379
:101510000895FC01329608962191261302C0DF013E
:101520001E92E817F907C1F7089580910801089500
:101530002FB7F8946091310270913202809133029A
:10154000909134022FBF089580911907811539F0C9
:10155000EFDF462F572FBC01CB01BA010895E8DF1A
:10156000DC01CB0140911B0750911C0760911D07C6
:1015700070911E07480F591F6A1F7B1FEDCF0895FA
:10158000FC0120912702309128022617370748F0E6
:101590006115710529F49091E8009E779093E80019
:1015A0009B0190E02115310541F4911106C0809115
:1015B000E80082FF32C080E0089580919106811595
:1015C000C1F18530C1F18091E80083FD30C0809188
:1015D000E80082FDECCF8091E80080FFE3CF8091AE
:1015E000F3004091F200582F2115310519F04830D1
:1015F000510558F091E04830510509F090E04091D4
:10160000E8004E774093E800CDCF81918093F100C0
:10161000215031094F5F5F4FE7CF809191068115CF
:1016200041F0853041F08091E80083FFC0CF81E038
:10163000089582E0089583E00895982F9093E9003B
:10164000891771F07091EC002091ED005091F0003D
:1016500021FD09C09F5F973089F78093E9000895C5
:10166000762F242F50E03091EB003E7F3093EB003B
:101670003091ED003D7F3093ED003091EB00316013
:101680003093EB007093EC002093ED005093F0004A
:101690002091EE0027FDDECF08958091210287FF83
:1016A00013C08091E80082FF06C08091E8008B772C
:1016B0008093E8000895809191068111F2CF0895FA
:1016C000809191068115D9F38091E80080FFF8CFD1
:1016D0008091E8008E77ECCF2091E4003091E50016
:1016E00095E6A9012091EC00822F817020FF06C0B1
:1016F0008091E80080FF06C080E008952091E80016
:1017000022FD1AC080919106811589F0853089F0FB
:101710008091EB0085FD0FC02091E4003091E50041
:1017200042175307F9F29150E1F684E0089582E000
:10173000089583E0089581E00895CF93DF93C8ED85
:10174000D0E088818F7E8883E7EDF0E08081816042
:10175000808384E082BF81E08093200288818E7F35
:101760008883E2EE10821092DA00A1EEB0E01C92C3
:1017700088818F77888388818068888388818F7D3E
:10178000888319BC1092910610921F021092900645
:1017900010921E02A0EE8C918B7F8C9388818160C9
:1017A000888342E060E080E048DFA1EEB0E08C9109
:1017B0008E7F8C93E2EEF0E0808181608083808177
:1017C00088608083E0EE80818E7F80838881806165
:1017D0008883DF91CF910895E8EDF0E080818E7FDE
:1017E00080831092E2001092DA001092E100A0EEE5
:1017F000B0E08C9181608C9380818F77808319BC5D
:10180000A7ED8C918E7F8C9380818F7E8083109248
:1018100020020895A0E0B0E0E0E1FCE00C94832712
:101820007C016B015A01809100070AE010E08A30C8
:1018300010F001E010E0C1E0D0E0B601C701F50111
:101840000995811115C021960C171D078CF0CC9FAE
:101850009001CD9F300D300D112480E090E045E3E4
:101860004A95F1F70000019682179307C1F7E5CF7B
:10187000CDB7DEB7EAE00C949F2781E08093E000CB
:1018800080E28093D8001092C9008FE19EE4019716
:10189000F1F700C00000A7E0B0EBCD0180939E07F8
:1018A00090939F07A093A007B093A10788E19CE0C5
:1018B0000FB6F894A895809360000FBE90936000D7
:1018C000FFCF0F931F93CF93DF93EB018A0190918A
:1018D0009106943059F58093E9008FEF9091E800DC
:1018E00095FD06C095ED9A95F1F700008150B1F78E
:1018F0008091E80085FF1AC0EFDE811112C080914F
:10190000E80085FD06C08091E8008E778093E800AE
:10191000F3CF88818093F1000150104011F021969F
:10192000EECF8091E8008E778093E800DF91CF9131
:101930001F910F910895CF93DF93EC0148E050E0A1
:10194000BC0181E0BEDF88E0FE01A9E2B2E00190C7
:101950000D928A95E1F7DF91CF91089546E050E02E
:10196000BC0182E0AECF43E050E0BC0182E0A9CFF1
:1019700090915B0792FB222720F9281771F080FBDA
:1019800092F990935B0760915A0770915B0784E02E
:1019900090E00E941D2882E07CC908958091520742
:1019A00090915C07892B90915307911589F0892BB1
:1019B00090E028E132E0F90140812F5F3F4F411173
:1019C0009F5F42E02E313407B1F791111092530717
:1019D0008093160248E050E063E277E086E192E00F
:1019E0000E94E027892BB9F088E0E6E1F2E0A3E26B
:1019F000B7E001900D928A95E1F7E0912107F0910F
:101A00002207309741F00280F381E02D309719F0E2
:101A100086E192E009950895811531F09091520781
:101A2000982B90935207BACF0895811511F047D99A
:101A3000B5CF0895CF92DF92FF920F931F93CF936C
:101A4000DF936901E801082F880F110B411551053B
:101A5000B1F0F80133E0EE0FFF1F3A95E1F7E85ED1
:101A6000FE4F818192818B52994FE0812E2F30E081
:101A70004E17510508F49A01A9010E94ED27C801EB
:101A80000E94F926F82E8115E1F02097D1F0C801C7
:101A900023E0880F991F2A95E1F7FC01E85EFE4FCD
:101AA0002381422F50E0C217D10508F4AE01885EB1
:101AB0009E4FFC01648175816B52794FC6010E9473
:101AC000ED278F2DDF91CF911F910F91FF90DF9028
:101AD000CF900895A4E0B0E0E0E7FDE00C94872704
:101AE000E090BF06F090C0060091C1061091C206BA
:101AF0001FDDDC01CB018E199F09A00BB10B11E09A
:101B000084369105A105B10500F11EDDDC01CB0194
:101B10000296A11DB11D89839A83AB83BC8300E02B
:101B200010E0980144E050E0BE016F5F7F4F86E017
:101B300081DF182F811549F0FBDC6093BF0670939D
:101B4000C0068093C1069093C206812F2496E6E0DA
:101B50000C94A327A4E0B0E0E0EBFDE00C94872711
:101B6000E090B306F090B4060091B5061091B60669
:101B7000DFDC209152072983DC01CB018E199F09FC
:101B8000A00BB10B84369105A105B10508F03FC04B
:101B900081E09091EF06921301C080E090915C0784
:101BA0009A83811106C081E02091F006291301C0BB
:101BB00080E0909153079B83811106C081E02091C2
:101BC000F106291301C080E0909154079C83811194
:101BD00004C08091F2068917A9F000E010E0980196
:101BE00044E050E0BE016F5F7F4F89E023DF811545
:101BF00051F09EDC6093B3067093B4068093B506F3
:101C00009093B60681E02496E6E00C94A32781E049
:101C1000C5CFA1E0B0E0EFE0FEE00C947B27662E9C
:101C20002A01190168018D019E012F5F3F4F40E09D
:101C300050E0BA01FFDE182F811591F1F20180808A
:101C40009180A280B38074DC7980681979098A094F
:101C50009B09643671058105910528F4B701C60119
:101C600071DB8715E9F08701910140E050E0BA018E
:101C7000862DE0DE082FB701C60164DB10E0871176
:101C80000AC0102F117000FF06C052DCF201608301
:101C9000718382839383812F2196E2E10C949727AD
:101CA000A701B601C1010E94ED27F5CFA4E0B0E085
:101CB000ECE5FEE00C9485276B017D0106ED16E056
:101CC0009E012F5F3F4F41ED56E061E080E0A1DFD4
:101CD000811561F049815A816B817C814093CD06E9
:101CE0005093CE066093CF067093D0064091CD06F8
:101CF0005091CE066091CF067091D006F6014083D8
:101D00005183628373832496E8E00C94A127A8E0B2
:101D1000B0E0EDE8FEE00C9487277D010FED16E0C2
:101D20009E012F5F3F4F45EC56E064E083E071DF9A
:101D3000182F811591F19091DE068091C4069817B5
:101D400061F19091E2068091E106891701F1E92F96
:101D5000F0E0E752F94F828587FB662760F99F5FC5
:101D600093709093E2069091E0069F5F9093E00657
:101D70008F778BDAF82E8111E4CF00E010E0980124
:101D8000A801B80185E056DEF8221F2D02C0F1102F
:101D9000F4CF8091DE068093C406812F2896E6E07A
:101DA0000C94A327A0E0B0E0E8EDFEE00C948127BE
:101DB000D82EEB01C42E59014801E880F9800A8130
:101DC0001B81B6DBDC01CB018E199F09A00BB10B87
:101DD00084369105A105B10510F4C11471F000E03D
:101DE00010E09801A401B5018D2D24DE811531F09C
:101DF0009FDB688379838A839B8381E0CDB7DEB7DD
:101E0000ECE00C949D270F931F9341E02091EB068B
:101E10003091EC06809157079091580728173907A1
:101E200009F440E002E010E027E537E06BEB76E0F4
:101E300087E0B8DF811599F041E02091ED063091FF
:101E4000EE0680915507909156072817390709F437
:101E500040E025E537E067EB76E088E0A3DF1F91FF
:101E60000F910895A1E0B0E0E8E3FFE00C9489272A
:101E70008091AE0689832091F30690E041E0281717
:101E8000190609F440E08D019E012F5F3F4F6FEA74
:101E900076E08AE087DF2196E4E00C94A5270F9393
:101EA0001F93CF93DF93EC0144E050E06AED76E0BE
:101EB0000E94E02741E0892B09F440E004E010E0B3
:101EC0009E0169EC76E082E06DDFDF91CF911F919A
:101ED0000F910895AB0124E630E0BC0188E70E9431
:101EE00030259C0181E0232B09F080E0089580914A
:101EF00088068115E9F01CDBDC01CB01805A954195
:101F0000AF4FBF4F8093890690938A06A0938B06AC
:101F1000B0938C068091AE0681110AC062E070E039
:101F200089EA92E0D7DF811519F081E08093AE064F
:101F3000089580918806811561F08091AE06811523
:101F400041F062E070E087EA92E0C4DF8111109214
:101F5000AE060895CF93DF93682F81E06A3019F0C1
:101F60006D3029F480E072D0DF91CF910895809197
:101F700085029091860226E0FC01ADE7B2E0019077
:101F80000D922A95E1F726E0603E08F455C0FC0169
:101F900011922A95E9F7C0918502D091860246E018
:101FA00050E0BE018DE792E00E94E0279E01275895
:101FB0003240892B41F1C90146E0969587954A95B3
:101FC000E1F741E050E0BA0102C0660F771F8A9541
:101FD000E2F7CB016091830270918402862B972BEC
:101FE000B9016B5F7F4FE6E076956795EA95E1F77B
:101FF00002C0440F551F6A95E2F7842B952B8093FE
:102000008302909384022A5F3F4F40918D06642F94
:1020100070E0C9010E946727481B463010F4240F66
:10202000311D343010F020E030E029573D4F20932F
:1020300085023093860298CF629FB00111246555C6
:102040007D4F46E050E00E94D727A5CFCF93382F91
:10205000E0918502F0918602E758F24020918D06CA
:10206000622F70E0CF010E946727281B822F311555
:1020700061F066E00E94B227C82FC11102C0CF9163
:102080000895C15080E266DFF8CF8E0F9F2F911D1B
:10209000943010F080E090E089579D4F8093850246
:1020A00090938602ECCFCF93DF93EC01FE018491F5
:1020B000811103C0DF91CF9108954CDF2196F6CFB7
:1020C000CF92DF92FF920F931F93CF93DF93182F3E
:1020D000F62E6A01E901C4D8011103C08DE69AE029
:1020E0006C01C601E0DF6F2D6F5F812FB9D8011140
:1020F00002C0CDE6DAE0CE01D6DFDF91CF911F91AD
:102100000F91FF90DF90CF9008951F921FB61F92FE
:1021100011248F939F93AF93BF9380918F0681116A
:1021200013C08091310290913202A0913302B0919C
:1021300034024196A11DB11D809331029093320269
:10214000A0933302B0933402BF91AF919F918F91CE
:102150001F901FBE1F9018952FB7F89480913102E1
:1021600090913202A0913302B09134022FBF0895B2
:10217000CF93DF93EC01F0DF8C1B9D0BDF91CF91B0
:102180000895ACE0B0E0E7ECF0E10C948227FE01AA
:102190003196DF0188E01D928A95E9F78EE9C82E15
:1021A00081E0D82E7F01AE2E9F2C08EA11E0F601C7
:1021B00081916F018F3F09F43CC0F894E82FE295BC
:1021C000EF70F0E021A18F7041E001C0440F8A95CB
:1021D000EAF7922F942B91A392A1842F80958923C3
:1021E00082A3789400C0E2EAF1E031E0B12C2191C1
:1021F0002F3F79F0A22FA295AF70A05EB0E08C9136
:1022000090E02F7002C0959587952A95E2F780FFA0
:102210009DC080E0B82A330F0E171F0741F7F60163
:1022200082918F3F09F002D880EA8A95F1F7F70191
:10223000B0828FEFE81AF80A82EA91E08C159D05CA
:1022400009F0B5CF48E050E06A2D792D81E197E0A3
:102250000E94E027009749F028E0EA2DF92DA1E13E
:10226000B7E001900D922A95E1F70091100710E078
:10227000085F184F892B09F46BC081E08093070732
:102280006BDF8093050790930607809119078115EE
:1022900009F4B6C07E0189E0E80EF11CF70184E084
:1022A00011928A95E9F7809100078A3008F073C08F
:1022B00046E55EE0B701C801ADDA811509F48FC0CB
:1022C0004FE45FE0B701C801A5DA811509F487C0C2
:1022D00047E85EE0B701C8019DDA811509F47FC0C7
:1022E0004AE65DE0B701C80195DA811509F477C0C7
:1022F00043E05FE0B701C8018DDA811509F46FC0D2
:102300004AEA5DE0B701C80185DA811509F467C0C2
:1023100042E35FE0B701C8017DDA811509F45FC0CF
:10232000109200078091040790E044E050E0B7016C
:10233000885F984F0E94E02721E020930307892BB4
:1023400009F03FC02C96EBE00C949E27832F62CFC0
:1023500080910707811509F498CFE0900507F09068
:102360000607FADE8E199F09059708F48ECF44E020
:1023700050E061E177E0C8010E94E027892B41F03D
:1023800084E0E1E1F7E0D80101900D928A95E1F750
:10239000109207077ACFC0900107D0900207DCDEC9
:1023A0008C199D09843F914008F082CF80910307EA
:1023B000811541F2F70184E011928A95E9F71092B4
:1023C0000307E0910407F0E0E85FF84F89859A85FC
:1023D000AB85BC8580839183A283B383B3CF809187
:1023E00000078F3F31F4B8DE809301079093020716
:1023F000DDCF8F5F809300078A3008F493CFF3CF4F
:10240000E0900407F12CC701885F984F7C01F80128
:1024100080819181A281B3818093D6069093D70663
:10242000A093D806B093D90664E070E086ED96E0FC
:102430000E94A2098093D5068091DA069091DB066E
:10244000A091DC06B091DD06F70180839183A28321
:10245000B38388E0E4EFF6E0AFEDB6E001900D92D3
:102460008A95E1F768E070E08FED96E00E94A2099E
:102470008093DE06C090E706D090E806E090E9067B
:10248000F090EA068091FC069091FD06A091FE0670
:10249000B091FF06C816D906EA06FB06A9F0C0925D
:1024A000FC06D092FD06E092FE06F092FF0640D8B0
:1024B000C61AD70AE80AF90AC0921B07D0921C076D
:1024C000E0921D07F0921E078091EB069091EC06BA
:1024D00080935707909358078091ED069091EE06F0
:1024E00080935507909356072091F0069091F1063E
:1024F0008091F2063091EF063093520720935C07EB
:1025000020915B0722FF05C02091530792139093FF
:102510005307909154078913809354078091F306D1
:10252000811511F0E4DC0ECF04DD0CCF4F925F92E9
:102530006F927F928F929F92BF92CF92DF92EF9293
:10254000FF920F931F93CF93DF938091880681159D
:1025500009F435C1C0917B02D0917C02FDDD8C1B5A
:102560009D0BC29708F44FC0F7DD80937B029093D8
:102570007C0260E080E00E9430098091190781159B
:1025800009F42FC186EA92E08EDD81E05FDD2091C3
:102590005807822F90E0211122C180915707922F76
:1025A000AC01E4E056954795EA95E1F741155105F0
:1025B00011F02C5FCA01AC01569547955695479589
:1025C0004115510511F02E5FCA012150969587954E
:1025D000280FC4E8D2E085E992E0233068F430E0C7
:1025E000220F331FF901EA58FE4F80819181205953
:1025F0003E4FF901C081D18156DD81E027DDCE015A
:1026000052DD81E023DD8091830290918402892B49
:1026100009F4BBC080918806811509F4B6C0809189
:1026200087068111B2C063DC80918302909184029D
:10263000009709F4AAC0C82FC170D0E010E080FD57
:102640000FC041E050E01F5FEA01012E02C0CC0F35
:10265000DD1F0A94E2F79E0128233923232B99F3E7
:1026600080918E0680FFF1C0912F990F990F990FDD
:10267000492F995F392F80E027E040930201809332
:102680000501309303012093060124E630E047E082
:1026900050E060E071E088E70E94E624892B09F0B1
:1026A00074C080E4189FA001112480918E0680FFE1
:1026B000DCC0EBE3F2E080E411928A95E9F734E8BC
:1026C000632E31E0732E8CE791E04C016CE871E0F1
:1026D000D301ED913D01D4010D914D01040F152F52
:1026E000111DF0E0E55CFD4F80E090E027E0B22EA8
:1026F000B81ACC24C394082E01C0CC0C0A94EAF773
:10270000980129573D4F2901E12CD201FD902D015F
:10271000FC202B2D2E19277030E0AF2D022E01C08A
:10272000AA0F0A94EAF7DA2E31952195310927701C
:10273000332701C0F6942A95EAF7DF282081D22AB0
:10274000D082E3942E2D283001F7019631968830FF
:10275000910561F66615770509F0BACF04E610E039
:1027600020E44BE352E060E488E70E947625892B61
:1027700061F4C095D0958091830290918402C82322
:10278000D923C0938302D09384028091AE06811531
:10279000B1F00E94980AC0918906D0918A06E09112
:1027A0008B06F0918C06DC01CB018C1B9D0BAE0BD4
:1027B000BF0B8F3F9F4FAF4FBF4708F4BADBDF918E
:1027C000CF911F910F91FF90EF90DF90CF90BF902E
:1027D0009F908F907F906F905F904F90089528E02A
:1027E000DFCEC09152078C2F827201E0811101C0AF
:1027F00000E022E732E04BE752E061E081E060DC9C
:1028000001E08C2F817109F400E020E632E049E616
:1028100052E061E08CE054DC01E08C2F847409F418
:1028200000E02EE432E047E552E065E081E048DC7C
:10283000C87801E0C11101C000E02CE332E045E4BA
:1028400052E065E08CE03CDCDECE20E4129FC0016B
:102850001124880F892F881F990B9195282F10FB21
:10286000442746F9342F315C08CF49575D4F04E6C1
:1028700010E020E430E077CF6FDC9C0190914C07B2
:1028800080914D07982B21F02093AB063093AC0636
:1028900090914E0780914F07982B21F02093A90625
:1028A0003093AA06E0912107F0912207309759F062
:1028B0000680F781E02D309731F082E080934A075F
:1028C0008AE497E009950895611509F448C0E82F56
:1028D000ED5CE33150F4F0E0ED5CF74D0C94D12762
:1028E0000E94C809819580934D07C6CF0E94C809F0
:1028F000FACF0E94C809819580934C07F6CF0E94B9
:10290000C809FACF0E94E80980934E07EECF0E94D3
:10291000E8098195F9CF0E94E809819580934F07D6
:10292000E4CF0E94E809FACF815D990B21E001C054
:10293000220F8A95EAF780914B07822B80934B07F1
:10294000D4CF80914907816080934907CECF809191
:1029500049078260F9CF809149078460F5CF4091A3
:102960004C078D3C59F480914D0787FF0DC01092A4
:102970004D07411559F41092480708C08E3C81F468
:1029800080914D0718169CF3411581F080914E07F8
:1029900090914F07892B09F0A8CF10924707A5CF38
:1029A0008F3C41F447FFF0CF10924C0780914D07C8
:1029B0008115E0CF803D19F41416B4F3E5CF909162
:1029C0004E07893D29F41916FCF610924E07DCCF0C
:1029D0008A3D19F497FFD8CFF8CF90914F078B3DE0
:1029E00029F497FFD1CF10924F07CECF8C3D19F429
:1029F0001916CCF3C9CF982F915D983078F4815D8A
:102A0000990B21E001C0220F8A95EAF7822F809569
:102A100090914B07892380934B07B6CF8D3D31F4BE
:102A2000809149078E7F80934907AECF8E3D21F478
:102A3000809149078D7FF7CF8F3D09F0A5CF809119
:102A400049078B7FF0CFCF93C82F8115A9F0845011
:102A5000813AA0F4E8E1F2E08EE192E02081C21731
:102A6000E9F131968E179F07C9F76C2F86E192E046
:102A70000E946E0A0E94CE0CCF9108958C2F805E2A
:102A8000883060F4C77021E001C0220FCA95EAF7D0
:102A900080915207822B80935207ECCF8C2F855A5E
:102AA000833030F48C2F8452990B0E94200AE4CF9B
:102AB000EC2FE85AEB3150F4F0E0EE0FFF1FE2523A
:102AC000FE4F808191810E94470AD6CF8C2F8D5C6A
:102AD000833190F661E08C2FF7DECECF6C2F86E14C
:102AE00092E00E94890A0E94CE0CBFCF811581F12D
:102AF000982F9450913A38F4682F86E192E00E9422
:102B0000890A0C94CE0C982F905E983058F4982F28
:102B100081E091FD84E090FD880F92FD82950E94F6
:102B20005F06EFCF982F955A933020F480E090E025
:102B30000C94200A982F985A9B3120F480E090E062
:102B40000C94470A982F9D5C933110F460E0BCCE42
:102B5000089510925207E8E1F2E086E011928A951A
:102B6000E9F780E090E00E94200A80E090E00E9477
:102B7000470A10925C070E94CE0CEAE4F7E086E078
:102B800011928A95E9F71092480710924707109220
:102B9000490772CEDEDF88E19CE00FB6F894A89575
:102BA000809360000FBE90936000FFCFAAE2B0E078
:102BB000ECEDF5E10C948A2781E292E0FC010196AC
:102BC0002091F100208322E089329207B9F78091A9
:102BD0002202893009F459C0C8F4823009F4B6C021
:102BE000833009F485C0813089F18091E80083FF4A
:102BF000EAC080912102909122029A3008F0E3C04D
:102C0000E92FF0E0EA5BF74D0C94D1278A3009F404
:102C10008CC08B3051F780912102813231F7809145
:102C2000250290912602892B01F78091E800877F89
:102C30008093E8000E944D0B81E090912302911156
:102C400001C080E08093090184DFCFCF8091210211
:102C5000813A59F68091E800877F8093E80080915F
:102C6000250290912602892B61F060E080E090E0DF
:102C700070E00E94C00A8091E8008B778093E800A2
:102C8000B4CF68E089E292E0F3CF809121028132F3
:102C900009F0ABCF8091250290912602029708F0AF
:102CA000A4CF8091E800877F8093E8008091E800BE
:102CB00082FF19C02091F3008091F200922F0297B9
:102CC00031F48091F100813011F0863021F480914F
:102CD000F100809308018091E8008B778093E800F1
:102CE0000E944D0B82CF809191068111DFCF7DCF65
:102CF00080912102813A09F078CF8091250290914C
:102D00002602892B09F071CF8091E800877F80939C
:102D1000E8008091E80080FFFCCF8091090180935A
:102D2000F1008091E8008E77D9CF80912102813225
:102D300009F05BCF8091E800877F8093E8000E94D4
:102D40004D0B80912402809307014FCF8091210287
:102D5000813A09F04ACF8091E800877F8093E800AC
:102D60008091E80080FFFCCF80910701D8CF8038A8
:102D700089F0823841F5809125028F70873018F5EF
:102D80008093E9008091EB0085FB882780F9109201
:102D9000E90006C080919006880F90911E02892B51
:102DA0009091E800977F9093E8008093F100109253
:102DB000F1008091E8008E7723C0811116C08091C8
:102DC0002302813011F18091E80083FF0AC08091D5
:102DD000E800877F8093E8008091EB008062809319
:102DE000EB00AA96E3E00C94A627823061F780916D
:102DF0002302811581F01092E9008091E800877F1D
:102E00008093E8000E944D0BDECF933009F080E004
:102E100080939006F0CF809125028F70282F21504B
:102E2000263088F68093E9002091EB0020FFE3CF65
:102E3000933031F48091EB0080628093EB00DBCF24
:102E40009091EB0090619093EB0021E001C0220F84
:102E50008A95EAF72093EA001092EA008091EB004D
:102E60008860EBCF8111AFCF809123028F77182F2D
:102E70008091E3008078812B8093E3008091E800CB
:102E8000877F8093E8000E944D0B8091E80080FFCF
:102E9000FCCF8091E30080688093E30083E0111110
:102EA00001C082E0809391068ECF8058823008F076
:102EB0008ACF20912302309124022C3D83E03807F1
:102EC00091F583E08A838AE289834FB7F894DE0123
:102ED000139620E03EE051E2E32FF0E050935700DC
:102EE000849120FF03C082958F703F5F8F708A307E
:102EF000C0F0895C8D931D922F5F243169F74FBF1D
:102F00008091E800877F8093E8006AE270E0CE015C
:102F100001960E94C00A8091E8008B778093E800B8
:102F200052CF805DE7CF832F90E08330910519F178
:102F300060F48130910509F46CC08230910509F08C
:102F400042CF8BE3E5ECF1E029C0209125023091DE
:102F500026028132910509F453C08232910509F0AD
:102F600032CF2130310508F45CC009F02CCF8BE75B
:102F7000E6E0F1E013C0822F90E0213099F1823039
:102F80009105B9F1009709F01ECFE8E3F2E0E49172
:102F90008E2FE8E3F2E0009709F415CF2091E800C6
:102FA000277F2093E8002091270230912802821782
:102FB000930708F49C0140E021153105B1F541115A
:102FC00034C08091E80082FDA6CF809191068115E2
:102FD00009F4A1CF853009F49ECF8091E80083FFEA
:102FE000F0CF99CFEEE1F2E0E4918E2FEEE1F2E046
:102FF000D2CFE2E1F2E0E4918E2FE2E1F2E0CBCF3A
:103000002130310550F009F0DECE89E0E0EFF1E04B
:10301000C5CF82E1E0E0F2E0C1CF89E0E7EDF1E089
:10302000BDCF84E4E1E8F1E0B9CF8091910681154C
:1030300009F471CF853009F46ECF8091E80083FDEB
:103040006ACF8091E80082FDBCCF8091E80080FFCC
:10305000B3CF4091F3008091F200942F21153105F8
:1030600019F08830910550F041E0089709F040E0F0
:103070008091E8008E778093E8009ECF4491409342
:10308000F1003196215031090196E8CF803809F0DE
:103090009ACE8091E800877F8093E80080911F029C
:1030A0008093F10086CE81118ECE80912302182F5D
:1030B000823008F088CE8091E800877F8093E80016
:1030C00010931F020E944D0B1115A9F084E080930C
:1030D000910642E061EC81E00E941D0B42E261EC4E
:1030E00082E00E941D0B80919106843051F482E0B1
:1030F00080930A0168CE8091E30087FDE7CF81E0ED
:10310000E6CF81E0F5CFFF920F931F93CF93DF932C
:10311000C62FD42FF22E8115A9F0609350071CD82A
:103120008093390290933A0281E0C1FD84E0C0FDB2
:10313000880FC2FD82950E940C0DCDB7DEB7E5E089
:103140000C94A42780915007681332C00091390273
:1031500010913A0201D8801B910B8A3F910540F5EE
:103160001D2F105ECD17A1F0C77001E0802F01C0A8
:10317000880FCA95EAF70E94150D183048F48D2F74
:10318000877001C0000F8A95EAF7802F0E940C0D0E
:103190008F2D59DC8F2DAADC81E0D1FD84E0D0FD9C
:1031A000880FD2FD8295183040F60E94150DC5CFCC
:1031B00081E0C1FD84E0C0FD880FC2FD8295F5CF9E
:1031C000A0E0B0E0E6EEF8E10C9485277C01FC017C
:1031D0008481811521F161E0C7010E94C408EC01DE
:1031E000F7018581FE01E851FC47E730F10598F5CC
:1031F000E05BF74D0C94D12726E241EE61EE83DFD0
:1032000080915907877059F0F7018581811539F050
:1032100080915B0782FF03C082E00E944906CDB720
:10322000DEB7E8E00C94A12727E245EE65EEE7CF94
:1032300026E241EE60EEE3CF27E245EE64EEDFCF1B
:1032400026E241EE62EEDBCF27E245EE66EED7CF17
:1032500028E241E0EBCF811509F466C310925007D4
:103260009E0130572332310508F06EC384E090E0B0
:103270000E94FE2780935A0790935B07FE01E1505E
:10328000F047E232F10520F4E95AF74D0C94D127CA
:1032900080915A07816080935A0760915A07709114
:1032A0005B0784E090E00E941D2853DCA9CF809149
:1032B0005B07886080935B07F0CF80915A0782603C
:1032C000EACF80915A078460E6CF80915A078860E0
:1032D000E2CF80915B078160EDCF80915B078260D8
:1032E000E9CF80915A078061D6CF80915A078062DA
:1032F000D2CF80915A078064CECF2BDC80915A07C1
:103300008068C9CF80915A078C60C5CF80915B07D8
:103310008360D0CF80915A078E7FBDCF80915B07AD
:10332000877FC8CF80915A078D7FB5CF80915A078C
:103330008B7FB1CF80915A07877FADCF80915B079C
:103340008E7FB8CF80915B078D7FB4CF80915A0775
:103350008F7EA1CF80915A078F7D9DCF80915A0794
:103360008F7B99CFF6DB80915A078F7794CF80912E
:103370005A07837F90CF80915B078C7F9BCF909182
:103380005A07892F8B7F92FF8460877F92FF886026
:1033900082CF80915B07982F909590FB80F990FBEE
:1033A00081F988CF90915A07892F8F7B96FF80648F
:1033B00072CFCFDB90915A07892F97FB87F98058FE
:1033C0006ACF61E08EE090E00E94032866CF60E063
:1033D000F9CF90915A07892F8F7E94FF80615BCF40
:1033E00090915A07892F8E7F90FF816054CF9091E2
:1033F0005B07892F877F93FF88605CCF9E01205EEB
:10340000324520323105A0F4811124C0CF7181E012
:1034100090E002C0880F991FCA95E2F7EC01682F6F
:1034200083E090E00E940328CE010E947505E8CE5B
:10343000811571F1CB359CE7D90709F1CC359CE7B3
:10344000D90791F0CA359CE7D907B9F0C1309CE79C
:10345000D907E9F0C3309CE7D90799F0C115DC47DB
:10346000B9F477DB0E943D0C80915B07002482FF5A
:103470000394802D0E94B80CC3CE81E0FBCF80E086
:10348000F9CF6FEF7FEF80E090E00E941D2882DB94
:10349000F70100811181811509F446C0C8010E941D
:1034A0009008C82F682FC8010E94F005B8018C2F22
:1034B0000E9467060E94A407D82FC92FF701058133
:1034C000C680C2948FE0C82280915907877001F1AD
:1034D000D02E0115F1F0892F807F803461F08D2F7F
:1034E000805E8830A8F0892F807E803221F4D2302F
:1034F00078F0C11469F080915B0782FF09C082E017
:103500000E944906809159078770DD24D394811168
:10351000D12CEC2FE295EF70C03C08F067C0F0E0D2
:10352000E758F74D0C94D127C8010E940906C82F0F
:10353000BDCF1C2F1F70C03110F01295107F0115E8
:10354000B9F0111569F08D2F805E883010F0D1111F
:1035500009C080915207812B809352070E94CE0CA4
:103560008D2F3EC080915C07812B80935C07F6CF46
:103570008D2FBCDA1115D1F18D2F805E883010F0BF
:10358000D11104C0812F0E945F0606C01095809162
:103590005C07812380935C070E94CE0C27C01C2F00
:1035A0001F70C07FC03211F01295107FD13040F0F3
:1035B00009F463C0011509F46EC0C11499F1D0CFAC
:1035C00080915B0782FD2AC0011561F0111539F069
:1035D00080915207812B809352070E94CE0C80E08D
:1035E00032DA04C080E082DA1111CCCFD11409F4B0
:1035F000B9C08091590780FDB5C0F7011582869545
:10360000869586950E947F05C701DADD809159076E
:103610008695869586950E948D05A4C0011599F022
:10362000C11004C0812F0E940C0DE0CF8C2D813081
:10363000E9F680915307912F98231917B9F2812B3E
:1036400080935307D3CFC110D1CF812F0E94150D86
:1036500090915307812F892329F0812F8095892309
:103660008093530780915407912F982309F4BECF7C
:103670001095182310935407B9CF8C2D011521F004
:10368000863008F0B3CFCECF853008F0AFCF812F92
:103690000E94150DABCFC114D1F3D93349F48FEF8C
:1036A00097EE23E0815090402040E1F700C00000F9
:1036B0008D2F1CDA9BCF8C2F869586958370813059
:1036C00060F009F093CF8D2F9C2F9370011102C0F1
:1036D00080E090E00E94470A89CF8D2F9C2F937045
:1036E000011102C080E090E00E94200A7FCF602F8D
:1036F0008D2FEAD87BCF8C2F837009F046C0011143
:103700002FC04D2F429546954770440F440F2D2FE3
:103710002F7030E0042E02C0220F331F0A94E2F70C
:1037200080E090E0D4FF09C08FE090E002C0880FF5
:10373000991F4A95E2F780959095C695C695C370F6
:10374000C230D1F0C330A9F04091550750915607CF
:10375000C13069F0822B932B842395230E94750539
:103760000E940D0A60E0C7010E94C40858CD242BB6
:10377000352B822B932BF2CF822B932B2091550745
:103780003091560782279327E9CF011591F1C0FFA9
:10379000E7CF4D2F429546954770440F440F2D2F8C
:1037A0002F7030E0042E02C0220F331F0A94E2F77C
:1037B00080E090E0D4FF09C08FE090E002C0880F65
:1037C000991F4A95E2F780959095C695C695C37066
:1037D000C230B9F0C33091F040915707509158076B
:1037E000C13051F0822B932B842395230E947A05BC
:1037F000B7CF823070F6B4CF242B352B822B932B8E
:10380000F5CF822B932B20915707309158078227B1
:103810009327ECCFCF70011539F08C2F0E947F05D4
:103820008D2F0E940C0D9CCF8D2F0E94150D8C2F7B
:103830000E948D0595CFD23F99F168F4D03FC1F039
:10384000D13F89F0011509F45CC0C11409F456C0D8
:103850008D2FF9D885CFD33F51F1D43F99F790916F
:103860005B0792FD32C08C2F8F71011509F31CC0CC
:103870008C2D011599F0853008F072CFCF7181E061
:1038800090E002C0880F991FCA95E2F7EC01809181
:103890005707909158078C279D27A8CF8630ECCFEB
:1038A0008C2F8F710111C4CF0E947F0559CF80E00A
:1038B00090E0011509F49ACFCF7181E090E002C049
:1038C000880F991FCA95E2F791CF011561F08C2FEF
:1038D0008F7192FFE9CF982F990F990F990F9360ED
:1038E00090935907E1CF81E00E9449068C2D8230E8
:1038F00008F436CF82E00E94490632CF8C2F8F71B8
:10390000D3CFC11471F0D93349F48FEF97EE23E090
:10391000815090402040E1F700C000008D2FE6D894
:103920001FCF8C2F8F7184CFC6319CE7D90709F048
:1039300065CD8091510765E3811101C069E286E19F
:1039400092E00E94890A16C0C6319CE7D90709F0A7
:1039500055CD809152078A7A91E0811101C090E0A3
:103960009093510765E3811101C069E286E192E01D
:103970000E946E0A0E94CE0C43CC80919D0780313C
:1039800070F480919C07811551F0E0915E072091C1
:103990005D0730919807409197072E1301C0089555
:1039A000BF0187E0E89FF0011124DF01A15AB84F61
:1039B00014968C911497811551F111968C91119751
:1039C000831325C08C91841322C015968C91159772
:1039D00081111DC012968D919D91A0919907B09172
:1039E0009A078A1B9B0B8A3F910588F480919D075B
:1039F0008F70806180939D07EB59F84F80818F70A5
:103A00008061808387E997E0DBDB0C943F066F5F82
:103A10007F4FFB01E770C1CFADE0B0E0E2E1FDE137
:103A20000C9480278C0186E0F801DE011896019045
:103A30000D928A95E1F7F801F580C48087E9882E18
:103A400087E0982E70909B0771101FC0C114D1F0B1
:103A5000F11409F419C1C8010E94E908811509F49B
:103A600013C187E0F801D40101900D928A95E1F726
:103A70008C2D813031F480919707909198070E94A6
:103A8000DF087BDFFF24F39454C0E080A280B38082
:103A9000D0909C078091990790919A079501281BD7
:103AA000390BC901D11409F4B5C02A3F310508F01A
:103AB0008DC0C11439F390919807C18080919D0702
:103AC000803108F056C0C91213C0909197079E111B
:103AD0000FC0F11048C08F70806180939D0787E907
:103AE00097E06EDB80919D07F8018683F12C21C061
:103AF000F11039C040E06C2D8E2D0E94200640E070
:103B00006C2D8E2D0E942006F82E8111EFCF888516
:103B100099850E94DF08292F22952F70903470F428
:103B20009F70223098F09115A9F0F801968190319C
:103B300088F48F2D2D96EDE00C949C272A5F2F7032
:103B4000223060F0C8013CDBFD2CF3CF911511F061
:103B5000811579F3805E883060F3F4CF803F48F3BD
:103B6000815F8330F9CF80919D07816080939D07AD
:103B7000BDCFC91207C0909197079E1103C0F114E1
:103B800009F46CC0C8010E94E908811509F47CC0E1
:103B9000F11409F479C080919D07803270F0209172
:103BA00097073091980729833A83AB82BC827D8244
:103BB0001E828F83CE01019603DB87E0F801A7E91F
:103BC000B7E001900D928A95E1F75BCF80919D0758
:103BD000803148F487E997E0F3DAF40187E0119245
:103BE0008A95E9F783CFC11409F44CCF2091980747
:103BF00091812913C7CF909197079E11C3CFF110E0
:103C0000C1CF8683C801DCDAF40187E011928A957E
:103C1000E9F738CF2A3F310500F7C11409F432CF54
:103C2000F11491F1309198072181321323C0209132
:103C300097072E111FC08639910598F490919D0722
:103C400090FD0FC0903168F0892F9683907F903F50
:103C500031F0982F907F905F8F70892B8683C801F9
:103C6000AFDA87E0F801A7E9B7E001900D928A95F5
:103C7000E1F708CFC8010E94E90881119ECF809129
:103C80009D07816080939D07C8019ADAFBCEABE166
:103C9000B0E0EDE4FEE10C9489274E8B5F8B688FDA
:103CA000798F8A8F192F9B8F911110925C071D8A33
:103CB00086E0FE017696DE011F9601900D928A95B0
:103CC000E1F70A8D011561F00B8B1C8B61E0CE01D1
:103CD0000F960E94C40861E0CE010F960E94C408AE
:103CE0000B8B1C8B87E0FE013F96DE01189601903E
:103CF0000D928A95E1F7CE0108968EDE81112EC0D5
:103D000020915D0730915E0787E0AE01485F5F4F0D
:103D1000FA0147505109DA0101900D928A95E1F7B5
:103D20008C858115D9F0822F90E08395877090E083
:103D3000AC0134171506E1F097E0929FD0011124F1
:103D4000A15AB84F9E012F5F3F4FF90101900D928C
:103D50009A95E1F740935D070E943F0680915E07C8
:103D600090915D07891311C06B96E4E00C94A52730
:103D70000E94A91510925D0710925E07E7E9F7E02F
:103D800087E011928A95E9F7E9CF27E0829FC00189
:103D90001124815A984F40DE811531F380915E07DE
:103DA00090915F070196877080935E07D7CFA6E05A
:103DB000B0E0EDEDFEE10C9489270E94AC108C017F
:103DC00080911F07909120078017910771F0198249
:103DD0001A820E94AC10BC0149815A8180E090E0B7
:103DE00056DF00931F07109320072696E4E00C94FB
:103DF000A527ACE0B0E0EFEFFEE10C94862780E071
:103E00009CEFE92E2DEFD22E9091F7062091F60629
:103E10002917E1F1E92FF0E0E850F94FF0800F2D7C
:103E20000F779F5F93709093F7068091F5068F5FF1
:103E30008093F506F7FC06C00F83E8860E94AC105D
:103E400013E005C00F83D8860E94AC1012E0BC01BD
:103E500089879A871B8781E08C874F815885812FBE
:103E600091E015DF0983F7FE0FC0DA820E94AC10E3
:103E7000BC018B839C831D831E8249815A81812FC3
:103E800090E005DF81E0C0CFEA82F0CF2C96E7E03A
:103E90000C94A227CDB7DEB728970FB6F894DEBFF3
:103EA0000FBECDBF85B7806885BF85B7806885BFE9
:103EB00084B7877F84BF0FB6F894A895809160007F
:103EC000886180936000109260000FBE80E890E0EF
:103ED0000FB6F89480936100909361000FBE81E06B
:103EE00080930A0184E199E0809314029093150273
:103EF0000E94EC0B0E949D0B8091E20084608093F5
:103F0000E200789480919106811599F08091E90002
:103F10001091EC008F7010FB112717F9182B1092DD
:103F2000E9008091E80083FD0E94D6151F70109370
:103F3000E90082E084BD93E095BD9AEF97BD809340
:103F40006E0010921B0710921C0710921D07109212
:103F50001E078091D80080618093D8008AE18A95FD
:103F6000F1F700C08091D900182F117080FD04C0B6
:103F70000E94EC0B109291061093190710931A07E8
:103F800010930B01111154D6E4EFF6E088E0119282
:103F90008A95E9F780911A0791E0282F2927209325
:103FA000A5069093A806811106C084EF80930D01A9
:103FB00085EF80930C0160E080E00E94650961E07C
:103FC00080E00E9465098FE891E00197F1F700C059
:103FD000000010E08091A806181708F482C08091B4
:103FE0001A0791E08927880F880F8093100794E0C3
:103FF000981B909304074EE9E42E41E0F42E02EA68
:1040000011E0F70181917F018F3F11F00E941609A5
:104010000E151F05B1F702EA11E0F80181918F0139
:104020008F3F11F00E94160981E0083A1807A9F79E
:10403000E8E0F7E088E011928A95E9F7E1E1F7E03E
:1040400088E011928A95E9F780E090E0D7D7833E27
:104050009E4F19F163EE7EEF80E090E0EED760E0D6
:1040600082E090E0D0D781E090E0809355071092F5
:10407000560761E083E0C7D760E074E184E090E038
:10408000DCD760E070E0AB018FE090E0CED760E07D
:1040900070E0AB0183E190E0C8D782E090E0A6D762
:1040A00080939A0684E090E0A9D780935A07909372
:1040B0005B070E94C1108FEF96E721E0815090408E
:1040C0002040E1F700C000000E94C1108091080765
:1040D00080FF19C06FEF7FEF80E090E0AED70E94C5
:1040E0003D0C60E0812F0E948509082F61E0812F3F
:1040F0000E948509E12FF0E0EA55F94F880F802BE7
:1041000080831F5F67CF83E090E070D790E00E94CC
:10411000750582E080938E0680E880938D0623D417
:104120006BE070E082EC98E00E946A0F8115E9F183
:1041300080918E0665E070E081FDC6C08DEB98E051
:104140000E946A0F811589F16DE070E08BEA98E0BA
:104150000E946A0F811549F10E94980ADC01CB0187
:10416000805A9541AF4FBF4F8093890690938A063E
:10417000A0938B06B0938C06E7E8F2E0DF0180E0C5
:1041800094E01D920197E9F7E0938502F09386028F
:104190008FEF9FEF809383029093840281E080935E
:1041A00088068093AE0610928706809119078111C8
:1041B00001C041D58EE091E08093210790932207C2
:1041C00031E0A32EB12CCE0101968F839887809188
:1041D000910600E110E422E1F22E853009F4CDC011
:1041E0000E94C1109BE9C92E96E0D92E88E097E085
:1041F0001C01FC01D6019D91808126E0A33AB20703
:1042000009F4C5C031969817B1F34090190782E9B7
:10421000E82E86E0F82E912CF10181901F01F60125
:1042200081916F01881509F442C08825582E00E05D
:1042300010E077247394872D852189F1672C6820FD
:104240004114F9F0F701808190E09501002E01C042
:10425000220F0A94EAF78223892B99F409839A8220
:104260000E94AC108B839C8381E08D8391E0611070
:1042700001C090E09E8349815A816B817C818D8150
:1042800006DD61100CC08A2D002E01C0880F0A9433
:10429000EAF7982F9095F701808189238083770C26
:1042A0000F5F1F4F0630110531F6F601829293948D
:1042B0008FEFE81AF80A892D883009F0ADCF0E94F7
:1042C000A40ADD24D39467C088EB98E039CF8091AD
:1042D0009106843029F10E94990F10928F0688E18F
:1042E00090E00FB6F894A895809360000FBE1093ED
:1042F000600083B7817F846083BF83B7816083BFA1
:104300007894889583B78E7F83BF0FB6F894A8956D
:1043100080916000886180936000109260000FBE01
:104320000E94C110E8E0F7E0A2E9B6E080E0219148
:104330002D9391E0211101C090E0892B97E0E031AD
:10434000F907A9F78115C9F0809190068115A9F0A8
:1043500009BDF9BC09B400FEFDCF8091D8008F7D66
:104360008093D8008091E00082608093E00080918B
:10437000E00081FDFCCF0E94A91580919106853057
:1043800009F4A5CF0E94A9150E940D0A29CF981300
:104390003CCF0DDDD12CF0901907F11411F029DD7F
:1043A000F82E8091C306811551F01092C3068091BA
:1043B000F6068093F7068091F4068093F506E12CCB
:1043C00038C061E08E2D0E948509182F60E08E2D87
:1043D0000E948509110F812B0E2D10E0D801AA55DE
:1043E000B94FEC919E2F9370891711F1EE0FEE0FDC
:1043F000E82BEC938091A5068E0DEF70F0E0E4576A
:10440000FE4F0D55194FC080F8019081C90E9C2DAB
:1044100060E094301CF49D3F1CF461E00E9445096B
:104420008C2DCC0C990B64E070E0A8D5F80180834A
:10443000E3948091A806E81620F28091190781156F
:1044400011F0D7DCF82AF11439F00E94A40A0E9476
:1044500096120E94770F04C00E949612D110F9CFD5
:1044600086E0EAE4F7E0AF81B88501900D928A9585
:10447000E1F790904B07E0904C07F0904D07C0900B
:104480004E07D0904F0710924C0710924D07109294
:104490004E0710924F078F2D8E2909F441C00091CD
:1044A000AB061091AC060E94AC10801B910B9C01D6
:1044B00090914807911509F4B1C02531310580F17B
:1044C0009F3F19F09F5F90934807E11459F00E94B5
:1044D000C80991E01E140CF09FEF899F802D1124D4
:1044E00080934C07F11459F00E94C80991E01F1401
:1044F0000CF09FEF899F802D112480934D078091B0
:104500004C07811569F010914D07111549F00E9473
:10451000BA0980934C07812F0E94BA0980934D07F6
:104520008C2D8D2909F441C00091A9061091AA068D
:104530000E94AC10801B910B9C0190914707911534
:1045400009F467C02135310580F19F3F19F09F5F65
:1045500090934707C11459F00E94E80991E01C1498
:104560000CF09FEF899F802D112480934E07D1146A
:1045700059F00E94E80991E01D140CF09FEF899F0B
:10458000802D112480934F0780914E07811569F08B
:1045900010914F07111549F00E94BA0980934E07F8
:1045A000812F0E94BA0980934F0780914B07891190
:1045B00019C080914C07811511F0E81213C02091A9
:1045C0004D07211511F0F2120DC090914F07911572
:1045D00011F09D1107C030914E07311103C0822B9D
:1045E000892B11F00E943C1486E0EF81F885AAE443
:1045F000B7E001900D928A95E1F70E940D0A909123
:10460000AD06891709F4E3CD8093AD060E94980AA0
:10461000DECD2B30310508F09ACFC7CF2B303105D6
:1046200008F050CF7DCF78941F921FB61F921124AF
:104630008F939F93AF93BF938091310290913202F9
:10464000A0913302B09134020196A11DB11D809357
:10465000310290933202A0933302B0933402BF919F
:10466000AF919F918F911F901FBE1F9018951F9221
:104670000F920FB60F9211242F933F934F935F9396
:104680006F937F938F939F93AF93BF93EF93FF931A
:104690008091E10082FF09C08091E20082FF05C0A5
:1046A0008091E1008B7F8093E1008091DA0080FFB0
:1046B00024C08091D80080FF20C08091DA008E7FD6
:1046C0008093DA008091D90080FFA9C080E189BD84
:1046D00082E189BD09B400FEFDCF81E0809391069F
:1046E00080912002811109C00E94EC0B0E949D0B59
:1046F0008091E20084608093E2008091E10080FF7D
:104700001AC08091E20080FF16C08091E2008E7F87
:104710008093E2008091E20080618093E2008091CA
:10472000D80080628093D80019BC85E08093910600
:1047300083E080930A018091E10084FF2FC0809183
:10474000E20084FF2BC080E189BD82E189BD09B40C
:1047500000FEFDCF8091D8008F7D8093D80080919E
:10476000E1008F7E8093E1008091E2008F7E809354
:10477000E2008091E20081608093E20080911F025C
:10478000811509F452C084E08093910680919106CE
:10479000843009F052C082E080930A018091E100E8
:1047A00083FF2CC08091E20083FF28C08091E1004C
:1047B000877F8093E10082E08093910610921F0230
:1047C0008091E1008E7F8093E1008091E2008E7FF6
:1047D0008093E2008091E20080618093E20042E0F9
:1047E00060E080E00E941D0B8091F0008860809363
:1047F000F00081E080930A0180930901FF91EF911D
:10480000BF91AF919F918F917F916F915F914F91E8
:104810003F912F910F900FBE0F901F90189519BCCC
:10482000109291061092200268CF8091E30087FFDA
:1048300002C083E0A9CF81E0A7CF81E0ADCF1F9276
:104840000F920FB60F9211241F932F933F934F9304
:104850005F936F937F938F939F93AF93BF93CF9308
:10486000DF93EF93FF93E9EEF0E080811091EC008D
:104870008F7010FB112717F9182B1082C0EFD0E0B2
:104880008881877F888378940E94D615E9EEF0E0CE
:1048900010828881886088831F701083FF91EF9158
:1048A000DF91CF91BF91AF919F918F917F916F9148
:1048B0005F914F913F912F911F910F900FBE0F90DD
:1048C0001F901895EF92FF921F93CF93DF93182FAD
:1048D000EB011092BC0084EA8093BC000E94AC10F3
:1048E0007C018091BC0087FF26C08091B900887F41
:1048F000883029F08091B900887F803189F5109344
:10490000BB0084E88093BC000E94AC107C018091C5
:10491000BC0087FF1EC02091B900287F80E090E096
:10492000283189F081E090E0203409F480E091950D
:104930008195910908C0C7010E94B810C817D9070E
:1049400080F68EEF9FEFDF91CF911F91FF90EF9058
:104950000895C7010E94B810C817D907C0F6F1CF53
:104960008FEF9FEFF0CF1092B9008CE08093B800EA
:1049700008950F931F93CF93DF93EB018093BB00B8
:1049800084E88093BC000E94AC108C018091BC0034
:1049900087FF10C02091B900287F81E090E0283285
:1049A00009F480E0919581959109DF91CF911F9154
:1049B0000F910895CF3FDC0749F3C8010E94B8105A
:1049C000C817D90718F78EEF9FEFEFCFA0E0B0E040
:1049D000EBEEF4E295C2982E862E772E6A017901CD
:1049E0000E94AC105C0184E1E816F10410F18FEF35
:1049F000E816FE0409F1C70164E170E068D2162FE1
:104A0000072F612F702F892D5DDFEC01892BB1F409
:104A1000082D172DC00ED11E0C151D0511F0209765
:104A2000C1F084E98093BC00CE01CDB7DEB7EDE0E4
:104A300083C211E000E0E5CF15E0FCCF8FEFE81670
:104A4000FE04F9F2C5010E94B810E816F906C8F68E
:104A5000DFCFB701F80181918F018BDFEC01DCCF53
:104A6000A0E0B0E0E5E3F5E24BC2982E862E772E6B
:104A70006A0189010E94AC105C010431110500F14A
:104A80000F3F100701F1C80164E170E020D2EB0193
:104A9000BE01892D17DF7C01892BB9F4C82DD72DD4
:104AA000CC0EDD1ECC15DD0519F0E114F104B9F0D2
:104AB00084E98093BC00C701CDB7DEB7EDE03CC20E
:104AC000C1E0D0E0E5CFC5E0FCCF0F3F100701F318
:104AD000C5010E94B81008171907D0F6DFCFFE01F4
:104AE0008491B80146DF7C012196DCCFA0E0B0E0E4
:104AF000EBE7F5E204C2982E862E742E652E69012E
:104B0000E8010E94AC105C010431110508F10F3F6F
:104B1000100711F1C80164E170E0D9D1F62EE72E3B
:104B20006F2D7E2D892DCEDE8C01892BC1F0CF3FDC
:104B3000DC07B1F3C5010E94B810C817D90780F788
:104B400084E98093BC00C801CDB7DEB7EEE0F3C1C5
:104B5000FF24F394E12CE4CF85E0F82EFBCFBE01D7
:104B6000882D07DF8C01E72CF62CCE0CDF1CEC1413
:104B7000FD0431F30115110519F7BE01F70181910B
:104B80007F01F7DE8C01F3CF8EE14A9B02C081509A
:104B9000E1F74A9BFECF08955A9880E28A95F1F793
:104BA0005A9A0895FC018BE08A95F1F728E080E09D
:104BB00090E031E040E14A95F1F7880F4A9B02C04E
:104BC0008160932742E04A95F1F7000040E14A9561
:104BD000F1F7215079F720E12A95F1F729B132E078
:104BE0003A95F1F7000030E13A95F1F731E022FD16
:104BF00093272081920F90830895A1E0B0E0E2E036
:104C0000F6E285C119828C017C01E60EF11CBCDF45
:104C1000CE010196C7DFF80181938F01EE15FF05E4
:104C2000B1F781E09981911180E02196E6E08BC196
:104C3000529A5A9A089552985A9AEA9AE9E6F0E0F6
:104C400080818F7C808308956150770B91E001C053
:104C5000990F6A95EAF7692F90E021E0611108C089
:104C6000911591F05A9A80E28A95F1F75A98089531
:104C7000362F382339F05A9A922730E23A95F1F7D5
:104C80006695ECCF5A98F9CF5A98EDCFFF920F93D3
:104C90001F93CF93DF93EC018C01060F111D8991B7
:104CA000F82E7ADF68E08F2DCFDFC017D107B9F774
:104CB000CDB7DEB7E5E048C11F920F920FB60F9255
:104CC00011240F931F932F933F934F935F936F93F1
:104CD0007F938F939F93AF93BF93EF93FF93CF9364
:104CE000DF930F92CDB7DEB719824EDFCE0101966A
:104CF00059DF082F069506950695282F22952570D1
:104D0000902F9570920F292F237096959695920F5C
:104D1000982797708981892B09F055C00C3008F0CD
:104D200052C080E18A95F1F75A9A529A82E08A95A8
:104D3000F1F700C05A9888E0089F80011124D8013B
:104D4000A85EBE4F1696ED91FD911897309791F0A1
:104D500060919C0170919D0114962D913D91260FBB
:104D6000371F15978D919D91680F791F4C9113975F
:104D70008C910995F801E85EFE4F6381611549F059
:104D800020919C0130919D0184819581820F931F18
:104D90007DDF02DF80E18A95F1F75A9852985A9A9E
:104DA00080E18A95F1F7F801E85EFE4F60816115B8
:104DB00049F020919C0130919D0181819281820F67
:104DC000931F1BDFE1DE0F90DF91CF91FF91EF91F9
:104DD000BF91AF919F918F917F916F915F914F9113
:104DE0003F912F911F910F910F900FBE0F901F9029
:104DF00018950F931F93CF93DF93EC010C970CF052
:104E00005EC0F894529A5A9885E08A95F1F70000AE
:104E10009C2F969595708C2F8570980F892F837095
:104E200096959695292F93E0CC0FDD1F9A95E1F783
:104E3000280F822F8C2B082FAFDE00C068E0802F58
:104E400003DF80E18A95F1F752985A9A4A9B30C065
:104E500087E090E04A992EC0FE01E85EFE4F638134
:104E6000611559F020919C0130919D0184819581BB
:104E7000820F931FC2DE8115F9F086DE80E28A95EB
:104E8000F1F75A98529A80E18A95F1F7C85EDE4FA1
:104E90006881611549F020919C0130919D018981C3
:104EA0009A81820F931FF2DE77DE789481E008C04A
:104EB00000C0CCCF019749F4529A5A9A789480E076
:104EC000DF91CF911F910F91089500C0C3CFAA1B0E
:104ED000BB1B51E107C0AA1FBB1FA617B70710F0E5
:104EE000A61BB70B881F991F5A95A9F78095909517
:104EF000BC01CD0108952F923F924F925F926F9225
:104F00007F928F929F92AF92BF92CF92DF92EF9259
:104F1000FF920F931F93CF93DF93CDB7DEB7CA1BDA
:104F2000DB0B0FB6F894DEBF0FBECDBF09942A8805
:104F3000398848885F846E847D848C849B84AA84AD
:104F4000B984C884DF80EE80FD800C811B81AA813A
:104F5000B981CE0FD11D0FB6F894DEBF0FBECDBF05
:104F6000ED010895992778E0880F991F961708F0AA
:104F7000961B881F7A95C9F78095089597FB072E91
:104F800016F4009406D077FD08D0A1DF07FC05D009
:104F90003EF4909581959F4F0895709561957F4F50
:104FA0000895EE0FFF1F0590F491E02D0994FB0189
:104FB000DC0102C005900D9241505040D8F7089591
:104FC000FB01DC0104C08D910190801921F4415056
:104FD0005040C8F7881B990B0895FB01DC0102C003
:104FE00001900D9241505040D8F70895F999FECFA5
:104FF00092BD81BDF89A992780B50895A8E1B0E0E7
:1050000042E050E020C0262FF999FECF92BD81BD2D
:10501000F89A019700B4021639F01FBA20BD0FB6F6
:10502000F894FA9AF99A0FBE08950396272FECDFA9
:10503000EADF252FE9DF242FE7CF0196272FE4DFD2
:10504000E2CFDC01CB01FC01F999FECF06C0F2BD35
:10505000E1BDF89A319600B40D9241505040B8F736
:105060000895F894FFCF7014761479147F14941473
:105070009414941494149414941494149414821402
:1050800087148B149114A114A714AB14B716DD1652
:10509000E316DD16E31632175517E31646185318B4
:1050A00018191C19FC1814192019241928198A19FF
:1050B000F01992195D196119961965199A19A619AD
:1050C0007119E9197519AA197919AE19D2197D1929
:1050D000B219D9198219B719BF1969199E196D1911
:1050E000A2198619BB19C919E119E71957198E199F
:1050F000F719991A991ACF1ACF1A5B1B771BF61A50
:0A510000F61A7B1B0A1C1B1C1B1C6B
:10510A000021007F2200070000010001F4F5950A42
:10511A009B0CBF0AAE0CB30C00000001000000009B
:10512A000000000401000000040500000000000067
:10513A000000000109000000000000080A00000049
:10514A000000000000002C0904120000000000000A
:10515A000216000000000000021800000000000013
:10516A00041A000000000000011E000000000000F8
:10517A00CA00BB00AC00F700E800D900000810180C
:10518A0020283038383028201810080000FF010085
:10519A00010000FFFF0000010001FF00D50666972D
:1051AA00C634F6F731333236E200E900EA00B500D8
:1051BA00B600B700CD008301CC008A0192019401A8
:1051CA002102230224022502260227022A02B30010
:1051DA00B4006F0070009F01CB019F02A002E200A1
:1051EA00E900EA00B500B600B700CD008301CC00A3
:1051FA008A01920194012102230224022502260235
:10520A0027022A02B300B4006F0070009F01CB018D
:04521A009F02A0024D
:00000001FF
